:020000040800F2
:10000000008001208DF30008ADED0008BBED000875
:10001000C1ED0008C7ED0008CDED000800000000AC
:10002000000000000000000000000000D3ED000808
:10003000E1ED000800000000EFED0008FDED000814
:10004000DDF30008DDF30008DDF30008DDF3000850
:10005000DDF30008DDF30008DDF30008DDF3000840
:10006000DDF30008DDF30008DDF30008DDF3000830
:10007000DDF30008DDF30008DDF30008DDF3000820
:10008000DDF30008DDF30008DDF30008DDF3000810
:10009000DDF30008DDF30008DDF30008DDF3000800
:1000A000DDF30008DDF30008DDF30008DDF30008F0
:1000B000DDF30008DDF30008DDF30008DDF30008E0
:1000C000DDF30008DDF30008DDF30008DDF30008D0
:1000D000DDF30008DDF30008DDF30008DDF30008C0
:1000E000DDF30008DDF30008DDF30008DDF30008B0
:1000F000DDF30008DDF30008DDF30008DDF30008A0
:10010000DDF30008DDF3000809EE0008DDF3000868
:1001100021EE0008DDF30008DDF30008DDF3000840
:10012000DDF30008DDF3000859EE0008DDF30008F8
:1001300085EE0008DDF30008DDF30008DDF30008BC
:10014000DDF30008DDF30008DDF30008DDF300084F
:10015000DDF30008DDF30008DDF30008DDF300083F
:10016000DDF30008DDF30008DDF30008DDF300082F
:10017000DDF30008DDF30008DDF3000800000000F7
:08018000DDF30008DDF30008C7
:1001880010B5054C237833B9044B13B10448AFF3C9
:1001980000800123237010BD0C0000200000000027
:1001A8006CF4000808B5034B1BB103490348AFF3CF
:1001B800008008BD00000000100000206CF400085A
:1001C80080B582B000AF0023FB710C4A0B4B1B6853
:1001D80043F480731360032000F064FC002000F0F7
:1001E80049F80346002B02D00123FB7101E00EF011
:1001F800A5FCFB7918460837BD4680BD00200240A3
:1002080080B500AF134B4FF0FF329A63114B0022B9
:100218009A63104B4FF0FF321A640E4B00221A6497
:100228000C4B4FF0FF329A620A4B00229A62094B3C
:100238004FF0FF32DA62074B0022DA62054B4FF0CB
:10024800FF321A63034B00221A6300F00CF80023F4
:10025800184680BD0010024080B400AF00BFBD4604
:100268005DF8047B704780B400AF00BFBD465DF801
:10027800047B704780B584B000AF78600023FB73BF
:10028800164B1B68002B22D0154B1A68134B1B68A2
:100298004FF47A71B1FBF3F3B2FBF3F3184600F0B5
:1002A80048FC0346002B0FD17B680F2B09D800228E
:1002B80079684FF0FF3000F000FC0A4A7B68136051
:1002C80007E00123FB7304E00123FB7301E0012332
:1002D800FB73FB7B18461037BD4680BD0400002029
:1002E800080000200000002080B400AF054B1A6809
:1002F800054B1B681344034A136000BFBD465DF8F5
:10030800047B7047280000200400002080B400AF60
:10031800034B1B681846BD465DF8047B704700BF59
:100328002800002080B400AF034B1B681846BD4668
:100338005DF8047B704700BF0000002080B584B0E2
:1003480000AF78600023FB730B4B1A687B689A42F6
:100358000CD00A4B1B681846FFF78CFF0346FB734B
:10036800FB7B002B02D1044A7B681360FB7B184699
:100378001037BD4680BD00BF0400002000000020EB
:1003880080B400AF034B1B681846BD465DF8047B7C
:10039800704700BF0400002080B584B000AF7860CB
:1003A800FFF7B4FFB8607B68FB60FB68B3F1FF3F01
:1003B80004D0094B1B68FA681344FB6000BFFFF7C1
:1003C800A5FF0246BB68D21AFB689A42F7D300BF62
:1003D8001037BD4680BD00BF0400002080B400AFC8
:1003E800054A054B1B6823F00203136000BFBD4696
:1003F8005DF8047B704700BF10E000E080B400AFF8
:10040800054A054B1B6843F00203136000BFBD4655
:100418005DF8047B704700BF10E000E080B400AFD7
:100428004FF085731846BD465DF8047B704780B46D
:1004380000AF044B1B681B0C9BB21846BD465DF809
:10044800047B7047002004E080B400AF044B1B68B5
:10045800C3F30B031846BD465DF8047B704700BF25
:10046800002004E080B400AF034B1B681846BD466B
:100478005DF8047B704700BF9075FF1F80B400AF24
:10048800034B1B681846BD465DF8047B704700BFE8
:100498009475FF1F80B400AF034B1B681846BD4618
:1004A8005DF8047B704700BF9875FF1F80B400AFEC
:1004B800054A054B5B6843F00103536000BFBD4626
:1004C8005DF8047B704700BF002004E080B400AFF3
:1004D800054A054B5B6823F00103536000BFBD4626
:1004E8005DF8047B704700BF002004E080B400AFD3
:1004F800054A054B5B6843F00203536000BFBD46E5
:100508005DF8047B704700BF002004E080B400AFB2
:10051800054A054B5B6823F00203536000BFBD46E4
:100528005DF8047B704700BF002004E080B400AF92
:10053800054A054B5B6843F00403536000BFBD46A2
:100548005DF8047B704700BF002004E080B400AF72
:10055800054A054B5B6823F00403536000BFBD46A2
:100568005DF8047B704700BF002004E080B400AF52
:10057800064BCA225A62054B53225A62044B012287
:100588001A6000BFBD465DF8047B7047000001405B
:100598000003204280B400AF034B01221A6000BF61
:1005A800BD465DF8047B70472000204280B400AF50
:1005B800034B00221A6000BFBD465DF8047B7047FC
:1005C8002000204280B483B000AF78600649064B13
:1005D8001B6823F004027B6813430B6000BF0C37D1
:1005E800BD465DF8047B70473000014080B483B09D
:1005F80000AF78600649064B1B6823F002027B684F
:1006080013430B6000BF0C37BD465DF8047B704791
:100618003000014080B483B000AF78600649064BD3
:100628005B6823F03F027B6813434B6000BF0C37C5
:10063800BD465DF8047B70473000014080B582B04C
:1006480000AF0F4A0E4B1B6843F001031360FFF71E
:100658005DFE786008E0FFF759FE02467B68D31A12
:100668000A2B01D9032306E0054B1B6803F0080396
:10067800002BF0D0002318460837BD4680BD00BFC8
:100688003000014080B400AF054A054B1B6823F0D9
:100698000103136000BFBD465DF8047B704700BFCF
:1006A8003000014080B400AF054A054B5B6843F455
:1006B8008073536000BFBD465DF8047B704700BF80
:1006C8000000014080B400AF054A054B5B6823F485
:1006D8008073536000BFBD465DF8047B704700BF60
:1006E8000000014080B485B000AF78607B6803F0FB
:1006F8000703FB600C4BDB68BB60BA684FF6FF036F
:100708001340BB60FB681A02BB68134343F0BF6326
:1007180043F40033BB60044ABB68D36000BF14379E
:10072800BD465DF8047B704700ED00E080B400AF83
:10073800044BDB681B0A03F007031846BD465DF847
:10074800047B704700ED00E080B483B000AF03463F
:10075800FB7197F90730002B0BDB094997F9073034
:100768005B09FA7902F01F02012000FA02F241F84F
:10077800232000BF0C37BD465DF8047B704700BFDF
:1007880000E100E080B483B000AF0346FB7197F945
:100798000730002B10DB0B4997F907305B09FA7912
:1007A80002F01F02012000FA02F2203341F8232050
:1007B800BFF34F8FBFF36F8F00BF0C37BD465DF897
:1007C800047B704700E100E080B483B000AF0346CB
:1007D800FB7197F90730002B0EDB0B4A97F90730AE
:1007E8005B09403352F82320FB7903F01F0322FAF8
:1007F80003F303F0010300E0002318460C37BD465D
:100808005DF8047B704700BF00E100E080B483B06E
:1008180000AF0346FB7197F90730002B0CDB094941
:1008280097F907305B09FA7902F01F02012000FAF4
:1008380002F2403341F8232000BF0C37BD465DF873
:10084800047B704700E100E080B483B000AF03464A
:10085800FB7197F90730002B0CDB094997F9073032
:100868005B09FA7902F01F02012000FA02F26033F4
:1008780041F8232000BF0C37BD465DF8047B704764
:1008880000E100E080B483B000AF0346FB7197F944
:100898000730002B0EDB0B4A97F907305B098033D2
:1008A80052F82320FB7903F01F0322FA03F303F025
:1008B800010300E0002318460C37BD465DF8047BB1
:1008C800704700BF00E100E080B483B000AF03468A
:1008D8003960FB7197F90730002B0ADB0D4997F94E
:1008E80007303A68D2B21201D2B20B4483F800231F
:1008F8000AE00949FB7903F00F03043B3A68D2B2D6
:100908001201D2B20B441A7600BF0C37BD465DF80F
:10091800047B704700E100E000ED00E080B483B0A4
:1009280000AF0346FB7197F90730002B09DB0D4A2E
:1009380097F90730134493F80033DBB21B09DBB295
:1009480009E0094AFB7903F00F03043B13441B7EBB
:10095800DBB21B09DBB218460C37BD465DF8047BD9
:10096800704700BF00E100E000ED00E080B489B00E
:1009780000AFF860B9607A60FB6803F00703FB61B9
:10098800FB69C3F10703042B28BF0423BB61FB6980
:100998000433062B02D9FB69033B00E000237B618B
:1009A8000122BB6902FA03F35A1EBB681A407B692D
:1009B8009A4001217B6901FA03F3591E7B680B40B9
:1009C800134318462437BD465DF8047B704780B44E
:1009D80089B000AFF860B9607A603B60BB6803F02B
:1009E8000703FB61FB69C3F10703042B28BF04233A
:1009F800BB61FB690433062B02D9FB69033B00E0AA
:100A080000237B61FA687B69DA400121BB6901FA3E
:100A180003F3013B1A407B681A6001227B6902FAE2
:100A280003F35A1EFB681A403B681A6000BF24375C
:100A3800BD465DF8047B704780B400AFBFF34F8FAD
:100A48000549054BDB6803F4E062044B1343CB60B4
:100A5800BFF34F8F00BFFDE700ED00E00400FA058B
:100A680080B582B000AF78607B68013BB3F1807FCE
:100A780001D301230FE00A4A7B68013B53600F2131
:100A88004FF0FF30FFF720FF054B00229A60044B20
:100A980007221A60002318460837BD4680BD00BFEC
:100AA80010E000E080B582B000AF78607868FFF7AA
:100AB80019FE00BF0837BD4680BD80B586B000AFBF
:100AC8000346B9607A60FB7300237B61FFF72EFE53
:100AD80078617A68B9687869FFF748FF024697F93C
:100AE8000F3011461846FFF7EFFE00BF1837BD4616
:100AF80080BD80B582B000AF0346FB7197F907301F
:100B08001846FFF721FE00BF0837BD4680BD80B5F7
:100B180082B000AF0346FB7197F907301846FFF71C
:100B280031FE00BF0837BD4680BD80B500AFFFF776
:100B380083FF80B582B000AF78607868FFF790FFD8
:100B4800034618460837BD4680BD80B500AFFFF79D
:100B5800EDFD0346184680BD80B584B000AFB9608E
:100B68007A603B600346FB7397F90F301846FFF72E
:100B7800D5FE3B687A68B968FFF729FF00BF1037D0
:100B8800BD4680BD80B582B000AF0346FB7197F9C2
:100B980007301846FFF73AFE00BF0837BD4680BD4C
:100BA80080B582B000AF0346FB7197F9073018464D
:100BB800FFF70AFE034618460837BD4680BD80B5D4
:100BC80082B000AF0346FB7197F907301846FFF76C
:100BD8003BFE00BF0837BD4680BD80B582B000AF80
:100BE8000346FB7197F907301846FFF74BFE03469B
:100BF80018460837BD4680BD80B483B000AF786022
:100C08007B68042B06D1094A084B1B6843F0040390
:100C1800136005E0054A054B1B6823F004031360C5
:100C280000BF0C37BD465DF8047B704710E000E05C
:100C380080B500AF00F002F800BF80BD80B400AFFF
:100C480000BFBD465DF8047B704780B400AFBFF3BA
:100C58005F8F074A064B5B6A23F480335362054B68
:100C680000225A6000BFBD465DF8047B704700BF94
:100C780000ED00E090ED00E080B483B000AF786054
:100C88000A4A7B6843F001035360094A084B5B6AD0
:100C980043F480335362BFF34F8FBFF36F8F00BFAE
:100CA8000C37BD465DF8047B704700BF90ED00E04F
:100CB80000ED00E080B483B000AF78601E4A7B6826
:100CC8005B7893607B681B78002B28D01A4A7B6876
:100CD8005B68D36018497B681B7B1A077B68DB7AE3
:100CE8001B061A437B689B7ADB041A437B685B7B91
:100CF8009B041A437B689B7B5B041A437B68DB7B02
:100D08001B041A437B685B7A1B021A437B681B7AB5
:100D18005B0013437A68127813430B6105E0064BB6
:100D28000022DA60044B00221A6100BF0C37BD466E
:100D38005DF8047B704700BF90ED00E080B485B09B
:100D480000AF78607B68002B01D1012398E07B68B5
:100D58001B681A464D4B9A420FD87B681B681A4687
:100D68004B4B13444B4AA2FB03231B099A007B6895
:100D78005A647B68484A1A640EE07B681B681A4606
:100D8800464B1344434AA2FB03231B099A007B6882
:100D98005A647B68424A1A647B68022283F82520D9
:100DA8007B681B681B68FB60FB6823F4FF4323F028
:100DB8007003FB607B689A687B68DB681A437B6812
:100DC8001B691A437B685B691A437B689B691A43F2
:100DD8007B68DB691A437B681B6A1343FA68134311
:100DE800FB607B681B68FA681A607B689B68B3F5D0
:100DF800804F39D07B681B6C274A93421AD1294906
:100E0800284B1A687B685B6C03F01C030F2000FA00
:100E180003F3DB4313400B602248224B1A687B68BC
:100E280059687B685B6C03F01C0301FA03F31343F6
:100E3800036019E01C491C4B1A687B685B6C03F063
:100E48001C030F2000FA03F3DB4313400B60164822
:100E5800154B1A687B6859687B685B6C03F01C0348
:100E680001FA03F3134303607B680022DA637B68AB
:100E7800012283F825207B68002283F824200023A0
:100E880018461437BD465DF8047B704707040240D6
:100E9800F8FFFDBFCDCCCCCC00000240F8FBFDBF75
:100EA80000040240A8000240A804024080B483B0B5
:100EB80000AF78607B68002B01D1012372E07B686A
:100EC8001B687A681268126822F001021A607B684F
:100ED8001B681A46364B9A420FD87B681B681A461D
:100EE800344B1344344AA2FB03231B099A007B6842
:100EF8005A647B68314A1A640EE07B681B681A469C
:100F08002F4B13442C4AA2FB03231B099A007B682E
:100F18005A647B682B4A1A647B681B6800221A6033
:100F28007B681B6C7A68526C02F01C02012101FA82
:100F380002F25A607B681B6C204A93420DD1224909
:100F4800214B1A687B685B6C03F01C030F2000FAC6
:100F580003F3DB4313400B600CE01C491B4B1A687E
:100F68007B685B6C03F01C030F2000FA03F3DB4380
:100F780013400B607B680022DA627B6800221A63E8
:100F88007B6800225A637B6800229A637B68002290
:100F9800DA637B68002283F825207B68002283F8C7
:100FA8002420002318460C37BD465DF8047B7047A3
:100FB80007040240F8FFFDBFCDCCCCCC00000240B6
:100FC800F8FBFDBF00040240A8000240A80402404C
:100FD80080B586B000AFF860B9607A603B600023E6
:100FE800FB75FB6893F82430012B01D102232EE016
:100FF800FB68012283F82420FB6893F82530DBB2D4
:10100800012B1DD1FB68022283F82520FB680022F2
:10101800DA63FB681B68FA681268126822F001023A
:101028001A603B687A68B968F86800F003FBFB68E7
:101038001B68FA681268126842F001021A6005E03B
:10104800FB68002283F824200223FB75FB7D1846E9
:101058001837BD4680BD80B586B000AFF860B9606E
:101068007A603B600023FB75FB6893F82430012B02
:1010780001D102234BE0FB68012283F82420FB689E
:1010880093F82530DBB2012B3AD1FB68022283F8B2
:101098002520FB680022DA63FB681B68FA6812687F
:1010A800126822F001021A603B687A68B968F86829
:1010B80000F0C0FAFB681B6B002B08D0FB681B68AC
:1010C800FA681268126842F00E021A600FE0FB68B4
:1010D8001B68FA681268126822F004021A60FB683A
:1010E8001B68FA681268126842F00A021A60FB6804
:1010F8001B68FA681268126842F001021A6005E07B
:10110800FB68002283F824200223FB75FB7D184628
:101118001837BD4680BD80B485B000AF7860002325
:10112800FB737B6893F82530DBB2022B08D07B6811
:101138000422DA637B68002283F82420012322E05A
:101148007B681B687A681268126822F00E021A60BF
:101158007B681B687A681268126822F001021A60BC
:101168007B681B6C7A68526C02F01C02012101FA40
:1011780002F25A607B68012283F825207B680022EE
:1011880083F82420FB7B18461437BD465DF8047BA2
:10119800704780B584B000AF78600023FB737B682C
:1011A80093F82530DBB2022B05D07B680422DA6382
:1011B8000123FB7329E07B681B687A681268126850
:1011C80022F00E021A607B681B687A68126812683F
:1011D80022F001021A607B681B6C7A68526C02F07C
:1011E8001C02012101FA02F25A607B68012283F88D
:1011F80025207B68002283F824207B689B6B002BCA
:1012080003D07B689B6B78689847FB7B1846103740
:10121800BD4680BD80B586B000AFF8600B467A60E9
:10122800FB72FB6893F82530DBB2022B08D0FB6811
:101238000422DA63FB68002283F8242001238CE06F
:10124800FB681B681B6803F02003002B05D0FB68B4
:101258004FF48072DA6301237FE0FB7A002B08D118
:10126800FB685B6C03F01C03022202FA03F37B6148
:1012780007E0FB685B6C03F01C03042202FA03F32B
:101288007B61FFF743F838613FE0FB681B6C1A6825
:10129800FB685B6C03F01C03082101FA03F313409D
:1012A800002B16D0FB681B6CFA68526C02F01C020B
:1012B800012101FA02F25A60FB680122DA63FB6835
:1012C800012283F82520FB68002283F824200123CB
:1012D80043E07B68B3F1FF3F17D0FFF717F80246EA
:1012E8003B69D21A7B689A4202D87B68002B0CD1E2
:1012F800FB682022DA63FB68012283F82520FB685B
:10130800002283F82420012327E0FB681B6C1A685D
:101318007B691340002BB8D0FB7A002B0ED1FB68F9
:101328001B6CFA68526C02F01C02022101FA02F2EC
:101338005A60FB68012283F8252009E0FB681B6CD2
:10134800FA68526C02F01C02042101FA02F25A6097
:10135800FB68002283F82420002318461837BD466E
:1013680080BD80B584B000AF78607B681B6C1B685B
:10137800FB607B681B681B68BB607B685B6C03F069
:101388001C0304229A40FB681340002B26D0BB683C
:1013980003F00403002B21D07B681B681B6803F053
:1013A8002003002B07D17B681B687A6812681268D3
:1013B80022F004021A607B681B6C7A68526C02F097
:1013C8001C02042101FA02F25A607B681B6B002B95
:1013D80071D07B681B6B786898476CE07B685B6CA6
:1013E80003F01C0302229A40FB681340002B2ED006
:1013F800BB6803F00203002B29D07B681B681B68BD
:1014080003F02003002B0BD17B681B687A681268F5
:10141800126822F00A021A607B68012283F82520EC
:101428007B681B6C7A68526C02F01C02022101FA7C
:1014380002F25A607B68002283F824207B68DB6A0A
:10144800002B38D07B68DB6A7868984733E07B6884
:101458005B6C03F01C0308229A40FB681340002BC6
:101468002AD0BB6803F00803002B25D07B681B68D3
:101478007A681268126822F00E021A607B681B6C88
:101488007A68526C02F01C02012101FA02F25A60D9
:101498007B680122DA637B68012283F825207B6858
:1014A800002283F824207B685B6B002B04D07B68C8
:1014B8005B6B7868984700BF00BF1037BD4680BD9A
:1014C80080B487B000AFF8600B467A60FB720023E7
:1014D800FB75FB6893F82430012B01D1022332E01D
:1014E800FB68012283F82420FB6893F82530DBB2DF
:1014F800012B21D1FB7A032B1AD801A252F823F031
:1015080019150008211500082915000831150008CB
:10151800FB687A68DA6211E0FB687A681A630DE0A2
:10152800FB687A685A6309E0FB687A689A6305E0A1
:101538000123FB7500BF01E00123FB75FB68002256
:1015480083F82420FB7D18461C37BD465DF8047BD4
:10155800704780B485B000AF78600B46FB700023FD
:10156800FB737B6893F82430012B01D1022341E0FF
:101578007B68012283F824207B6893F82530DBB24E
:10158800012B30D1FB78042B29D801A252F823F083
:10159800AD150008B5150008BD150008C5150008EB
:1015A800CD1500087B680022DA621EE07B68002205
:1015B8001A631AE07B6800225A6316E07B680022EF
:1015C8009A6312E07B680022DA627B6800221A6361
:1015D8007B6800225A637B6800229A6305E0012336
:1015E800FB7300BF01E00123FB737B68002283F8D3
:1015F8002420FB7B18461437BD465DF8047B7047F2
:1016080080B483B000AF78607B6893F82530DBB294
:1016180018460C37BD465DF8047B704780B483B02C
:1016280000AF78607B68DB6B18460C37BD465DF809
:10163800047B704780B485B000AFF860B9607A6009
:101648003B60FB681B6CFA68526C02F01C020121BB
:1016580001FA02F25A60FB681B683A685A60FB6834
:101668009B68102B08D1FB681B687A689A60FB6836
:101678001B68BA68DA6007E0FB681B68BA689A609A
:10168800FB681B687A68DA6000BF1437BD465DF8EE
:10169800047B704780B487B000AF7860396000235E
:1016A8007B617FE13B681A6801217B6901FA03F3DA
:1016B8001340FB60FB68002B00F071813B685B689E
:1016C800022B03D03B685B68122B23D17B69DA08B5
:1016D8007B68083253F822303B617B6903F00703CB
:1016E8009B000F2202FA03F3DB433A6913403B6184
:1016F8003B681A697B6903F007039B0002FA03F34E
:101708003A6913433B617B69DA087B6808323969B7
:1017180043F822107B681B683B617B695B000322EE
:1017280002FA03F3DB433A6913403B613B685B68A9
:1017380003F003027B695B0002FA03F33A6913437F
:101748003B617B683A691A603B685B68012B0BD088
:101758003B685B68022B07D03B685B68112B03D0A2
:101768003B685B68122B30D17B689B683B617B6967
:101778005B00032202FA03F3DB433A6913403B613F
:101788003B68DA687B695B0002FA03F33A69134342
:101798003B617B683A699A607B685B683B610122C0
:1017A8007B6902FA03F3DB433A6913403B613B6808
:1017B8005B681B0903F001027B6902FA03F33A69CB
:1017C80013433B617B683A695A603B685B6803F086
:1017D8000303032B18D17B68DB6A3B6101227B6919
:1017E80002FA03F3DB433A6913403B613B685B68E9
:1017F800DB0803F001027B6902FA03F33A69134339
:101808003B617B683A69DA627B68DB683B617B69CC
:101818005B00032202FA03F3DB433A6913403B619E
:101828003B689A687B695B0002FA03F33A691343E1
:101838003B617B683A69DA603B685B6803F0805318
:10184800002B00F0AC805E4A5D4B1B6E43F0010339
:1018580013665B4B1B6E03F00103BB60BB68594A00
:101868007B699B08023352F823303B617B6903F0A4
:1018780003039B000F2202FA03F3DB433A69134088
:101888003B617B68B3F1904F25D07B684E4A934209
:101898001FD07B684D4A934219D07B684C4A9342CB
:1018A80013D07B684B4A93420DD07B684A4A9342D7
:1018B80007D07B68494A934201D106230CE00723ED
:1018C8000AE0052308E0042306E0032304E00223DA
:1018D80002E0012300E000237A6902F0030292008B
:1018E80093403A6913433B6136497B699B0802334D
:1018F8003A6941F823203A4B1B683B61FB68DB439C
:101908003A6913403B613B685B6803F48033002B02
:1019180003D03A69FB6813433B61314A3B69136062
:101928002F4B5B683B61FB68DB433A6913403B61C3
:101938003B685B6803F40033002B03D03A69FB680B
:1019480013433B61264A3B695360254B9B683B61C7
:10195800FB68DB433A6913403B613B685B6803F40F
:101968008013002B03D03A69FB6813433B611C4A80
:101978003B6993601A4BDB683B61FB68DB433A6960
:1019880013403B613B685B6803F40013002B03D0F2
:101998003A69FB6813433B61114A3B69D3607B6931
:1019A80001337B613B681A687B6922FA03F3002BD9
:1019B8007FF478AE00BF1C37BD465DF8047B7047E6
:1019C80000100240000001400004004800080048E0
:1019D800000C004800100048001400480018004897
:1019E8000004014080B487B000AF786039600023FC
:1019F8007B61CDE001227B699A403B6813403B61E3
:101A08003B69002B00F0C180684A7B699B08023360
:101A180052F82330FB607B6903F003039B000F221D
:101A280002FA03F3FA681340FB607B68B3F1904F46
:101A380025D07B685E4A93421FD07B685D4A9342FB
:101A480019D07B685C4A934213D07B685B4A934207
:101A58000DD07B685A4A934207D07B68594A934213
:101A680001D106230CE007230AE0052308E004233C
:101A780006E0032304E0022302E0012300E0002340
:101A88007A6902F00302920003FA02F2FB689A42B2
:101A980032D14D494C4B1A683B69DB4313400B600C
:101AA8004949494B5A683B69DB4313404B604649F7
:101AB800454B9A683B69DB4313408B604249424B74
:101AC800DA683B69DB431340CB607B6903F00303AF
:101AD8009B000F2202FA03F3FB6034487B699B08E2
:101AE80032497A699208023251F82210FA68D243D0
:101AF8000A40023340F823207B681A687B695B0040
:101B0800032101FA03F31A437B681A607B69DA0838
:101B18007B69D9087B68083153F821107B6903F089
:101B280007039B000F2000FA03F3DB4319407B688F
:101B3800083243F822107B689A687B695B000321AE
:101B480001FA03F3DB431A407B689A607B685A68A2
:101B580001217B6901FA03F3DB431A407B685A6071
:101B68007B68DA687B695B00032101FA03F3DB43D6
:101B78001A407B68DA607B68DA6A01217B6901FABE
:101B880003F3DB431A407B68DA627B6901337B61CC
:101B98003A687B6922FA03F3002B7FF42BAF00BF6E
:101BA8001C37BD465DF8047B704700BF000001404C
:101BB8000004004800080048000C004800100048D5
:101BC80000140048001800480004014080B485B0A3
:101BD80000AF78600B467B807B681A697B8813406E
:101BE800002B02D00123FB7301E00023FB73FB7B76
:101BF80018461437BD465DF8047B704780B483B03F
:101C080000AF78600B467B8013467B707B78002B97
:101C180003D07A887B689A6102E07A887B689A6246
:101C280000BF0C37BD465DF8047B704780B483B0B5
:101C380000AF78600B467B807B685A697B881340CD
:101C4800002B03D07A887B689A6202E07A887B68E6
:101C58009A6100BF0C37BD465DF8047B704780B4BD
:101C680085B000AF78600B467B804FF48033FB6013
:101C78007A88FB681343FB60FA687B68DA617A88C4
:101C88007B68DA61FA687B68DA617B68DB69FB602C
:101C98007B68DB6903F48033002B01D0002300E06C
:101CA800012318461437BD465DF8047B704780B59C
:101CB80082B000AF0346FB80084B5A69FB8813408B
:101CC800002B06D0054AFB885361FB88184600F0B4
:101CD80007F800BF0837BD4680BD00BF00040140BB
:101CE80080B483B000AF0346FB8000BF0C37BD460D
:101CF8005DF8047B704700BF80B400AF084A084B0A
:101D08009B6B43F080539363054A054B9B6B23F011
:101D18008053936300BFBD465DF8047B704700BFE6
:101D28000010024080B400AF054A054B1B6843F41D
:101D38008073136000BFBD465DF8047B704700BF29
:101D48000070004080B400AF054A054B1B6823F4BF
:101D58008073136000BFBD465DF8047B704700BF09
:101D68000070004080B483B000AF78602B492B4BE3
:101D78005B6823F00E027B681B6813434B60284A9C
:101D8800274B5B6823F480335360254A244B1B6838
:101D980023F480331360224A214BDB6823F4803319
:101DA800D3601F4A1E4B9B6823F4803393607B6883
:101DB8005B6803F48033002B05D0194A184B1B6865
:101DC80043F4803313607B685B6803F40033002BB3
:101DD80005D0134A124B5B6843F4803353607B6829
:101DE8005B6803F00103002B05D00D4A0C4B9B6880
:101DF80043F4803393607B685B6803F00203002B35
:101E080005D0074A064BDB6843F48033D3600023D0
:101E180018460C37BD465DF8047B704700700040DB
:101E28000004014080B400AF054A054B5B6843F0ED
:101E38000103536000BFBD465DF8047B704700BFD7
:101E48000070004080B400AF054A054B5B6823F082
:101E58000103536000BFBD465DF8047B704700BFB7
:101E68000070004080B483B000AF78600C490C4B20
:101E7800DA687B6803F01F03DB431A407B685B0961
:101E88001343CB600649064B9A687B6803F01F032F
:101E980013438B6000BF0C37BD465DF8047B704769
:101EA8000070004080B483B000AF78600749074BEA
:101EB8009A687B6803F01F03DB4313408B6000BF05
:101EC8000C37BD465DF8047B704700BF00700040CA
:101ED80080B582B000AF78600B46FB707B68002B42
:101EE8000CD1134B5B6903F40073B3F5007F0ED17B
:101EF80000F0D0FD0346002B09D016E00C4B5B69BF
:101F080003F40073B3F5007F01D000F0B3FD094A74
:101F1800084B1B6923F004031361FB78012B01D1E3
:101F280030BF02E040BF20BF20BF0837BD4680BD9C
:101F38000070004000ED00E080B582B000AF78602E
:101F48000B46FB707B68B3F5804F04D1FB781846CD
:101F580000F002FE03E0FB78184600F0D3FD00BF56
:101F68000837BD4680BD80B400AF0A4A094B1B68DC
:101F780023F0070343F003031360074A064B1B696A
:101F880043F00403136130BF00BFBD465DF8047B16
:101F9800704700BF0070004000ED00E080B400AF63
:101FA800054A054B1B6943F00203136100BFBD4698
:101FB8005DF8047B704700BF00ED00E080B400AF1F
:101FC800054A054B1B6923F00203136100BFBD4698
:101FD8005DF8047B704700BF00ED00E080B400AFFF
:101FE800054A054B1B6943F01003136100BFBD464A
:101FF8005DF8047B704700BF00ED00E080B400AFDF
:10200800054A054B1B6923F01003136100BFBD4649
:102018005DF8047B704700BF00ED00E080B400AFBE
:1020280000BFBD465DF8047B704700BF80B400AFB9
:10203800044B1B6803F4C0631846BD465DF8047B77
:10204800704700BF0070004080B485B000AF786072
:102058007B68B3F5007F30D1234B1B6803F4C06362
:10206800B3F5007F38D0204A1F4B1B6823F4C063A8
:1020780043F4007313601D4B1B68322202FB03F309
:102088001B4AA2FB03239B0C0133FB6002E0FB68A5
:10209800013BFB60144B5B6903F48063B3F5806F0D
:1020A80002D1FB68002BF2D10F4B5B6903F480630C
:1020B800B3F5806F10D103230FE00B4B1B6803F4BB
:1020C800C063B3F5806F07D0074A074B1B6823F43A
:1020D800C06343F480631360002318461437BD4679
:1020E8005DF8047B704700BF0070004008000020C6
:1020F80083DE1B4380B483B000AF78600949094B85
:10210800DB6823F400727B681343CB60054A054BF8
:10211800DB6843F48073D36000BF0C37BD465DF8BD
:10212800047B70470070004080B400AF054A054B3F
:10213800DB6823F48073D36000BFBD465DF8047B81
:10214800704700BF0070004080B400AF054A054BDF
:102158005B6843F48063536000BFBD465DF8047B51
:10216800704700BF0070004080B400AF054A054BBF
:102178005B6823F48063536000BFBD465DF8047B51
:10218800704700BF0070004080B400AF054A054B9F
:102198005B6843F40073536000BFBD465DF8047B81
:1021A800704700BF0070004080B400AF054A054B7F
:1021B8005B6823F40073536000BFBD465DF8047B81
:1021C800704700BF0070004080B400AF054A054B5F
:1021D8009B6843F40043936000BFBD465DF8047BF1
:1021E800704700BF0070004080B400AF054A054B3F
:1021F8009B6823F40043936000BFBD465DF8047BF1
:10220800704700BF0070004080B485B000AF7860B0
:1022180039600023FB737B68072B00F28D8001A2D5
:1022280052F823F04D22000871220008912200087C
:10223800AD220008C9220008E52200080123000891
:102248001D2300084149414B1A6A3B6823F4804327
:1022580013430B623D493D4B5A6A3B6823F42043C4
:10226800DB4313404B626AE03849384B9A6A3B6853
:1022780013438B623549354BDA6A3B6823F0100308
:10228800DB431340CB625AE03049304B1A6B3B6852
:1022980013430B632D492D4B5A6B3B68DB431340AB
:1022A8004B634CE02949294B9A6B3B6813438B637A
:1022B8002649264BDA6B3B68DB431340CB633EE091
:1022C8002249224B1A6C3B6813430B641F491F4B6E
:1022D8005A6C3B68DB4313404B6430E01B491B4B93
:1022E8009A6C3B6813438B641849184BDA6C3B684B
:1022F800DB431340CB6422E01449144B1A6D3B684E
:1023080013430B651149114B5A6D3B68DB4313406E
:102318004B6514E00D490D4B9A6D3B6803F00303C0
:1023280013438B650949094BDA6D3B6803F00303D6
:10233800DB431340CB6502E00123FB7300BFFB7B4B
:1023480018461437BD465DF8047B7047007000409E
:1023580080B485B000AF786039600023FB737B6878
:10236800072B57D801A252F823F000BF9523000885
:10237800A9230008B9230008C9230008D9230008A5
:10238800E9230008F9230008092400082649264BF8
:102398001A6A3B6823F48043DB4313400B623CE03A
:1023A8002149214B9A6A3B68DB4313408B6234E036
:1023B8001D491D4B1A6B3B68DB4313400B632CE034
:1023C8001949194B9A6B3B68DB4313408B6324E034
:1023D8001549154B1A6C3B68DB4313400B641CE032
:1023E8001149114B9A6C3B68DB4313408B6414E032
:1023F8000D490D4B1A6D3B68DB4313400B650CE030
:102408000949094B9A6D3B6803F00303DB4313400A
:102418008B6502E00123FB7300BFFB7B1846143772
:10242800BD465DF8047B70470070004080B485B0FD
:1024380000AF786039600023FB737B68072B00F2DC
:102448008D8001A252F823F0712400089524000819
:10245800B5240008D1240008ED2400080925000847
:1024680025250008412500084149414B5A6A3B6827
:1024780023F4204313434B623D493D4B1A6A3B68A2
:1024880023F48043DB4313400B626AE03849384B3E
:10249800DA6A3B6823F010031343CB623449344BA8
:1024A8009A6A3B68DB4313408B625AE03049304BF1
:1024B8005A6B3B6813434B632D492D4B1A6B3B6892
:1024C800DB4313400B634CE02949294BDA6B3B682B
:1024D8001343CB632649264B9A6B3B68DB43134077
:1024E8008B633EE02249224B5A6C3B6813434B6492
:1024F8001F491F4B1A6C3B68DB4313400B6430E0E9
:102508001B491B4BDA6C3B681343CB641849184BC7
:102518009A6C3B68DB4313408B6422E01449144BEC
:102528005A6D3B6813434B651149114B1A6D3B6853
:10253800DB4313400B6514E00D490D4BDA6D3B6826
:1025480003F003031343CB650949094B9A6D3B68B4
:1025580003F00303DB4313408B6502E00123FB73A5
:1025680000BFFB7B18461437BD465DF8047B7047F7
:102578000070004080B485B000AF786039600023F7
:10258800FB737B68072B59D801A252F823F000BFD0
:10259800B9250008CD250008E1250008F125000827
:1025A8000126000811260008212600083126000807
:1025B8002749274B5A6A3B6823F42043DB431340DF
:1025C8004B623EE02249224BDA6A3B6823F0100353
:1025D800DB431340CB6234E01D491D4B5A6B3B680B
:1025E800DB4313404B632CE01949194BDA6B3B680A
:1025F800DB431340CB6324E01549154B5A6C3B6809
:10260800DB4313404B641CE01149114BDA6C3B6807
:10261800DB431340CB6414E00D490D4B5A6D3B6806
:10262800DB4313404B650CE00949094BDA6D3B6805
:1026380003F00303DB431340CB6502E00123FB7384
:1026480000BFFB7B18461437BD465DF8047B704716
:102658000070004080B400AF054A054B9B6843F406
:102668008063936000BFBD465DF8047B704700BF80
:102678000070004080B400AF054A054B9B6823F406
:102688008063936000BFBD465DF8047B704700BF60
:102698000070004080B400AF054A054B9B6843F4C6
:1026A8008073936000BFBD465DF8047B704700BF30
:1026B8000070004080B400AF054A054B9B6823F4C6
:1026C8008073936000BFBD465DF8047B704700BF10
:1026D8000070004080B400AF054A054B5B6843F0CA
:1026E8001003536000BFBD465DF8047B704700BF10
:1026F8000070004080B400AF054A054B5B6823F0CA
:102708001003536000BFBD465DF8047B704700BFEF
:102718000070004080B400AF054A054B5B6843F089
:102728002003536000BFBD465DF8047B704700BFBF
:102738000070004080B400AF054A054B5B6823F089
:102748002003536000BFBD465DF8047B704700BF9F
:102758000070004080B400AF054A054B5B6843F049
:102768004003536000BFBD465DF8047B704700BF5F
:102778000070004080B400AF054A054B5B6823F049
:102788004003536000BFBD465DF8047B704700BF3F
:102798000070004080B400AF054A054B5B6843F009
:1027A8008003536000BFBD465DF8047B704700BFDF
:1027B8000070004080B400AF054A054B5B6823F009
:1027C8008003536000BFBD465DF8047B704700BFBF
:1027D8000070004080B485B000AF78600023FB73C0
:1027E8007B681B68202B55D0202B02D8102B07D0D4
:1027F8002CE1402B00F09880802B00F0DE8025E152
:102808009B4A9B4B5B6A23F008035362984A984B98
:102818001B6A23F008031362954A954BDB6A23F081
:102828000803D362924A924B9B6A23F0080393628F
:102838007B685B6803F48033002B05D08C4A8C4B93
:102848001B6A43F0080313627B685B6803F4003378
:10285800002B05D0864A864B5B6A43F00803536217
:102868007B685B6803F00103002B05D0804A804B2E
:102878009B6A43F0080393627B685B6803F002037A
:10288800002B00F0E6807A4A794BDB6A43F00803B4
:10289800D362DEE0764A764B5B6A23F0100353621C
:1028A800734A734B1B6A23F010031362704A704B10
:1028B800DB6A23F01003D3626D4A6D4B9B6A23F0E9
:1028C800100393627B685B6803F48033002B05D0A8
:1028D800674A674B1B6A43F0100313627B685B68A7
:1028E80003F40033002B05D0614A614B5B6A43F067
:1028F800100353627B685B6803F00103002B05D06B
:102908005B4A5B4B9B6A43F0100393627B685B688E
:1029180003F00203002B00F09E80554A544BDB6AFB
:1029280043F01003D36296E0514A514B5B6A23F09F
:10293800200353624E4A4E4B1B6A23F02003136256
:102948004B4A4B4BDB6A23F02003D362484A484B7F
:102958009B6A23F0200393627B685B6803F48033EF
:10296800002B05D0424A424B1B6A43F020031362F6
:102978007B685B6803F40033002B05D03C4A3C4B72
:102988005B6A43F0200353627B685B6803F00103D2
:10299800002B05D0364A364B9B6A43F020039362DE
:1029A8007B685B6803F00203002B56D0304A304B3B
:1029B800DB6A43F02003D3624FE02D4A2C4B5B6A5D
:1029C80023F0400353622A4A294B1B6A23F0400331
:1029D8001362274A264BDB6A23F04003D362244A5A
:1029E800234B9B6A23F0400393627B685B6803F484
:1029F8008033002B05D01E4A1D4B1B6A43F0400351
:102A080013627B685B6803F40033002B05D0184A17
:102A1800174B5B6A43F0400353627B685B6803F0C3
:102A28000103002B05D0124A114B9B6A43F0400367
:102A380093627B685B6803F00203002B0FD00C4A9B
:102A48000B4BDB6A43F04003D36208E00123FB73BE
:102A580006E000BF04E000BF02E000BF00E000BFE6
:102A6800FB7B18461437BD465DF8047B704700BFF2
:102A78000004014080B400AF054A054B1B6843F4CD
:102A88008043136000BFBD465DF8047B704700BFFC
:102A98000070004080B483B000AF174A164B1B6823
:102AA80023F480431360154B1B68322202FB03F3A7
:102AB800134AA2FB03239B0C01337B6002E07B6873
:102AC800013B7B600C4B5B6903F40073B3F5007F3B
:102AD80002D17B68002BF2D1074B5B6903F40073CA
:102AE800B3F5007F01D1032300E0002318460C371B
:102AF800BD465DF8047B7047007000400800002068
:102B080083DE1B4380B483B000AF0346FB71104AD9
:102B18000F4B1B6823F0070313600E4A0D4B1B690C
:102B280043F004031361FB79012B01D130BF02E0AC
:102B380040BF20BF20BF074A064B1B6923F0040390
:102B4800136100BF0C37BD465DF8047B704700BFBA
:102B58000070004000ED00E080B483B000AF034691
:102B6800FB71114A104B1B6823F0070343F0010364
:102B780013600E4A0D4B1B6943F004031361FB7984
:102B8800012B01D130BF02E040BF20BF20BF074A60
:102B9800064B1B6923F00403136100BF0C37BD46C5
:102BA8005DF8047B704700BF0070004000ED00E056
:102BB80080B483B000AF0346FB71114A104B1B6809
:102BC80023F0070343F0020313600E4A0D4B1B6901
:102BD80043F004031361FB79012B01D130BF02E0FC
:102BE80040BF20BF20BF074A064B1B6923F00403E0
:102BF800136100BF0C37BD465DF8047B704700BF0A
:102C08000070004000ED00E080B400AF094A094BB5
:102C18001B6823F0070343F004031360064A064BBE
:102C28001B6943F00403136130BF00BFBD465DF864
:102C3800047B70470070004000ED00E080B500AFF5
:102C48001C4B5B6903F48033002B05D0FFF7E6F9D2
:102C5800184B4FF480325A61164B5B6B03F0080334
:102C6800002B04D000F028F8124B08225A63114BAD
:102C78005B6B03F01003002B04D000F024F80D4B1D
:102C880010225A630B4B5B6B03F02003002B04D01C
:102C980000F020F8074B20225A63064B5B6B03F0C9
:102CA8004003002B04D000F01CF8024B40225A636A
:102CB80000BF80BD0004014080B400AF00BFBD4626
:102CC8005DF8047B704780B400AF00BFBD465DF877
:102CD800047B704780B400AF00BFBD465DF8047B3D
:102CE800704780B400AF00BFBD465DF8047B7047F5
:102CF80080B582B000AF4A4A494B1B6843F00103D4
:102D08001360FDF703FB786008E0FDF7FFFA024661
:102D18007B68D31A022B01D903237CE0404B1B6844
:102D280003F00203002BF0D03D4A3D4B1B6823F013
:102D3800F00343F060031360394B00229A60394B6B
:102D4800394A1A60394B1B681846FDF793FA03464F
:102D5800002B01D001235EE0FDF7D8FA78600AE085
:102D6800FDF7D4FA02467B68D31A41F288329342BF
:102D780001D903234FE02A4B9B6803F00C03002B77
:102D8800EED12749264B1A68294B13400B60FDF7F3
:102D9800BDFA786008E0FDF7B9FA02467B68D31AF5
:102DA800022B01D9032336E01D4B1B6803F028537F
:102DB800002BF0D11A4B0022DA60194A184BDB6855
:102DC80043F48053D360164B00221A61144A144B03
:102DD8001B6943F480531361114B00225A61104A56
:102DE8000F4B5B6943F4805353610D4A0C4B1B68CE
:102DF80023F4802313600A4B00229A61084B4FF09A
:102E0800FF321A62064A064BD3F8943043F40003A3
:102E1800C2F89430002318460837BD4680BD00BF6D
:102E2800001002400800002000093D0000000020BA
:102E3800FFF4FEEA80B588B000AF78607B68002BAD
:102E480001D101239DE3A44B9B6803F00C03BB61F4
:102E5800A14BDB6803F003037B617B681B6803F00D
:102E68001003002B00F0E180BB69002B07D0BB6981
:102E78000C2B40F088807B69012B40F08480964BB6
:102E88001B6803F00203002B05D07B689B69002BAD
:102E980001D1012375E37B681A6A8F4B1B6803F025
:102EA8000803002B04D08C4B1B6803F0F00305E0EB
:102EB800894BD3F894301B0903F0F0039A4223D9C5
:102EC8007B681B6A184600F060FE0346002B01D0A1
:102ED800012356E3804A804B1B6843F008031360C4
:102EE8007D497D4B1B6823F0F0027B681B6A134306
:102EF8000B607949784B5B6823F47F427B68DB6918
:102F08001B0213434B6022E0734A734B1B6843F068
:102F1800080313607049704B1B6823F0F0027B684C
:102F28001B6A13430B606C496B4B5B6823F47F424D
:102F38007B68DB691B0213434B607B681B6A18467E
:102F480000F023FE0346002B01D0012319E300F013
:102F580037FC0146604B9B681B0903F00F035F4A6F
:102F6800D35C03F01F0321FA03F35D4A13605D4B42
:102F78001B681846FDF77EF90346FB73FB7B002BA5
:102F880052D0FB7BFDE27B689B69002B32D0524A12
:102F9800514B1B6843F001031360FDF7B7F9386123
:102FA80008E0FDF7B3F902463B69D31A022B01D9B1
:102FB8000323E6E2484B1B6803F00203002BF0D022
:102FC800454A454B1B6843F0080313604249424B8E
:102FD8001B6823F0F0027B681B6A13430B603E49B1
:102FE8003D4B5B6823F47F427B68DB691B0213431C
:102FF8004B601AE0384A384B1B6823F00103136012
:10300800FDF784F9386108E0FDF780F902463B696D
:10301800D31A022B01D90323B3E22F4B1B6803F009
:103028000203002BF0D100E000BF7B681B6803F0AF
:103038000103002B74D0BB69082B05D0BB690C2B8E
:103048000ED17B69032B0BD1234B1B6803F4003390
:10305800002B64D07B685B68002B60D1012390E271
:103068007B685B68B3F5803F06D11B4A1A4B1B6827
:1030780043F4803313601DE07B685B68B3F5A02FD1
:103088000CD1154A144B1B6843F480231360124A71
:10309800114B1B6843F4803313600BE00E4A0E4B50
:1030A8001B6823F4803313600B4A0B4B1B6823F413
:1030B800802313607B685B68002B1CD0FDF726F922
:1030C800386111E0FDF722F902463B69D31A642BF7
:1030D8000AD9032355E200BF00100240C4F40008D7
:1030E8000800002000000020AE4B1B6803F40033EA
:1030F800002BE7D014E0FDF709F9386108E0FDF787
:1031080005F902463B69D31A642B01D9032338E237
:10311800A44B1B6803F40033002BF0D100E000BF80
:103128007B681B6803F00203002B60D0BB69042B8B
:1031380005D0BB690C2B19D17B69022B16D1994B91
:103148001B6803F48063002B05D07B68DB68002BC9
:1031580001D1012315E29349924B5B6823F0F852A1
:103168007B681B691B0613434B6040E07B68DB6888
:10317800002B23D08B4A8B4B1B6843F4807313605E
:10318800FDF7C4F8386108E0FDF7C0F802463B696E
:10319800D31A022B01D90323F3E1824B1B6803F4F2
:1031A8008063002BF0D07F497E4B5B6823F0F85298
:1031B8007B681B691B0613434B6018E0794A794BFF
:1031C8001B6823F480731360FDF7A0F8386108E0EA
:1031D800FDF79CF802463B69D31A022B01D9032359
:1031E800CFE1704B1B6803F48063002BF0D17B6840
:1031F8001B6803F00803002B3CD07B685B69002B3D
:103208001CD0684A674BD3F8943043F00103C2F8E6
:103218009430FDF77BF8386108E0FDF777F802464F
:103228003B69D31A022B01D90323AAE15D4BD3F8DA
:10323800943003F00203002BEFD01BE0594A594B9E
:10324800D3F8943023F00103C2F89430FDF75EF808
:10325800386108E0FDF75AF802463B69D31A022B99
:1032680001D903238DE14F4BD3F8943003F00203C7
:10327800002BEFD17B681B6803F00403002B00F0E0
:10328800A5800023FB77474B9B6D03F08053002BF1
:103298000DD1444A434B9B6D43F080539365414B9A
:1032A8009B6D03F08053BB60BB680123FB773E4BEB
:1032B8001B6803F48073002B18D13B4A3A4B1B68F8
:1032C80043F480731360FDF721F8386108E0FDF7D7
:1032D8001DF802463B69D31A022B01D9032350E19A
:1032E800314B1B6803F48073002BF0D07B689B681C
:1032F800012B08D12B4A2B4BD3F8903043F0010314
:10330800C2F8903024E07B689B68052B10D1254AD1
:10331800244BD3F8903043F00403C2F89030214A8C
:10332800204BD3F8903043F00103C2F890300FE0FF
:103338001C4A1C4BD3F8903023F00103C2F890309C
:10334800184A184BD3F8903023F00403C2F8903091
:103358007B689B68002B16D0FCF7D8FF38610AE021
:10336800FCF7D4FF02463B69D31A41F288329342F4
:1033780001D9032305E10B4BD3F8903003F0020386
:10338800002BEDD019E0FCF7C1FF38610EE0FCF727
:10339800BDFF02463B69D31A41F28832934205D9F0
:1033A8000323EEE00010024000700040774BD3F892
:1033B800903003F00203002BE9D1FB7F012B05D1EC
:1033C800724A724B9B6D23F0805393657B689B6AAE
:1033D800002B00F0D580BB690C2B00F08E807B6839
:1033E8009B6A022B5BD1694A684B1B6823F0807388
:1033F8001360FCF78BFF386108E0FCF787FF024693
:103408003B69D31A022B01D90323BAE05F4B1B682F
:1034180003F00073002BF0D15C485C4BDA685C4B1E
:1034280013407A68D16A7A68126B013A1201114323
:103438007A68526B120211437A68D26B5208013AC9
:10344800520511437A68126C5208013A5206114328
:103458007A68926B120952040A431343C3604B4AB9
:103468004A4B1B6843F080731360484A474BDB683C
:1034780043F08073D360FCF749FF386108E0FCF73C
:1034880045FF02463B69D31A022B01D9032378E092
:103498003E4B1B6803F00073002BF0D070E03B4AF2
:1034A8003A4B1B6823F080731360384B1B6803F09A
:1034B8002053002B05D1354A344BDB6823F0030336
:1034C800D360324A314BDB6823F0887323F48033AE
:1034D800D360FCF71BFF386108E0FCF717FF0246D2
:1034E8003B69D31A022B01D903234AE0274B1B68F7
:1034F80003F00073002BF0D142E07B689B6A012B3C
:1035080001D101233DE0214BDB687B617B6903F03E
:1035180003027B68DB6A9A4230D17B6903F0700250
:103528007B681B6B013B1B019A4227D17B6903F423
:10353800FE427B685B6B1B029A421FD17B6903F4D6
:1035480000337A68926B072A14BF01220022D2B294
:10355800934213D17B6903F4C0027B68DB6B5B0881
:10356800013B5B059A4209D17B6903F0C0627B6825
:103578001B6C5B08013B5B069A4201D0012300E00B
:10358800002318462037BD4680BD00BF001002400A
:103598008C809DF980B584B000AF786039607B6815
:1035A800002B01D10123C8E0664B1B6803F007021A
:1035B8003B689A4210D26349624B1B6823F00702AA
:1035C8003B6813430B605F4B1B6803F007023B68C3
:1035D8009A4201D00123B0E07B681B6803F0010325
:1035E800002B4CD07B685B68032B07D1564B1B68BC
:1035F80003F00073002B21D101239EE07B685B68F8
:10360800022B07D1504B1B6803F40033002B15D154
:10361800012392E07B685B68002B07D14A4B1B684B
:1036280003F00203002B09D1012386E0464B1B68F7
:1036380003F48063002B01D101237EE04249424B11
:103648009B6823F003027B685B6813438B60FCF77D
:103658005DFEF8600AE0FCF759FE0246FB68D31AE3
:1036680041F28832934201D9032366E0364B9B68C6
:1036780003F00C027B685B689B009A42EBD17B6885
:103688001B6803F00203002B08D02F492E4B9B68C0
:1036980023F0F0027B689B6813438B60294B1B68FF
:1036A80003F007023B689A4210D92649254B1B684C
:1036B80023F007023B6813430B60224B1B6803F09F
:1036C80007023B689A4201D0012336E07B681B68F9
:1036D80003F00403002B08D01B491B4B9B6823F401
:1036E800E0627B68DB6813438B607B681B6803F0D0
:1036F8000803002B09D01449134B9B6823F460522C
:103708007B681B69DB0013438B6000F059F80146A6
:103718000D4B9B681B0903F00F030C4AD35C03F0A5
:103728001F0321FA03F30A4A13600A4B1B68184661
:10373800FCF7A0FD0346FB72FB7A18461037BD461E
:1037480080BD00BF0020024000100240C4F4000801
:10375800080000200000002080B58AB000AFF860A3
:10376800B9607A60154A154BDB6C43F00103D364EA
:10377800124BDB6C03F001033B613B694FF4807330
:103788007B610223BB6102233B620023FB610023B0
:103798007B6207F1140319464FF09040FDF77AFF5A
:1037A8000648064B9B6823F0EE42B9687B680B43DA
:1037B8001343836000BF2837BD4680BD0010024018
:1037C80080B489B000AF0023FB610023BB613D4B8F
:1037D8009B6803F00C033B613A4BDB6803F003037F
:1037E800FB603B69002B05D03B690C2B21D1FB68A2
:1037F800012B1ED1334B1B6803F00803002B07D1A4
:10380800304BD3F894301B0A03F00F03FB6105E03B
:103818002C4B1B681B0903F00F03FB612A4AFB6949
:1038280052F82330FB613B69002B0DD1FB69BB616A
:103838000AE03B69042B02D1244BBB6104E03B69DD
:10384800082B01D1224BBB613B690C2B33D11D4B9B
:10385800DB6803F00303BB60BB68022B02D0032BB9
:1038680003D005E0194B7B6105E0194B7B6102E051
:10387800FB697B6100BF134BDB681B0903F007037F
:1038880001337B600F4BDB681B0A03F07F037A6907
:1038980002FB03F27B68B2FBF3F37B61094BDB6845
:1038A8005B0E03F0030301335B003B607A693B68FE
:1038B800B2FBF3F3BB61BB6918462437BD465DF81C
:1038C800047B704700100240DCF400080024F40078
:1038D80000127A0080B400AF034B1B681846BD463F
:1038E8005DF8047B704700BF0800002080B500AF7A
:1038F800FFF7F0FF0146064B9B681B0A03F007031E
:10390800044AD35C03F01F0321FA03F3184680BD71
:1039180000100240D4F4000880B500AFFFF7DAFFCA
:103928000146064B9B68DB0A03F00703044AD35C95
:1039380003F01F0321FA03F3184680BD001002406C
:10394800D4F4000880B483B000AF78607B681F228D
:103958001A605E4B1B6803F48023B3F5802F04D1F3
:103968007B684FF4A0225A600EE0584B1B6803F4A2
:103978008033B3F5803F04D17B684FF480325A60BE
:1039880002E07B6800225A60504B1B6803F0010379
:10399800012B03D17B6801229A6102E07B68002237
:1039A8009A614A4B5B681B0ADAB27B68DA61474B5B
:1039B8001B6803F0F0027B681A62444B1B6803F42F
:1039C8008073B3F5807F04D17B684FF48072DA602E
:1039D80002E07B680022DA603C4B5B681B0E03F058
:1039E8001F027B681A61394BD3F8903003F0040347
:1039F800042B03D17B6805229A600DE0334BD3F882
:103A0800903003F00103012B03D17B6801229A60F7
:103A180002E07B6800229A602C4BD3F8943003F0C4
:103A28000103012B03D17B6801225A6102E07B6804
:103A380000225A617B6800225A62244B1B6803F0FB
:103A48008073B3F1807F03D17B6802229A6202E01F
:103A58007B6801229A621D4BDB6803F003027B68D6
:103A6800DA621A4BDB681B0903F007035A1C7B68F0
:103A78001A63164BDB681B0A03F07F027B685A63E4
:103A8800124BDB685B0D03F0030301335A007B68BC
:103A9800DA630E4BDB685B0E03F0030301335A0055
:103AA8007B681A64094BDB6803F40033002B03D0EE
:103AB8007B6811229A6302E07B6807229A6300BF41
:103AC8000C37BD465DF8047B704700BF001002400C
:103AD80080B483B000AF786039607B680F221A60C9
:103AE800124B9B6803F003027B685A600F4B9B687C
:103AF80003F0F0027B689A600C4B9B6803F4E06269
:103B08007B68DA60094B9B68DB0803F4E0627B683A
:103B18001A61074B1B6803F007023B681A6000BF75
:103B28000C37BD465DF8047B704700BF00100240AB
:103B38000020024080B400AF054A054B1B6843F4DF
:103B48000023136000BFBD465DF8047B704700BFCB
:103B58000010024080B500AF074BDB6903F48073A7
:103B6800B3F5807F05D100F009F8034B4FF480725C
:103B78001A6200BF80BD00BF0010024080B400AFD1
:103B880000BFBD465DF8047B704780B586B000AFC6
:103B9800786000233B612B4B9B6D03F08053002B17
:103BA80003D0FEF743FA786114E0264A254B9B6D53
:103BB80043F080539365234B9B6D03F08053FB6068
:103BC800FB68FEF733FA78611E4A1E4B9B6D23F0A3
:103BD800805393657B69B3F5007F0BD17B68802B9D
:103BE80019D97B68A02B02D902233B6113E001237A
:103BF8003B6110E07B68802B02D903233B610AE01C
:103C08007B68802B02D102233B6104E07B68702B28
:103C180001D101233B610C490B4B1B6823F00702C0
:103C28003B6913430B60084B1B6803F007023B69B1
:103C38009A4201D0012300E0002318461837BD46F8
:103C480080BD00BF001002400020024080B586B051
:103C580000AF78600023FB740023BB747B681B688B
:103C680003F40063002B3FD07B685B6EB3F5800FD5
:103C78001CD0B3F5800F02D8002B0ED01FE0B3F58F
:103C8800000F03D0B3F5400F1CD018E0854A854BD0
:103C9800DB6843F48033D36015E07B68043300218C
:103CA800184601F0C3FA0346FB740CE07B68203326
:103CB8000021184601F0AAFB0346FB7403E0012328
:103CC800FB7400E000BFFB7C002B0BD17549754BE2
:103CD800D3F8883023F440027B685B6E1343C1F845
:103CE800883001E0FB7CBB747B681B6803F480535D
:103CF800002B3FD07B689B6EB3F1807F1CD0B3F163
:103D0800807F02D8002B0ED01FE0B3F1007F03D0D4
:103D1800B3F1407F1CD018E0624A624BDB6843F481
:103D28008033D36015E07B6804330021184601F026
:103D38007DFA0346FB740CE07B68203300211846AB
:103D480001F064FB0346FB7403E00123FB7400E00D
:103D580000BFFB7C002B0BD15249524BD3F8883063
:103D680023F040727B689B6E1343C1F8883001E0F2
:103D7800FB7CBB747B681B6803F40033002B00F0EA
:103D8800A08000237B74474B9B6D03F08053002B6E
:103D980001D1012300E00023002B0DD0414A414B03
:103DA8009B6D43F0805393653E4B9B6D03F08053AE
:103DB800BB60BB6801237B743B4A3B4B1B6843F4E5
:103DC80080731360FCF7A2FAF86009E0FCF79EFA2A
:103DD8000246FB68D31A022B02D90323FB7405E0C1
:103DE800314B1B6803F48073002BEFD0FB7C002B56
:103DF8005CD12C4BD3F8903003F440737B617B6922
:103E0800002B1FD07B68D3F884207B699A4219D095
:103E1800244BD3F8903023F440737B61214A214B23
:103E2800D3F8903043F48033C2F890301D4A1D4BCC
:103E3800D3F8903023F48033C2F89030194A7B6964
:103E4800C2F890307B6903F00103002B16D0FCF711
:103E58005DFAF8600BE0FCF759FA0246FB68D31AE2
:103E680041F28832934202D90323FB7406E00D4BDA
:103E7800D3F8903003F00203002BECD0FB7C002B2E
:103E88000CD10849074BD3F8903023F440727B6873
:103E9800D3F884301343C1F8903009E0FB7CBB743D
:103EA80006E000BF0010024000700040FB7CBB74BD
:103EB8007B7C012B05D19E4A9D4B9B6D23F0805343
:103EC80093657B681B6803F00103002B0AD09849AF
:103ED800974BD3F8883023F003027B689B6B13431E
:103EE800C1F888307B681B6803F00203002B0AD0F6
:103EF8008F498F4BD3F8883023F00C027B68DB6B3B
:103F08001343C1F888307B681B6803F00403002B57
:103F18000AD08749864BD3F8883023F030027B6873
:103F28001B6C1343C1F888307B681B6803F00803D7
:103F3800002B0AD07E497E4BD3F8883023F0C0028C
:103F48007B685B6C1343C1F888307B681B6803F09F
:103F58001003002B0AD07649754BD3F8883023F428
:103F680040727B689B6C1343C1F888307B681B6880
:103F780003F02003002B0AD06D496D4BD3F888302D
:103F880023F440627B68DB6C1343C1F888307B689C
:103F98001B6803F40073002B0AD06549644BD3F8FF
:103FA800883023F440227B68DB6D1343C1F88830E6
:103FB8007B681B6803F48063002B0AD05C495C4B68
:103FC800D3F8883023F440127B681B6E1343C1F882
:103FD80088307B681B6803F04003002B0AD05449E3
:103FE800534BD3F8883023F440527B681B6D13433E
:103FF800C1F888307B681B6803F08003002B0AD067
:104008004B494B4BD3F8883023F440427B685B6DB7
:104018001343C1F888307B681B6803F48073002B56
:104028000AD04349424BD3F8883023F440327B68A6
:104038009B6D1343C1F888307B681B6803F40053F9
:10404800002B28D03A493A4BD3F8883023F0406205
:104058007B68DB6E1343C1F888307B68DB6EB3F195
:10406800006F06D1324A324BDB6843F48013D360C9
:1040780011E07B68DB6EB3F1806F0CD17B68043391
:104088000121184601F0D2F80346FB74FB7C002B93
:1040980001D0FB7CBB747B681B6803F40023002BF6
:1040A80028D02349224BD3F8883023F040627B681C
:1040B8001B6F1343C1F888307B681B6FB3F1006F27
:1040C80006D11B4A1A4BDB6843F48013D36011E016
:1040D8007B681B6FB3F1806F0CD17B6804330121BF
:1040E800184601F0A3F80346FB74FB7C002B01D0B3
:1040F800FB7CBB747B681B6803F48023002B2BD0EC
:104108000B490B4BD3F8883023F040627B685B6F18
:104118001343C1F888307B685B6FB3F1006F09D136
:10412800034A034BDB6843F48013D36014E000BFF9
:10413800001002407B685B6FB3F1806F0CD17B6825
:1041480004330121184601F071F80346FB74FB7C27
:10415800002B01D0FB7CBB747B681B6803F4804395
:10416800002B2FD02B492B4BD3F8883023F040520B
:104178007B689B6F1343C1F888307B689B6FB3F1F2
:10418800805F0DD17B6804330221184601F04EF898
:104198000346FB74FB7C002B14D0FB7CBB7411E042
:1041A8007B689B6FB3F1005F0CD17B6820330221E1
:1041B800184601F02BF90346FB74FB7C002B01D059
:1041C800FB7CBB747B681B6803F40043002B0AD09C
:1041D8001049104BD3F8883023F080427B68DB6F9E
:1041E8001343C1F888307B681B6803F48033002BC5
:1041F8000BD00849074BD3F8883023F000427B687E
:10420800D3F880301343C1F88830BB7C1846183780
:10421800BD4680BD0010024080B483B000AF786016
:104228007B68734A1A60734BDB6803F003027B6890
:104238005A60704BDB681B0903F007035A1C7B6844
:104248009A606C4B1B691B0A03F07F027B68DA607B
:10425800684B1B695B0C1B0103F01003DA1D7B68BC
:104268001A61644B1B695B0D03F0030301335A00A9
:104278007B685A615F4B1B695B0E03F003030133D4
:104288005A007B689A617B685A687B681A627B6807
:104298009A687B685A62574B5B691B0A03F07F0276
:1042A8007B689A62534B5B695B0C1B0103F010033C
:1042B800DA1D7B68DA624F4B5B695B0E03F0030320
:1042C80001335A007B681A634A4BD3F8883003F0ED
:1042D80003027B689A63474BD3F8883003F00C02DB
:1042E8007B68DA63434BD3F8883003F030027B688D
:1042F8001A64404BD3F8883003F0C0027B685A64D4
:104308003C4BD3F8883003F440727B689A64394B8D
:10431800D3F8883003F440627B68DA64354BD3F80D
:10432800883003F440527B681A65324BD3F88830E2
:1043380003F440427B685A652E4BD3F8883003F467
:1043480040327B689A652B4BD3F8883003F44022BF
:104358007B68DA65274BD3F8883003F440127B6812
:104368001A66244BD3F8883003F440027B685A66F7
:10437800204BD3F8883003F040727B689A661D4B57
:10438800D3F8903003F440727B68C3F88420194B4B
:10439800D3F8883003F040627B68DA66154BD3F8AF
:1043A800883003F040627B681A67124BD3F8883074
:1043B80003F040627B685A670E4BD3F8883003F0ED
:1043C80040527B689A670B4BD3F8883003F08042E1
:1043D8007B68DA67074BD3F8883003F000427B68C4
:1043E800C3F8802000BF0C37BD465DF8047B7047DA
:1043F800FFFF0F000010024080B588B000AF786062
:104408000023FB617B68B3F5003F37D1B84BD3F885
:10441800903003F440737B617B69B3F5007F14D05F
:10442800B3F5407F1ED0B3F5807F01D000F053BCB8
:10443800AF4BD3F8903003F00203022B40F04684D0
:104448004FF40043FB6100F041BCA94BD3F8943012
:1044580003F00203022B40F03B844FF4FA43FB6164
:1044680000F036BCA24B1B6803F40033B3F5003FE1
:1044780040F030849F4BFB6100F02CBC9C4BDB6808
:1044880003F003033B613B69022B23D0032B2ED09F
:10449800012B39D1964B1B6803F00203022B16D16E
:1044A800934B1B6803F00803002B05D0904B1B6847
:1044B8001B0903F00F0305E08D4BD3F894301B0A5A
:1044C80003F00F038C4A52F82330BB611FE000232E
:1044D800BB611CE0864B1B6803F48063B3F5806FF7
:1044E80002D1864BBB6112E00023BB610FE0804B19
:1044F8001B6803F40033B3F5003F02D1804BBB6166
:1045080005E00023BB6102E00023BB6100BF7B68BC
:10451800B3F5007F00F03783B3F5007F25D8102B63
:1045280000F0DF81102B0FD8022B00F02881022B1E
:1045380003D8012B00F0EC80CDE3042B00F0698157
:10454800082B00F09A81C6E3402B00F0B382402B81
:1045580003D8202B00F0FD81BDE3802B00F0CD8235
:10456800B3F5807F00F0EC82B5E3B3F5804F00F03F
:104578002D82B3F5804F11D8B3F5006F21D0B3F574
:10458800006F04D8B3F5806F00F03E83A3E3B3F562
:10459800805F1DD0B3F5005F21D09CE3B3F5803F69
:1045A80000F07782B3F5803F04D8B3F5004F00F0F0
:1045B800718390E3B3F5802F11D0B3F5002F0ED09F
:1045C80089E3B9694FF4006000F0FAFFF86182E30B
:1045D800B9694FF4805000F0F3FFF8617BE3444B76
:1045E800D3F8883003F040637B617B69B3F1006FD7
:1045F80023D0B3F1406F03D0B3F1806F4AD086E087
:104608003B4B1B6803F00203022B7BD1384B1B6822
:1046180003F00803002B05D0354B1B681B0903F07A
:104628000F0305E0324BD3F894301B0A03F00F0355
:10463800314A52F82330FB6164E02D4B1B6803F0CC
:104648000073B3F1007F5FD1294BDB6803F480135B
:10465800B3F5801F58D1264BDB681B0A03F07F0394
:10466800FB60BB69FA6802FB03F2214BDB681B099C
:1046780003F007030133B2FBF3F3BB611C4BDB68A8
:104688005B0D03F0030301335B00BA69B2FBF3F37C
:10469800FB6139E0164B1B6803F00063B3F1006F50
:1046A80034D1134B1B6903F48013B3F5801F2DD14C
:1046B8000F4B1B691B0A03F07F03FB60BB69FA6899
:1046C80002FB03F20A4BDB681B0903F00703013303
:1046D800B2FBF3F3BB61064B1B695B0D03F00303ED
:1046E80001335B00BA69B2FBF3F3FB610EE000BF74
:1046F8000010024090D00300DCF400080024F4000D
:1047080000127A0000BFE6E200BFE4E200BFE2E286
:10471800AC4BD3F8883003F003037B617B69032B30
:1047280027D801A252F823F041470008494700085A
:104738005147000865470008FFF7EEF8F8611DE0EB
:10474800FFF73EF8F86119E09E4B1B6803F480639D
:10475800B3F5806F0FD19C4BFB610CE0994BD3F8FC
:10476800903003F00203022B07D14FF40043FB61A2
:1047780003E000BFAFE200BFADE200BFABE2914B88
:10478800D3F8883003F00C037B617B690C2B3AD893
:1047980001A252F823F000BFD54700080F480008CF
:1047A8000F4800080F480008DD4700080F480008B8
:1047B8000F4800080F480008E54700080F480008A0
:1047C8000F4800080F480008F9470008FFF78EF85F
:1047D800F8611DE0FEF7F4FFF86119E0794B1B68FA
:1047E80003F48063B3F5806F0FD1774BFB610CE066
:1047F800744BD3F8903003F00203022B07D14FF427
:104808000043FB6103E000BF65E200BF63E200BF55
:1048180061E26C4BD3F8883003F030037B617B692D
:10482800102B0DD0102B02D8002B05D024E0202B04
:104838000AD0302B12D01FE0FFF758F8F8611BE0C0
:10484800FEF7BEFFF86117E05E4B1B6803F4806358
:10485800B3F5806F0DD15C4BFB610AE0594BD3F87F
:10486800903003F00203022B05D14FF40043FB61A3
:1048780001E000BF2FE200BF2DE2524BD3F8883091
:1048880003F0C0037B617B69402B0DD0402B02D81D
:10489800002B05D024E0802B0AD0C02B12D01FE0BB
:1048A800FFF724F8F8611BE0FEF78AFFF86117E0CC
:1048B800444B1B6803F48063B3F5806F0DD1424B02
:1048C800FB610AE03F4BD3F8903003F00203022B60
:1048D80005D14FF40043FB6101E000BFFBE100BFDD
:1048E800F9E1384BD3F8883003F440737B617B6976
:1048F800B3F5807F10D0B3F5807F02D8002B07D0A6
:1049080026E0B3F5007F0BD0B3F5407F12D01FE04F
:10491800FEF7ECFFF8611BE0FEF752FFF86117E0C5
:10492800284B1B6803F48063B3F5806F0DD1264BC9
:10493800FB610AE0234BD3F8903003F00203022B0B
:1049480005D14FF40043FB6101E000BFC3E100BFA4
:10495800C1E11C4BD3F8883003F440637B617B6969
:10496800B3F5806F10D0B3F5806F02D8002B07D055
:1049780026E0B3F5006F0BD0B3F5406F12D01FE0FF
:10498800FEF7B4FFF8611BE0FEF71AFFF86117E0C5
:104998000C4B1B6803F48063B3F5806F0DD10A4B91
:1049A800FB610AE0074BD3F8903003F00203022BB7
:1049B80005D14FF40043FB6101E000BF8BE100BF6C
:1049C80089E100BF001002400024F400AE4BD3F888
:1049D800883003F040537B617B69B3F1005F2FD0CF
:1049E800B3F1405F03D0B3F1805F04D050E0FEF72D
:1049F800E7FEF8614CE0A44B1B6903F08073002BC1
:104A080043D0A14B1B691B0A03F07F03FB60BB6902
:104A1800FA6802FB03F29C4BDB681B0903F00703EF
:104A28000133B2FBF3F3BB61974B1B695B0E03F0D9
:104A3800030301335B00BA69B2FBF3F3FB6124E0C3
:104A4800914B5B6903F08073002B20D08E4B5B6920
:104A58001B0A03F07F03FB60BB69FA6802FB03F2E1
:104A6800894BDB681B0903F007030133B2FBF3F33F
:104A7800BB61854B5B695B0E03F0030301335B008D
:104A8800BA69B2FBF3F3FB6101E000BF23E100BFA9
:104A980021E17D4BD3F8883003F000437B617B69CB
:104AA800002B03D1FEF738FFF86114E1FEF788FE0A
:104AB800F86110E1744BD3F8883003F440537B61FC
:104AC8007B69B3F5805F09D0B3F5005F0AD0002B8E
:104AD80000D011E0FEF70AFFF8610DE0FEF770FE66
:104AE800F86109E0684B1B6803F48063B3F5806FD5
:104AF80001D1664BFB6100BFEDE0634BD3F8883012
:104B080003F440437B617B69B3F5804F09D0B3F56B
:104B1800004F0AD0002B00D011E0FEF7E7FEF86145
:104B28000DE0FEF74DFEF86109E0574B1B6803F4F2
:104B38008063B3F5806F01D1544BFB6100BFCAE0BD
:104B4800514BD3F8883003F440337B617B69B3F56C
:104B5800803F09D0B3F5003F0AD0002B00D011E008
:104B6800FEF7C4FEF8610DE0FEF72AFEF86109E0E1
:104B7800454B1B6803F48063B3F5806F01D1434B49
:104B8800FB6100BFA7E0404BD3F8883003F4402313
:104B98007B617B69B3F5802F10D0B3F5802F02D8E5
:104BA800002B07D02FE0B3F5002F12D0B3F5402F1C
:104BB80019D028E0FEF79AFEF86124E0324BD3F8CA
:104BC800943003F00203022B18D14FF4FA43FB612F
:104BD80014E02D4B1B6803F48063B3F5806F0FD18D
:104BE8002A4BFB610CE0284BD3F8903003F002030A
:104BF800022B07D14FF40043FB6103E000BF6AE0DA
:104C080000BF68E000BF66E01F4BD3F8883003F4AC
:104C180040137B617B69B3F5801F10D0B3F5801F0B
:104C280002D8002B07D034E0B3F5001F12D0B3F53B
:104C3800401F19D02DE0FEF759FEF86129E0124B0C
:104C4800D3F8943003F00203022B18D14FF4FA433F
:104C5800FB6114E00C4B1B6803F48063B3F5806FB1
:104C68000FD10A4BFB610CE0074BD3F8903003F0EF
:104C78000203022B0CD14FF40043FB6108E000BF94
:104C880029E000BF27E000BF001002400024F40024
:104C980000BF20E0124BD3F8883003F080437B61DB
:104CA8007B69002B03D0B3F1804F04D00DE0FEF7F1
:104CB8001DFEF86109E00A4B1B6803F48063B3F535
:104CC800806F01D1074BFB6100BF04E000BF02E029
:104CD80000BF00E000BFFB6918462037BD4680BD15
:104CE800001002400024F40080B584B000AF786062
:104CF8000023FB732E4A2E4B1B6823F0806313603E
:104D0800FBF704FBB86009E0FBF700FB0246BB6851
:104D1800D31A022B02D90323FB7305E0244B1B682B
:104D280003F00063002BEFD1FB7B002B3BD1204825
:104D38001F4B1A691F4B13407A68926811027A68F0
:104D480012695208013A520511437A6852695208A9
:104D5800013A520611437A68D268120952040A438A
:104D6800134303611249124B1A697B689B69134309
:104D78000B610F4A0E4B1B6843F080631360FBF70F
:104D8800C5FAB86009E0FBF7C1FA0246BB68D31A56
:104D9800022B02D90323FB7305E0054B1B6803F0C4
:104DA8000063002BEFD0FB7B18461037BD4680BD53
:104DB80000100240FF809DF980B582B000AF00234B
:104DC800FB71194A184B1B6823F080631360FBF7CB
:104DD8009DFA386009E0FBF799FA02463B68D31A56
:104DE800022B02D90323FB7105E00F4B1B6803F06C
:104DF8000063002BEFD10C4A0B4B1B6923F088731F
:104E080023F480331361084B1B6803F00853002B0D
:104E180005D1054A044BDB6823F00303D360FB7913
:104E280018460837BD4680BD0010024080B584B0E2
:104E380000AF78600023FB732B4A2B4B1B6823F0D1
:104E480080531360FBF762FAB86009E0FBF75EFA7B
:104E58000246BB68D31A022B02D90323FB7305E071
:104E6800214B1B6803F00053002BEFD1FB7B002B79
:104E780035D11D481C4B5A691C4B13407A689268FF
:104E880011027A6812695208013A520611437A6887
:104E9800D268120952040A43134343611249124B60
:104EA8005A697B685B6913434B610F4A0E4B1B6859
:104EB80043F080531360FBF729FAB86009E0FBF769
:104EC80025FA0246BB68D31A022B02D90323FB73C7
:104ED80005E0054B1B6803F00053002BEFD0FB7B6C
:104EE80018461037BD4680BD00100240FF80FDF90E
:104EF80080B582B000AF0023FB71194A184B1B68BC
:104F080023F080531360FBF701FA386009E0FBF7E0
:104F1800FDF902463B68D31A022B02D90323FB7121
:104F280005E00F4B1B6803F00053002BEFD10C4A30
:104F38000B4B5B6923F0807323F480335361084B78
:104F48001B6803F02063002B05D1054A044BDB687E
:104F580023F00303D360FB7918460837BD4680BDAC
:104F68000010024080B483B000AF78600649064B59
:104F78009B6823F400427B6813438B6000BF0C37A7
:104F8800BD465DF8047B70470010024080B483B0D2
:104F980000AF78600849084BD3F8943023F4706266
:104FA8007B681B011343C1F8943000BF0C37BD4622
:104FB8005DF8047B704700BF0010024080B400AF6A
:104FC800064A064BD3F8903043F02003C2F89030DD
:104FD80000BFBD465DF8047B704700BF001002406B
:104FE80080B400AF094A094BD3F8903023F020036E
:104FF800C2F89030054A054B9B6923F4007393610E
:1050080000BFBD465DF8047B704700BF001002403A
:1050180080B400AF0F4A0F4BD3F8903043F0200311
:10502800C2F890300B4A0B4B9B6943F400739361B1
:10503800094A094B1B6843F400231360064A064BD0
:105048009B6843F40023936000BFBD465DF8047B72
:10505800704700BF001002400004014080B500AF57
:10506800074BDB6903F40073B3F5007F05D100F04B
:1050780009F8034B4FF400721A6200BF80BD00BFED
:105088000010024080B400AF00BFBD465DF8047B4D
:10509800704780B58AB000AF7860002387F8273062
:1050A800002387F826302D4A2C4BDB6C43F0010394
:1050B800D3642A4BDB6C03F00103FB60FB68042319
:1050C8003B6103237B610223FB610023BB6107F182
:1050D800100319464FF09040FCF7DCFA1F4B9B6D0C
:1050E80003F08053002B0ED11C4A1C4B9B6D43F0E0
:1050F80080539365194B9B6D03F08053BB60BB686D
:10510800012387F82730164B1B6803F48073002BA4
:1051180004D1FCF707FE012387F826300F490F4B0F
:10512800D3F8903023F040727B68134343F08073C8
:10513800C1F8903097F82630012B01D1FCF702FE18
:1051480097F82730012B05D1044A044B9B6D23F0B7
:105158008053936500BF2837BD4680BD00100240CC
:105168000070004080B582B000AF0023FB710023BF
:10517800BB711C4B9B6D03F08053002B0DD1194A5A
:10518800184B9B6D43F080539365164B9B6D03F052
:1051980080533B603B680123FB71134B1B6803F48E
:1051A8008073002B03D1FCF7BDFD0123BB710D4AB1
:1051B8000C4BD3F8903023F08073C2F89030BB7951
:1051C800012B01D1FCF7BEFDFB79012B05D1054A66
:1051D800044B9B6D23F08053936500BF0837BD4691
:1051E80080BD00BF001002400070004080B400AFD6
:1051F800054A054B1B6843F00403136000BFBD4616
:105208005DF8047B704700BF0010024080B400AF17
:10521800054A054B1B6823F00403136000BFBD4615
:105228005DF8047B704700BF0010024080B584B071
:1052380000AF786039600023FB73734BDB6803F0C1
:105248000303002B18D0704BDB6803F003027B6864
:105258001B689A420DD17B681B68002B09D06A4BEA
:10526800DB681B0903F007035A1C7B685B689A42DA
:1052780044D00123FB7341E07B681B68022B0CD0F0
:10528800032B13D0012B20D15F4B1B6803F00203C3
:10529800002B1DD10123FB731AE05B4B1B6803F441
:1052A8008063002B16D10123FB7313E0564B1B6858
:1052B80003F40033002B0FD1534B1B6803F48023F6
:1052C800002B09D10123FB7306E00123FB7304E0E3
:1052D80000BF02E000BF00E000BFFB7B002B0DD148
:1052E8004948494BDB6823F073027B6819687B687F
:1052F8005B68013B1B010B431343C360FB7B002B23
:105308007DD1414A404B1B6823F080631360FAF754
:10531800FDFFB86009E0FAF7F9FF0246BB68D31A47
:10532800022B02D90323FB7305E0374B1B6803F0FC
:105338000063002BEFD1FB7B002B60D13B68002B77
:1053480011D13148304B1B6923F41F3323F44073C8
:105358007A68926811027A68D268120952040A437C
:105368001343036127E03B68012B12D12648264BE3
:105378001B6923F4C00323F4FE437A689268110280
:105388007A6812695208013A52050A4313430361C5
:1053980011E01D481C4B1B6923F0C06323F4FE4336
:1053A8007A68926811027A6852695208013A52067C
:1053B8000A4313430361144A134B1B6843F0806389
:1053C8001360FAF7A3FFB86009E0FAF79FFF0246F7
:1053D800BB68D31A022B02D90323FB7305E00A4BDF
:1053E8001B6803F00063002BEFD0FB7B002B06D17A
:1053F8000549054B1A697B689B6913430B61FB7B65
:1054080018461037BD4680BD0010024080B584B0F4
:1054180000AF786039600023FB73684BDB6803F0EA
:105428000303002B18D0654BDB6803F003027B688D
:105438001B689A420DD17B681B68002B09D05F4B13
:10544800DB681B0903F007035A1C7B685B689A42F8
:1054580044D00123FB7341E07B681B68022B0CD00E
:10546800032B13D0012B20D1544B1B6803F00203EC
:10547800002B1DD10123FB731AE0504B1B6803F46A
:105488008063002B16D10123FB7313E04B4B1B6881
:1054980003F40033002B0FD1484B1B6803F480231F
:1054A800002B09D10123FB7306E00123FB7304E001
:1054B80000BF02E000BF00E000BFFB7B002B0DD166
:1054C8003E483E4BDB6823F073027B6819687B68B3
:1054D8005B68013B1B010B431343C360FB7B002B41
:1054E80067D1364A354B1B6823F080531360FAF7AF
:1054F8000DFFB86009E0FAF709FF0246BB68D31A46
:10550800022B02D90323FB7305E02C4B1B6803F025
:105518000053002BEFD1FB7B002B4AD13B68002BBB
:1055280011D12648254B5B6923F41F3323F44073BC
:105538007A68926811027A68D268120952040A439A
:105548001343436111E01D481C4B5B6923F0C063A2
:1055580023F4FE437A68926811027A681269520845
:10556800013A52060A4313434361144A134B1B681A
:1055780043F080531360FAF7C9FEB86009E0FAF700
:10558800C5FE0246BB68D31A022B02D90323FB735C
:1055980005E00A4B1B6803F00053002BEFD0FB7BA0
:1055A800002B06D10549054B5A697B685B69134393
:1055B8004B61FB7B18461037BD4680BD001002408A
:1055C80080B489B000AF786039600023FB610023A4
:1055D800BB6100237B617B68B3F5006F0CD1624B24
:1055E800D3F8883003F44003BB61BB69B3F5400FBF
:1055F80012D15E4BFB610FE07B68B3F5805F0BD186
:10560800594BD3F8883003F04073BB61BB69B3F1E1
:10561800407F01D1554BFB61FB69002B40F09C801A
:105628003B683B61BB69B3F5000F03D0BB69B3F1BD
:10563800007F2DD14C4BDB6803F48033002B00F046
:105648008B80494BDB681B0903F0070301333A6978
:10565800B2FBF3F33B61444BDB681B0A03F07F03A7
:10566800FB607B69002B0AD13F4BDB6803F40033F6
:10567800002B02D011237B6101E007237B613B698A
:10568800FA6802FB03F27B69B2FBF3F3FB6163E0A8
:10569800BB69002B2CD1344B1B6903F48033002BDE
:1056A8005AD0314BDB681B0903F0070301333A6911
:1056B800B2FBF3F33B612C4B1B691B0A03F07F031E
:1056C800FB607B69002B0AD1274B1B6903F400336D
:1056D800002B02D011237B6101E007237B613B692A
:1056E800FA6802FB03F27B69B2FBF3F3FB6133E078
:1056F800BB69B3F5800F03D0BB69B3F1807F2BD1B1
:10570800194B5B6903F48033002B25D0164BDB68FB
:105718001B0903F0070301333A69B2FBF3F33B615A
:10572800114B5B691B0A03F07F03FB607B69002B4D
:105738000AD10D4B5B6903F40033002B02D011230F
:105748007B6101E007237B613B69FA6802FB03F296
:105758007B69B2FBF3F3FB61FB6918462437BD464E
:105768005DF8047B704700BF0010024068FF1F000F
:1057780080B582B000AF78607B68002B01D101232F
:105788001DE07B6893F83D30DBB2002B06D17B68C7
:10579800002283F83C20786809F0F4F97B6802223B
:1057A80083F83D207B681A687B68043319461046E5
:1057B80003F074FF7B68012283F83D20002318461C
:1057C8000837BD4680BD80B582B000AF78607B6881
:1057D800022283F83D207B681B681A6A41F2111384
:1057E8001340002B0FD17B681B681A6A40F24443B0
:1057F8001340002B07D17B681B687A68126812680F
:1058080022F001021A60786809F0E2F97B68002248
:1058180083F83D207B68002283F83C20002318464B
:105828000837BD4680BD80B483B000AF786000BF44
:105838000C37BD465DF8047B704780B483B000AF79
:10584800786000BF0C37BD465DF8047B704780B4B4
:1058580085B000AF78607B68022283F83D207B68C2
:105868001B689A680E4B1340FB60FB68062B0BD035
:10587800FB68B3F5803F07D07B681B687A681268BD
:10588800126842F001021A607B68012283F83D2009
:10589800002318461437BD465DF8047B704700BFE7
:1058A8000700010080B483B000AF78607B680222F3
:1058B80083F83D207B681B681A6A41F21113134074
:1058C800002B0FD17B681B681A6A40F244431340CF
:1058D800002B07D17B681B687A681268126822F06F
:1058E80001021A607B68012283F83D2000231846D4
:1058F8000C37BD465DF8047B704780B485B000AFB7
:1059080078607B681B687A681268D26842F0010286
:10591800DA607B681B689A680C4B1340FB60FB6875
:10592800062B0BD0FB68B3F5803F07D07B681B685C
:105938007A681268126842F001021A600023184659
:105948001437BD465DF8047B704700BF07000100AF
:1059580080B483B000AF78607B681B687A6812688F
:10596800D26822F00102DA607B681B681A6A41F289
:1059780011131340002B0FD17B681B681A6A40F281
:1059880044431340002B07D17B681B687A68126870
:10599800126822F001021A60002318460C37BD462F
:1059A8005DF8047B704780B586B000AFF860B960D9
:1059B8001346FB80FB6893F83D30DBB2022B01D124
:1059C80002234AE0FB6893F83D30DBB2012B0BD190
:1059D800BB68002B04D1FB88002B01D001233CE0DD
:1059E800FB68022283F83D20FB681B6A1D4ADA62C5
:1059F800FB681B6A1C4A1A63FB681B6A1B4A5A63CA
:105A0800FB68186AB968FB681B682C331A46FB8860
:105A1800FBF721FB0346002B01D001231DE0FB68A7
:105A28001B68FA681268D26842F48072DA60FB6810
:105A38001B689A680E4B13407B617B69062B0BD061
:105A48007B69B3F5803F07D0FB681B68FA6812686A
:105A5800126842F001021A60002318461837BD4642
:105A680080BD00BF159600083996000831940008DB
:105A78000700010080B582B000AF78607B681B68C2
:105A88007A681268D26822F48072DA607B681B6ACE
:105A98001846FBF77EFB7B681B681A6A41F21113F4
:105AA8001340002B0FD17B681B681A6A40F24443ED
:105AB8001340002B07D17B681B687A68126812684C
:105AC80022F001021A607B68012283F83D2000233E
