:020000040800F2
:1000000000800120B97A0008217900082F790008C2
:10001000357900083B7900084179000800000000AC
:100020000000000000000000000000004779000808
:100030005579000800000000637900087179000814
:10004000097B0008097B0008097B0008097B000880
:10005000097B0008097B0008097B0008097B000870
:10006000097B0008097B0008097B0008D979000892
:10007000097B0008097B0008097B0008097B000850
:10008000097B0008097B0008097B0008097B000840
:10009000097B0008097B0008097B0008097B000830
:1000A000097B0008097B0008097B0008097B000820
:1000B0007D790008097B0008097B0008097B00089E
:1000C000097B0008097B0008097B0008097B000800
:1000D000097B0008097B0008097B0008097B0008F0
:1000E000097B0008097B0008097B0008097B0008E0
:1000F000097B0008097B0008097B0008097B0008D0
:10010000097B0008097B0008097B0008097B0008BF
:100110009D790008097B0008097B0008097B00081D
:10012000097B0008097B0008B1790008097B0008F9
:10013000C5790008097B0008097B0008097B0008D5
:10014000097B0008097B0008097B0008097B00087F
:10015000097B0008097B0008097B0008097B00086F
:10016000097B0008097B0008097B0008097B00085F
:10017000097B0008097B0008097B000800000000DB
:08018000097B0008097B00085F
:1001900010B5054C237833B9044B13B10448AFF3C1
:1001A00000800123237010BD280200200000000001
:1001B00058B0000808B5034B1BB103490348AFF31F
:1001C000008008BD000000002C02002058B000088C
:1001D00010F8012B11F8013B012A28BF9A42F7D0F1
:1001E000D01A7047034613F8012B002AFBD1181AC6
:1001F000013870470000000000000000000000000F
:1002000001F0FF01102A2BDB10F0070F08D010F8C7
:10021000013B013A8B422DD010F0070F42B3F6D1CB
:10022000F0B441EA012141EA014122F007047FF0E4
:1002300000070023F0E80256083C85EA010586EA3B
:10024000010685FA47F5A3FA87F586FA47F6A5FA77
:1002500087F68EB9EED1F0BC01F0FF0102F0070283
:1002600032B110F8013B013A83EA010313B1F8D12E
:100270000020704701387047002D06BF354603380F
:10028000073815F0010F07D1013015F4807F02BF48
:10029000013015F4C03F0130F0BC0138704700BF99
:1002A00081F0004102E000BF83F0004330B54FEA27
:1002B00041044FEA430594EA050F08BF90EA020F94
:1002C0001FBF54EA000C55EA020C7FEA645C7FEA27
:1002D000655C00F0E2804FEA5454D4EB5555B8BF4A
:1002E0006D420CDD2C4480EA020281EA030382EABB
:1002F000000083EA010180EA020281EA0303362D4D
:1003000088BF30BD11F0004F4FEA01314FF4801C1F
:100310004CEA113102D0404261EB410113F0004F31
:100320004FEA03334CEA133302D0524263EB4303E8
:1003300094EA050F00F0A780A4F10104D5F1200E86
:100340000DDB02FA0EFC22FA05F2801841F10001E1
:1003500003FA0EF2801843FA05F359410EE0A5F1B5
:1003600020050EF1200E012A03FA0EFC28BF4CF0E6
:10037000020C43FA05F3C01851EBE37101F000459C
:1003800007D54FF0000EDCF1000C7EEB00006EEBA9
:100390000101B1F5801F1BD3B1F5001F0CD3490833
:1003A0005FEA30004FEA3C0C04F101044FEA44528A
:1003B00012F5800F80F09A80BCF1004F08BF5FEA11
:1003C000500C50F1000041EB045141EA050130BDF1
:1003D0005FEA4C0C404141EB010111F4801FA4F194
:1003E0000104E9D191F0000F04BF01460020B1FAE9
:1003F00081F308BF2033A3F10B03B3F120020CDA21
:100400000C3208DD02F1140CC2F10C0201FA0CF0FE
:1004100021FA02F10CE002F11402D8BFC2F1200C63
:1004200001FA02F120FA0CFCDCBF41EA0C01904019
:10043000E41AA2BF01EB0451294330BD6FEA040462
:100440001F3C1CDA0C340EDC04F11404C4F120024D
:1004500020FA04F001FA02F340EA030021FA04F35F
:1004600045EA030130BDC4F10C04C4F1200220FAB6
:1004700002F001FA04F340EA0300294630BD21FAF4
:1004800004F0294630BD94F0000F83F4801306BFBA
:1004900081F480110134013D4EE77FEA645C18BFAE
:1004A0007FEA655C29D094EA050F08BF90EA020F45
:1004B00005D054EA000C04BF1946104630BD91EA3D
:1004C000030F1EBF0021002030BD5FEA545C05D140
:1004D0004000494128BF41F0004130BD14F580047F
:1004E0003CBF01F5801130BD01F0004545F0FE41F3
:1004F00041F470014FF0000030BD7FEA645C1ABF28
:10050000194610467FEA655C1CBF0B46024650EA5E
:10051000013406BF52EA033591EA030F41F400218A
:1005200030BD00BF90F0000F04BF0021704730B510
:100530004FF4806404F132044FF000054FF00001E5
:1005400050E700BF90F0000F04BF0021704730B5A6
:100550004FF4806404F1320410F0004548BF40427B
:100560004FF000013EE700BF42004FEAE2014FEAD0
:1005700031014FEA02701FBF12F07F4393F07F4FAB
:1005800081F06051704792F0000F14BF93F07F4FDD
:10059000704730B54FF4607401F0004521F0004120
:1005A00020E700BF50EA010208BF704730B54FF0A6
:1005B00000050AE050EA010208BF704730B511F0AB
:1005C000004502D5404261EB41014FF4806404F1E3
:1005D00032045FEA915C3FF4DCAE4FF003025FEA65
:1005E000DC0C18BF03325FEADC0C18BF033202EBED
:1005F000DC02C2F1200300FA03FC20FA02F001FA47
:1006000003FE40EA0E0021FA02F11444C1E600BFE5
:1006100070B54FF0FF0C4CF4E06C1CEA11541DBF98
:100620001CEA135594EA0C0F95EA0C0F00F0DEF863
:100630002C4481EA030621EA4C5123EA4C5350EA48
:10064000013518BF52EA033541F4801143F4801399
:1006500038D0A0FB02CE4FF00005E1FB02E506F02A
:100660000042E0FB03E54FF00006E1FB03569CF07F
:10067000000F18BF4EF0010EA4F1FF04B6F5007F85
:1006800064F5407404D25FEA4E0E6D4146EB0606F7
:1006900042EAC62141EA55514FEAC52040EA5E5080
:1006A0004FEACE2EB4F1FD0C88BFBCF5E06F1ED82A
:1006B000BEF1004F08BF5FEA500E50F1000041EB61
:1006C000045170BD06F0004646EA010140EA02000E
:1006D00081EA0301B4EB5C04C2BFD4EB0C0541EA30
:1006E000045170BD41F480114FF0000E013C00F345
:1006F000AB8014F1360FDEBF002001F0004170BD69
:10070000C4F10004203C35DA0C341BDC04F1140481
:10071000C4F1200500FA05F320FA04F001FA05F20D
:1007200040EA020001F0004221F0004110EBD370DA
:1007300021FA04F642EB06015EEA430E08BF20EA06
:10074000D37070BDC4F10C04C4F1200500FA04F3A9
:1007500020FA05F001FA04F240EA020001F000413B
:1007600010EBD37041F100015EEA430E08BF20EAAE
:10077000D37070BDC4F1200500FA05F24EEA020EF6
:1007800020FA04F301FA05F243EA020321FA04F025
:1007900001F0004121FA04F220EA020000EBD370DC
:1007A0005EEA430E08BF20EAD37070BD94F0000FDC
:1007B0000FD101F00046400041EB010111F4801F10
:1007C00008BF013CF7D041EA060195F0000F18BFC1
:1007D000704703F00046520043EB030313F4801FFD
:1007E00008BF013DF7D043EA0603704794EA0C0FB7
:1007F0000CEA135518BF95EA0C0F0CD050EA4106CD
:1008000018BF52EA4306D1D181EA030101F0004149
:100810004FF0000070BD50EA410606BF1046194671
:1008200052EA430619D094EA0C0F02D150EA01367D
:1008300013D195EA0C0F05D152EA03361CBF1046BE
:1008400019460AD181EA030101F0004141F0FE415D
:1008500041F470014FF0000070BD41F0FE4141F4E1
:10086000780170BD70B54FF0FF0C4CF4E06C1CEAE1
:1008700011541DBF1CEA135594EA0C0F95EA0C0F96
:1008800000F0A7F8A4EB050481EA030E52EA033551
:100890004FEA013100F088804FEA03334FF0805572
:1008A00045EA131343EA12634FEA022245EA11159F
:1008B00045EA10654FEA00260EF000419D4208BF50
:1008C000964244F1FD0404F5407402D25B084FEAFD
:1008D0003202B61A65EB03055B084FEA32024FF4A9
:1008E00080104FF4002CB6EB020E75EB030E22BF06
:1008F000B61A754640EA0C005B084FEA3202B6EBC6
:10090000020E75EB030E22BFB61A754640EA5C0074
:100910005B084FEA3202B6EB020E75EB030E22BF04
:10092000B61A754640EA9C005B084FEA3202B6EB05
:10093000020E75EB030E22BFB61A754640EADC00C4
:1009400055EA060E18D04FEA051545EA16754FEA26
:1009500006164FEAC30343EA52734FEAC2025FEA44
:100960001C1CC0D111F4801F0BD141EA00014FF0D3
:1009700000004FF0004CB6E711F4801F04BF0143A4
:100980000020B4F1FD0C88BFBCF5E06F3FF6AFAEC0
:10099000B5EB030C04BFB6EB020C5FEA500C50F150
:1009A000000041EB045170BD0EF0004E4EEA1131D3
:1009B00014EB5C04C2BFD4EB0C0541EA045170BDDA
:1009C00041F480114FF0000E013C90E645EA060E1E
:1009D0008DE60CEA135594EA0C0F08BF95EA0C0F4C
:1009E0003FF43BAF94EA0C0F0AD150EA01347FF494
:1009F00034AF95EA0C0F7FF425AF104619462CE76B
:100A000095EA0C0F06D152EA03353FF4FDAE1046CD
:100A1000194622E750EA410618BF52EA43067FF41E
:100A2000C5AE50EA41047FF40DAF52EA43057FF4AE
:100A3000EBAE12E74FF0FF3C06E000BF4FF0010CB9
:100A400002E000BF4FF0010C4DF804CD4FEA410C1D
:100A50007FEA6C5C4FEA430C18BF7FEA6C5C1BD0EA
:100A600001B050EA410C0CBF52EA430C91EA030F6B
:100A700002BF90EA020F0020704710F1000F91EAC8
:100A8000030F58BF994208BF90422CBFD8176FEA96
:100A9000E37040F0010070474FEA410C7FEA6C5C64
:100AA00002D150EA013C07D14FEA430C7FEA6C5C6B
:100AB000D6D152EA033CD3D05DF8040B704700BF97
:100AC0008446104662468C461946634600E000BFE5
:100AD00001B5FFF7B7FF002848BF10F1000F01BDB7
:100AE0004DF808EDFFF7F4FF0CBF012000205DF882
:100AF00008FB00BF4DF808EDFFF7EAFF34BF012007
:100B000000205DF808FB00BF4DF808EDFFF7E0FF9F
:100B100094BF012000205DF808FB00BF4DF808EDF0
:100B2000FFF7CEFF94BF012000205DF808FB00BF57
:100B30004DF808EDFFF7C4FF34BF012000205DF839
:100B400008FB00BF4FEA410212F5001215D211D581
:100B50006FF47873B3EB625212D94FEAC12343F0BA
:100B6000004343EA505311F0004F23FA02F018BF3C
:100B7000404270474FF00000704750EA013005D105
:100B800011F0004008BF6FF0004070474FF00000C8
:100B9000704700BF4A0011D212F5001211D20DD5D4
:100BA0006FF47873B3EB62520ED44FEAC12343F073
:100BB000004343EA505323FA02F070474FF000001D
:100BC000704750EA013002D14FF0FF3070474FF0CC
:100BD000000070474FEA4102B2F1E04324BFB3F591
:100BE000001CDCF1FE5C0DD901F0004C4FEAC002A4
:100BF0004CEA5070B2F1004F40EB830008BF20F088
:100C00000100704711F0804F21D113F13872BCBF41
:100C100001F00040704741F480114FEA5252C2F196
:100C20001802C2F1200C10FA0CF320FA02F018BFDF
:100C300040F001004FEAC1234FEAD32303FA0CFC32
:100C400040EA0C0023FA02F34FEA4303CCE77FEAC1
:100C5000625307D150EA01331EBF4FF0FE4040F40B
:100C60004000704701F0004040F0FE4040F40000BA
:100C7000704700BF53B94AB9002908BF00281CBFFC
:100C80004FF0FF314FF0FF3000F07AB9ADF1080CB2
:100C90006DE904CE00F006F8DDF804E0DDE902239A
:100CA00004B070472DE9F0478C460D460446089E77
:100CB000002B51D18A4217466DD9B2FA82FEBEF19D
:100CC000000F0BD0CEF1200C01FA0EF520FA0CFC2F
:100CD00002FA0EF74CEA050C00FA0EF44FEA174A36
:100CE000250CBCFBFAF81FFA87F90AFB18CC45EA79
:100CF0000C4508FB09F3AB420AD9ED1908F1FF32A4
:100D000080F02381AB4240F22081A8F102083D44EB
:100D1000ED1AA4B2B5FBFAF00AFB105544EA0544FB
:100D200000FB09F9A14509D9E41900F1FF3380F06E
:100D30000A81A14540F2078102383C44A4EB090432
:100D400040EA08400021002E61D024FA0EF400236E
:100D500034607360BDE8F0878B4207D9002E54D011
:100D6000002186E821000846BDE8F087B3FA83F148
:100D7000002940F08E80AB4202D3824200F2FA801A
:100D8000841A65EB03050120AC46002E3FD086E8AF
:100D90001010BDE8F08712B90127B7FBF2F7B7FAD8
:100DA00087FEBEF1000F34D1EB1B3A0C1FFA87FC13
:100DB0000121B3FBF2F8250C02FB183345EA034589
:100DC0000CFB08F3AB4207D9ED1908F1FF3002D252
:100DD000AB4200F2D1808046ED1AA3B2B5FBF2F02F
:100DE00002FB105543EA05440CFB00FCA44507D95F
:100DF000E41900F1FF3302D2A44500F2B88018468E
:100E0000A4EB0C0440EA08409DE731463046BDE8BB
:100E1000F087CEF1200405FA0EF307FA0EF720FA58
:100E200004F83A0C25FA04F448EA0308B4FBF2F19A
:100E30004FEA184502FB11441FFA87FC45EA0445B6
:100E400001FB0CF3AB4200FA0EF409D9ED1901F1E4
:100E5000FF3080F08A80AB4240F2878002393D4407
:100E6000EB1A1FFA88F5B3FBF2F002FB103345EAE8
:100E7000034500FB0CF3AB4207D9ED1900F1FF3835
:100E80006FD2AB426DD902383D44EB1A40EA0141C2
:100E90008FE7C1F1200722FA07F88B4005FA01F429
:100EA00048EA030320FA07FE4FEA134CFD404EEADE
:100EB000040EB5FBFCF94FEA1E440CFB19551FFA52
:100EC00083F844EA054509FB08F4AC4202FA01F252
:100ED00000FA01FA08D9ED1809F1FF3043D2AC420B
:100EE00041D9A9F102091D442D1B1FFA8EFEB5FB45
:100EF000FCF00CFB10554EEA054400FB08F8A04539
:100F000007D9E41800F1FF3529D2A04527D90238C6
:100F10001C4440EA0940A4EB0804A0FB02894C45AC
:100F2000C6464D4615D312D056B1BAEB0E0364EB4C
:100F3000050404FA07F7CB401F43CC4037607460C8
:100F40000021BDE8F0871846F8E69046E0E6C24585
:100F5000EAD2B8EB020E69EB03050138E4E7284654
:100F6000D7E7404691E78146BEE7014678E7023879
:100F70003C4445E7084608E7A8F102083D442BE752
:100F8000704700BF80B582B000AF0023FB710C4AF0
:100F90000B4B1B6843F480731360032000F07CF953
:100FA000002000F00FF80346002B02D00123FB7154
:100FB00001E006F04DFBFB7918460837BD4680BDC1
:100FC0000020024080B584B000AF78600023FB733E
:100FD000164B1B68002B22D0154B1A68134B1B684D
:100FE0004FF47A71B1FBF3F3B2FBF3F3184600F060
:100FF00096F90346002B0FD17B680F2B09D80022EE
:1010000079684FF0FF3000F052F90A4A7B681360AC
:1010100007E00123FB7304E00123FB7301E00123DC
:10102000FB73FB7B18461037BD4680BD04000020D3
:101030000C0000200000002080B400AF054B1A68AF
:10104000054B1B681344034A136000BFBD465DF89F
:10105000047B7047780200200400002080B400AFB9
:10106000034B1B681846BD465DF8047B704700BF04
:101070007802002080B584B000AF7860FFF7EEFF03
:10108000B8607B68FB60FB68B3F1FF3F04D0094B9D
:101090001B68FA681344FB6000BFFFF7DFFF0246DE
:1010A000BB68D21AFB689A42F7D300BF1037BD461F
:1010B00080BD00BF0400002080B485B000AF786020
:1010C0007B6803F00703FB600C4BDB68BB60BA680E
:1010D0004FF6FF031340BB60FB681A02BB68134363
:1010E00043F0BF6343F40033BB60044ABB68D36082
:1010F00000BF1437BD465DF8047B704700ED00E08B
:1011000080B400AF044BDB681B0A03F007031846EA
:10111000BD465DF8047B704700ED00E080B483B00D
:1011200000AF0346FB7197F90730002B0BDB094931
:1011300097F907305B09FA7902F01F02012000FAE3
:1011400002F241F8232000BF0C37BD465DF8047B56
:10115000704700BF00E100E080B483B000AF0346F9
:10116000FB7197F90730002B10DB0B4997F907301B
:101170005B09FA7902F01F02012000FA02F2203323
:1011800041F82320BFF34F8FBFF36F8F00BF0C37A1
:10119000BD465DF8047B704700E100E080B483B099
:1011A00000AF03463960FB7197F90730002B0ADB6B
:1011B0000D4997F907303A68D2B21201D2B20B4406
:1011C00083F800230AE00949FB7903F00F03043B8D
:1011D0003A68D2B21201D2B20B441A7600BF0C3771
:1011E000BD465DF8047B704700E100E000ED00E0E3
:1011F00080B489B000AFF860B9607A60FB6803F032
:101200000703FB61FB69C3F10703042B28BF042319
:10121000BB61FB690433062B02D9FB69033B00E089
:1012200000237B610122BB6902FA03F35A1EBB68EB
:101230001A407B699A4001217B6901FA03F3591E28
:101240007B680B40134318462437BD465DF8047B8A
:101250007047000080B582B000AF78607B68013BCA
:10126000B3F1807F01D301230FE00A4A7B68013B81
:1012700053600F214FF0FF30FFF790FF054B002226
:101280009A60044B07221A60002318460837BD46AF
:1012900080BD00BF10E000E080B582B000AF786094
:1012A0007868FFF709FF00BF0837BD4680BD80B5ED
:1012B00086B000AF0346B9607A60FB7300237B61A0
:1012C000FFF71EFF78617A68B9687869FFF790FFC9
:1012D000024697F90F3011461846FFF75FFF00BF2F
:1012E0001837BD4680BD80B582B000AF0346FB71A4
:1012F00097F907301846FFF711FF00BF0837BD46C2
:1013000080BD80B582B000AF0346FB7197F907300E
:101310001846FFF721FF00BF0837BD4680BD80B5E6
:1013200082B000AF78607868FFF794FF03461846F4
:101330000837BD4680BD000080B485B000AF78603E
:101340007B68002B01D1012398E07B681B681A465B
:101350004D4B9A420FD87B681B681A464B4B13447F
:101360004B4AA2FB03231B099A007B685A647B68E3
:10137000484A1A640EE07B681B681A46464B1344C1
:10138000434AA2FB03231B099A007B685A647B68CB
:10139000424A1A647B68022283F825207B681B6816
:1013A0001B68FB60FB6823F4FF4323F07003FB60C2
:1013B0007B689A687B68DB681A437B681B691A4301
:1013C0007B685B691A437B689B691A437B68DB69AE
:1013D0001A437B681B6A1343FA681343FB607B68FC
:1013E0001B68FA681A607B689B68B3F5804F39D038
:1013F0007B681B6C274A93421AD12949284B1A68EB
:101400007B685B6C03F01C030F2000FA03F3DB43E3
:1014100013400B602248224B1A687B6859687B682E
:101420005B6C03F01C0301FA03F31343036019E040
:101430001C491C4B1A687B685B6C03F01C030F2073
:1014400000FA03F3DB4313400B601648154B1A6890
:101450007B6859687B685B6C03F01C0301FA03F33B
:10146000134303607B680022DA637B68012283F800
:1014700025207B68002283F8242000231846143797
:10148000BD465DF8047B704707040240F8FFFDBFCE
:10149000CDCCCCCC00000240F8FBFDBF00040240E4
:1014A000A8000240A804024080B483B000AF786076
:1014B0007B68002B01D1012372E07B681B687A688E
:1014C0001268126822F001021A607B681B681A46D3
:1014D000364B9A420FD87B681B681A46344B13442C
:1014E000344AA2FB03231B099A007B685A647B6879
:1014F000314A1A640EE07B681B681A462F4B13446E
:101500002C4AA2FB03231B099A007B685A647B6860
:101510002B4A1A647B681B6800221A607B681B6C6C
:101520007A68526C02F01C02012101FA02F25A6040
:101530007B681B6C204A93420DD12249214B1A68CB
:101540007B685B6C03F01C030F2000FA03F3DB43A2
:1015500013400B600CE01C491B4B1A687B685B6CEA
:1015600003F01C030F2000FA03F3DB4313400B606E
:101570007B680022DA627B6800221A637B680022A3
:101580005A637B6800229A637B680022DA637B6877
:10159000002283F825207B68002283F82420002382
:1015A00018460C37BD465DF8047B704707040240BF
:1015B000F8FFFDBFCDCCCCCC00000240F8FBFDBF56
:1015C00000040240A8000240A804024080B586B092
:1015D00000AFF860B9607A603B600023FB75FB6880
:1015E00093F82430012B01D102232EE0FB68012265
:1015F00083F82420FB6893F82530DBB2012B1DD142
:10160000FB68022283F82520FB680022DA63FB686E
:101610001B68FA681268126822F001021A603B68BF
:101620007A68B968F86800F0AEF9FB681B68FA6878
:101630001268126842F001021A6005E0FB6800229D
:1016400083F824200223FB75FB7D18461837BD461E
:1016500080BD80B586B000AFF860B9607A603B604D
:101660000023FB75FB6893F82430012B01D1022382
:101670004BE0FB68012283F82420FB6893F82530B7
:10168000DBB2012B3AD1FB68022283F82520FB68EC
:101690000022DA63FB681B68FA681268126822F09D
:1016A00001021A603B687A68B968F86800F06BF963
:1016B000FB681B6B002B08D0FB681B68FA6812687C
:1016C000126842F00E021A600FE0FB681B68FA68AD
:1016D0001268126822F004021A60FB681B68FA683C
:1016E0001268126842F00A021A60FB681B68FA6806
:1016F0001268126842F001021A6005E0FB680022DD
:1017000083F824200223FB75FB7D18461837BD465D
:1017100080BD80B485B000AF78600023FB737B6828
:1017200093F82530DBB2022B08D07B680422DA6301
:101730007B68002283F82420012322E07B681B6859
:101740007A681268126822F00E021A607B681B68C1
:101750007A681268126822F001021A607B681B6CBA
:101760007A68526C02F01C02012101FA02F25A60FE
:101770007B68012283F825207B68002283F82420DF
:10178000FB7B18461437BD465DF8047B704780B577
:1017900084B000AF78600023FB737B6893F825303A
:1017A000DBB2022B05D07B680422DA630123FB73D2
:1017B00029E07B681B687A681268126822F00E02C2
:1017C0001A607B681B687A681268126822F001024E
:1017D0001A607B681B6C7A68526C02F01C02012153
:1017E00001FA02F25A607B68012283F825207B68A7
:1017F000002283F824207B689B6B002B03D07B683E
:101800009B6B78689847FB7B18461037BD4680BDB8
:1018100080B584B000AF78607B681B6C1B68FB6090
:101820007B681B681B68BB607B685B6C03F01C03F8
:1018300004229A40FB681340002B26D0BB6803F0BB
:101840000403002B21D07B681B681B6803F0200376
:10185000002B07D17B681B687A681268126822F037
:1018600004021A607B681B6C7A68526C02F01C02DE
:10187000042101FA02F25A607B681B6B002B71D0C5
:101880007B681B6B786898476CE07B685B6C03F047
:101890001C0302229A40FB681340002B2ED0BB6829
:1018A00003F00203002B29D07B681B681B6803F040
:1018B0002003002B0BD17B681B687A6812681268C2
:1018C00022F00A021A607B68012283F825207B68D7
:1018D0001B6C7A68526C02F01C02022101FA02F2BF
:1018E0005A607B68002283F824207B68DB6A002B27
:1018F00038D07B68DB6A7868984733E07B685B6C3C
:1019000003F01C0308229A40FB681340002B2AD0E6
:10191000BB6803F00803002B25D07B681B687A683E
:101920001268126822F00E021A607B681B6C7A68DB
:10193000526C02F01C02012101FA02F25A607B682B
:101940000122DA637B68012283F825207B6800226C
:1019500083F824207B685B6B002B04D07B685B6B77
:101960007868984700BF00BF1037BD4680BD80B47F
:1019700083B000AF78607B68DB6B18460C37BD46E0
:101980005DF8047B704780B485B000AFF860B96043
:101990007A603B60FB681B6CFA68526C02F01C02B8
:1019A000012101FA02F25A60FB681B683A685A602A
:1019B000FB689B68102B08D1FB681B687A689A60EB
:1019C000FB681B68BA68DA6007E0FB681B68BA68E6
:1019D0009A60FB681B687A68DA6000BF1437BD46FE
:1019E0005DF8047B7047000080B487B000AF78607A
:1019F000396000237B617FE13B681A6801217B69C4
:101A000001FA03F31340FB60FB68002B00F07181C7
:101A10003B685B68022B03D03B685B68122B23D1C9
:101A20007B69DA087B68083253F822303B617B69B6
:101A300003F007039B000F2202FA03F3DB433A692A
:101A400013403B613B681A697B6903F007039B0005
:101A500002FA03F33A6913433B617B69DA087B6856
:101A60000832396943F822107B681B683B617B6947
:101A70005B00032202FA03F3DB433A6913403B6144
:101A80003B685B6803F003027B695B0002FA03F3C7
:101A90003A6913433B617B683A691A603B685B684B
:101AA000012B0BD03B685B68022B07D03B685B685F
:101AB000112B03D03B685B68122B30D17B689B688D
:101AC0003B617B695B00032202FA03F3DB433A6963
:101AD00013403B613B68DA687B695B0002FA03F301
:101AE0003A6913433B617B683A699A607B685B683B
:101AF0003B6101227B6902FA03F3DB433A6913403D
:101B00003B613B685B681B0903F001027B6902FAD9
:101B100003F33A6913433B617B683A695A603B6857
:101B20005B6803F00303032B18D17B68DB6A3B611E
:101B300001227B6902FA03F3DB433A6913403B61FC
:101B40003B685B68DB0803F001027B6902FA03F380
:101B50003A6913433B617B683A69DA627B68DB6808
:101B60003B617B695B00032202FA03F3DB433A69C2
:101B700013403B613B689A687B695B0002FA03F3A0
:101B80003A6913433B617B683A69DA603B685B689A
:101B900003F08053002B00F0AC805E4A5D4B1B6E5F
:101BA00043F0010313665B4B1B6E03F00103BB6044
:101BB000BB68594A7B699B08023352F823303B616A
:101BC0007B6903F003039B000F2202FA03F3DB435C
:101BD0003A6913403B617B68B3F1904F25D07B6835
:101BE0004E4A93421FD07B684D4A934219D07B687E
:101BF0004C4A934213D07B684B4A93420DD07B688A
:101C00004A4A934207D07B68494A934201D106234E
:101C10000CE007230AE0052308E0042306E0032381
:101C200004E0022302E0012300E000237A6902F0CD
:101C30000302920093403A6913433B6136497B6942
:101C40009B0802333A6941F823203A4B1B683B61F9
:101C5000FB68DB433A6913403B613B685B6803F414
:101C60008033002B03D03A69FB6813433B61314A50
:101C70003B6913602F4B5B683B61FB68DB433A6950
:101C800013403B613B685B6803F40033002B03D0D7
:101C90003A69FB6813433B61264A3B695360254B15
:101CA0009B683B61FB68DB433A6913403B613B68DF
:101CB0005B6803F48013002B03D03A69FB6813437D
:101CC0003B611C4A3B6993601A4BDB683B61FB68D4
:101CD000DB433A6913403B613B685B6803F40013E4
:101CE000002B03D03A69FB6813433B61114A3B69FF
:101CF000D3607B6901337B613B681A687B6922FA98
:101D000003F3002B7FF478AE00BF1C37BD465DF8AF
:101D1000047B7047001002400000014000040048AE
:101D200000080048000C004800100048001400485B
:101D3000001800480004014080B487B000AF78600C
:101D4000396000237B61CDE001227B699A403B68CA
:101D500013403B613B69002B00F0C180684A7B69FE
:101D60009B08023352F82330FB607B6903F00303C6
:101D70009B000F2202FA03F3FA681340FB607B68B2
:101D8000B3F1904F25D07B685E4A93421FD07B68A9
:101D90005D4A934219D07B685C4A934213D07B68BA
:101DA0005B4A93420DD07B685A4A934207D07B68C6
:101DB000594A934201D106230CE007230AE0052388
:101DC00008E0042306E0032304E0022302E00123E9
:101DD00000E000237A6902F00302920003FA02F2A3
:101DE000FB689A4232D14D494C4B1A683B69DB4340
:101DF00013400B604949494B5A683B69DB43134028
:101E00004B604649454B9A683B69DB4313408B6006
:101E10004249424BDA683B69DB431340CB607B6944
:101E200003F003039B000F2202FA03F3FB60344824
:101E30007B699B0832497A699208023251F8221074
:101E4000FA68D2430A40023340F823207B681A68BC
:101E50007B695B00032101FA03F31A437B681A6074
:101E60007B69DA087B69D9087B68083153F821104F
:101E70007B6903F007039B000F2000FA03F3DB43A9
:101E800019407B68083243F822107B689A687B69A6
:101E90005B00032101FA03F3DB431A407B689A607D
:101EA0007B685A6801217B6901FA03F3DB431A401E
:101EB0007B685A607B68DA687B695B00032101FA02
:101EC00003F3DB431A407B68DA607B68DA6A01213E
:101ED0007B6901FA03F3DB431A407B68DA627B69B2
:101EE00001337B613A687B6922FA03F3002B7FF4AC
:101EF0002BAF00BF1C37BD465DF8047B704700BFA9
:101F0000000001400004004800080048000C0048A0
:101F10000010004800140048001800480004014068
:101F200080B483B000AF78600B467B8013467B7033
:101F30007B78002B03D07A887B689A6102E07A88EC
:101F40007B689A6200BF0C37BD465DF8047B704722
:101F500080B483B000AF78600B467B807B685A69A1
:101F60007B881340002B03D07A887B689A6202E05A
:101F70007A887B689A6100BF0C37BD465DF8047BA8
:101F80007047000080B400AF044B1B6803F4C063CB
:101F90001846BD465DF8047B704700BF00700040E6
:101FA00080B485B000AF78607B68B3F5007F30D136
:101FB000234B1B6803F4C063B3F5007F38D0204A7D
:101FC0001F4B1B6823F4C06343F4007313601D4B65
:101FD0001B68322202FB03F31B4AA2FB03239B0C68
:101FE0000133FB6002E0FB68013BFB60144B5B6963
:101FF00003F48063B3F5806F02D1FB68002BF2D14C
:102000000F4B5B6903F48063B3F5806F10D103233A
:102010000FE00B4B1B6803F4C063B3F5806F07D070
:10202000074A074B1B6823F4C06343F480631360C3
:10203000002318461437BD465DF8047B704700BF87
:10204000007000400C00002083DE1B4380B588B088
:1020500000AF78607B68002B01D101239DE3A44B86
:102060009B6803F00C03BB61A14BDB6803F0030327
:102070007B617B681B6803F01003002B00F0E1809C
:10208000BB69002B07D0BB690C2B40F088807B69B3
:10209000012B40F08480964B1B6803F00203002B59
:1020A00005D07B689B69002B01D1012375E37B6818
:1020B0001A6A8F4B1B6803F00803002B04D08C4B6B
:1020C0001B6803F0F00305E0894BD3F894301B093B
:1020D00003F0F0039A4223D97B681B6A184600F08C
:1020E00009FD0346002B01D0012356E3804A804BB3
:1020F0001B6843F0080313607D497D4B1B6823F088
:10210000F0027B681B6A13430B607949784B5B686C
:1021100023F47F427B68DB691B0213434B6022E0A0
:10212000734A734B1B6843F0080313607049704B8C
:102130001B6823F0F0027B681B6A13430B606C4939
:102140006B4B5B6823F47F427B68DB691B021343A4
:102150004B607B681B6A184600F0CCFC0346002BE2
:1021600001D0012319E300F003FC0146604B9B689A
:102170001B0903F00F035F4AD35C03F01F0321FA2E
:1021800003F35D4A13605D4B1B681846FEF71AFFA8
:102190000346FB73FB7B002B52D0FB7BFDE27B688D
:1021A0009B69002B32D0524A514B1B6843F001030C
:1021B0001360FEF753FF386108E0FEF74FFF024659
:1021C0003B69D31A022B01D90323E6E2484B1B6873
:1021D00003F00203002BF0D0454A454B1B6843F047
:1021E000080313604249424B1B6823F0F0027B68EE
:1021F0001B6A13430B603E493D4B5B6823F47F42EF
:102200007B68DB691B0213434B601AE0384A384B8A
:102210001B6823F001031360FEF720FF386108E01C
:10222000FEF71CFF02463B69D31A022B01D9032398
:10223000B3E22F4B1B6803F00203002BF0D100E048
:1022400000BF7B681B6803F00103002B74D0BB69DF
:10225000082B05D0BB690C2B0ED17B69032B0BD14E
:10226000234B1B6803F40033002B64D07B685B684E
:10227000002B60D1012390E27B685B68B3F5803F5F
:1022800006D11B4A1A4B1B6843F4803313601DE0D0
:102290007B685B68B3F5A02F0CD1154A144B1B6803
:1022A00043F480231360124A114B1B6843F48033BC
:1022B00013600BE00E4A0E4B1B6823F4803313604F
:1022C0000B4A0B4B1B6823F4802313607B685B680D
:1022D000002B1CD0FEF7C2FE386111E0FEF7BEFEF7
:1022E00002463B69D31A642B0AD9032355E200BF87
:1022F0000010024054B100080C0000200000002033
:10230000AE4B1B6803F40033002BE7D014E0FEF75C
:10231000A5FE386108E0FEF7A1FE02463B69D31A2C
:10232000642B01D9032338E2A44B1B6803F4003368
:10233000002BF0D100E000BF7B681B6803F00203B4
:10234000002B60D0BB69042B05D0BB690C2B19D1C5
:102350007B69022B16D1994B1B6803F48063002B19
:1023600005D07B68DB68002B01D1012315E293497E
:10237000924B5B6823F0F8527B681B691B06134382
:102380004B6040E07B68DB68002B23D08B4A8B4B93
:102390001B6843F480731360FEF760FE386108E049
:1023A000FEF75CFE02463B69D31A022B01D90323D8
:1023B000F3E1824B1B6803F48063002BF0D07F496C
:1023C0007E4B5B6823F0F8527B681B691B06134346
:1023D0004B6018E0794A794B1B6823F480731360D3
:1023E000FEF73CFE386108E0FEF738FE02463B6926
:1023F000D31A022B01D90323CFE1704B1B6803F4DE
:102400008063002BF0D17B681B6803F00803002B6E
:102410003CD07B685B69002B1CD0684A674BD3F8C3
:10242000943043F00103C2F89430FEF717FE386190
:1024300008E0FEF713FE02463B69D31A022B01D9CE
:102440000323AAE15D4BD3F8943003F00203002B81
:10245000EFD01BE0594A594BD3F8943023F00103D5
:10246000C2F89430FEF7FAFD386108E0FEF7F6FD99
:1024700002463B69D31A022B01D903238DE14F4B4E
:10248000D3F8943003F00203002BEFD17B681B6874
:1024900003F00403002B00F0A5800023FB77474BDB
:1024A0009B6D03F08053002B0DD1444A434B9B6D31
:1024B00043F080539365414B9B6D03F08053BB60A9
:1024C000BB680123FB773E4B1B6803F48073002B32
:1024D00018D13B4A3A4B1B6843F480731360FEF7F4
:1024E000BDFD386108E0FEF7B9FD02463B69D31A2D
:1024F000022B01D9032350E1314B1B6803F4807395
:10250000002BF0D07B689B68012B08D12B4A2B4B0A
:10251000D3F8903043F00103C2F8903024E07B6898
:102520009B68052B10D1254A244BD3F8903043F0FB
:102530000403C2F89030214A204BD3F8903043F086
:102540000103C2F890300FE01C4A1C4BD3F89030C6
:1025500023F00103C2F89030184A184BD3F890309A
:1025600023F00403C2F890307B689B68002B16D0E0
:10257000FEF774FD38610AE0FEF770FD02463B6924
:10258000D31A41F28832934201D9032305E10B4B60
:10259000D3F8903003F00203002BEDD019E0FEF7E2
:1025A0005DFD38610EE0FEF759FD02463B69D31A26
:1025B00041F28832934205D90323EEE00010024035
:1025C00000700040774BD3F8903003F00203002BEB
:1025D000E9D1FB7F012B05D1724A724B9B6D23F031
:1025E000805393657B689B6A002B00F0D580BB69A4
:1025F0000C2B00F08E807B689B6A022B5BD1694AB2
:10260000684B1B6823F080731360FEF727FD386169
:1026100008E0FEF723FD02463B69D31A022B01D9DD
:102620000323BAE05F4B1B6803F00073002BF0D16B
:102630005C485C4BDA685C4B13407A68D16A7A6814
:10264000126B013A120111437A68526B1202114364
:102650007A68D26B5208013A520511437A68126CBB
:102660005208013A520611437A68926B12095204D9
:102670000A431343C3604B4A4A4B1B6843F08073C1
:102680001360484A474BDB6843F08073D360FEF722
:10269000E5FC386108E0FEF7E1FC02463B69D31A2D
:1026A000022B01D9032378E03E4B1B6803F0007333
:1026B000002BF0D070E03B4A3A4B1B6823F080734C
:1026C0001360384B1B6803F02053002B05D1354AAB
:1026D000344BDB6823F00303D360324A314BDB68B1
:1026E00023F0887323F48033D360FEF7B7FC38619E
:1026F00008E0FEF7B3FC02463B69D31A022B01D96E
:1027000003234AE0274B1B6803F00073002BF0D132
:1027100042E07B689B6A012B01D101233DE0214B04
:10272000DB687B617B6903F003027B68DB6A9A42AA
:1027300030D17B6903F070027B681B6B013B1B018E
:102740009A4227D17B6903F4FE427B685B6B1B02D4
:102750009A421FD17B6903F400337A68926B072A8F
:1027600014BF01220022D2B2934213D17B6903F439
:10277000C0027B68DB6B5B08013B5B059A4209D1B9
:102780007B6903F0C0627B681B6C5B08013B5B06E6
:102790009A4201D0012300E0002318462037BD46AD
:1027A00080BD00BF001002408C809DF980B584B0D0
:1027B00000AF786039607B68002B01D10123C8E04D
:1027C000664B1B6803F007023B689A4210D26349CC
:1027D000624B1B6823F007023B6813430B605F4B9F
:1027E0001B6803F007023B689A4201D00123B0E066
:1027F0007B681B6803F00103002B4CD07B685B688F
:10280000032B07D1564B1B6803F00073002B21D11B
:1028100001239EE07B685B68022B07D1504B1B684D
:1028200003F40033002B15D1012392E07B685B6831
:10283000002B07D14A4B1B6803F00203002B09D180
:10284000012386E0464B1B6803F48063002B01D113
:1028500001237EE04249424B9B6823F003027B68E0
:102860005B6813438B60FEF7F9FBF8600AE0FEF744
:10287000F5FB0246FB68D31A41F28832934201D934
:10288000032366E0364B9B6803F00C027B685B68B1
:102890009B009A42EBD17B681B6803F00203002B7C
:1028A00008D02F492E4B9B6823F0F0027B689B6871
:1028B00013438B60294B1B6803F007023B689A4265
:1028C00010D92649254B1B6823F007023B681343A8
:1028D0000B60224B1B6803F007023B689A4201D051
:1028E000012336E07B681B6803F00403002B08D04B
:1028F0001B491B4B9B6823F4E0627B68DB68134336
:102900008B607B681B6803F00803002B09D0144917
:10291000134B9B6823F460527B681B69DB001343F5
:102920008B6000F025F801460D4B9B681B0903F0F6
:102930000F030C4AD35C03F01F0321FA03F30A4A86
:1029400013600A4B1B681846FEF73CFB0346FB72FC
:10295000FB7A18461037BD4680BD00BF00200240FC
:102960000010024054B100080C00002000000020BC
:1029700080B489B000AF0023FB610023BB613D4BF5
:102980009B6803F00C033B613A4BDB6803F00303E5
:10299000FB603B69002B05D03B690C2B21D1FB6808
:1029A000012B1ED1334B1B6803F00803002B07D10A
:1029B000304BD3F894301B0A03F00F03FB6105E0A2
:1029C0002C4B1B681B0903F00F03FB612A4AFB69B0
:1029D00052F82330FB613B69002B0DD1FB69BB61D1
:1029E0000AE03B69042B02D1244BBB6104E03B6944
:1029F000082B01D1224BBB613B690C2B33D11D4B02
:102A0000DB6803F00303BB60BB68022B02D0032B1F
:102A100003D005E0194B7B6105E0194B7B6102E0B7
:102A2000FB697B6100BF134BDB681B0903F00703E5
:102A300001337B600F4BDB681B0A03F07F037A696D
:102A400002FB03F27B68B2FBF3F37B61094BDB68AB
:102A50005B0E03F0030301335B003B607A693B6864
:102A6000B2FBF3F3BB61BB6918462437BD465DF882
:102A7000047B7047001002406CB100080024F40091
:102A800000127A0080B400AF034B1B681846BD46A5
:102A90005DF8047B704700BF0C00002080B500AFDC
:102AA000FFF7F0FF0146064B9B681B0A03F0070384
:102AB000044AD35C03F01F0321FA03F3184680BDD8
:102AC0000010024064B1000880B500AFFFF7DAFFE4
:102AD0000146064B9B68DB0A03F00703044AD35CFC
:102AE00003F01F0321FA03F3184680BD00100240D3
:102AF00064B1000880B586B000AF786000233B6108
:102B00002A4B9B6D03F08053002B03D0FFF73AFA5A
:102B1000786114E0254A254B9B6D43F08053936503
:102B2000224B9B6D03F08053FB60FB68FFF72AFA92
:102B300078611E4A1D4B9B6D23F0805393657B6922
:102B4000B3F5007F0BD17B68802B19D97B68A02B54
:102B500002D902233B6113E001233B6110E07B6853
:102B6000802B02D903233B610AE07B68802B02D1D2
:102B700002233B6104E07B68702B01D101233B61A0
:102B80000B490B4B1B6823F007023B6913430B6097
:102B9000074B1B6803F007023B699A4201D00123EF
:102BA00000E0002318461837BD4680BD00100240E3
:102BB0000020024080B586B000AF78600023FB742F
:102BC0000023BB747B681B6803F40063002B3FD0B9
:102BD0007B685B6EB3F5800F1CD0B3F5800F02D815
:102BE000002B0ED01FE0B3F5000F03D0B3F5400F5C
:102BF0001CD018E0854A854BDB6843F48033D360F2
:102C000015E07B6804330021184600F0B9FA03464A
:102C1000FB740CE07B6820330021184600F0A0FB19
:102C20000346FB7403E00123FB7400E000BFFB7C60
:102C3000002B0BD17549754BD3F8883023F4400233
:102C40007B685B6E1343C1F8883001E0FB7CBB748A
:102C50007B681B6803F48053002B3FD07B689B6E1E
:102C6000B3F1807F1CD0B3F1807F02D8002B0ED04F
:102C70001FE0B3F1007F03D0B3F1407F1CD018E018
:102C8000624A624BDB6843F48033D36015E07B68B3
:102C900004330021184600F073FA0346FB740CE07D
:102CA0007B6820330021184600F05AFB0346FB7472
:102CB00003E00123FB7400E000BFFB7C002B0BD181
:102CC0005249524BD3F8883023F040727B689B6E98
:102CD0001343C1F8883001E0FB7CBB747B681B6840
:102CE00003F40033002B00F0A08000237B74474BDB
:102CF0009B6D03F08053002B01D1012300E00023E2
:102D0000002B0DD0414A414B9B6D43F0805393659E
:102D10003E4B9B6D03F08053BB60BB6801237B740B
:102D20003B4A3B4B1B6843F480731360FEF796F9F4
:102D3000F86009E0FEF792F90246FB68D31A022B0D
:102D400002D90323FB7405E0314B1B6803F4807345
:102D5000002BEFD0FB7C002B5CD12C4BD3F89030B8
:102D600003F440737B617B69002B1FD07B68D3F831
:102D700084207B699A4219D0244BD3F8903023F4F5
:102D800040737B61214A214BD3F8903043F4803368
:102D9000C2F890301D4A1D4BD3F8903023F4803395
:102DA000C2F89030194A7B69C2F890307B6903F011
:102DB0000103002B16D0FEF751F9F8600BE0FEF787
:102DC0004DF90246FB68D31A41F28832934202D988
:102DD0000323FB7406E00D4BD3F8903003F002039D
:102DE000002BECD0FB7C002B0CD10849074BD3F80F
:102DF000903023F440727B68D3F884301343C1F8D9
:102E0000903009E0FB7CBB7406E000BF001002407C
:102E100000700040FB7CBB747B7C012B05D19E4A7B
:102E20009D4B9B6D23F0805393657B681B6803F07B
:102E30000103002B0AD09849974BD3F8883023F030
:102E400003027B689B6B1343C1F888307B681B6867
:102E500003F00203002B0AD08F498F4BD3F8883040
:102E600023F00C027B68DB6B1343C1F888307B686E
:102E70001B6803F00403002B0AD08749864BD3F864
:102E8000883023F030027B681B6C1343C1F8883014
:102E90007B681B6803F00803002B0AD07E497E4B39
:102EA000D3F8883023F0C0027B685B6C1343C1F811
:102EB00088307B681B6803F01003002B0AD076492A
:102EC000754BD3F8883023F440727B689B6C1343B6
:102ED000C1F888307B681B6803F02003002B0AD000
:102EE0006D496D4BD3F8883023F440627B68DB6C0E
:102EF0001343C1F888307B681B6803F40073002B10
:102F00000AD06549644BD3F8883023F440227B68AB
:102F1000DB6D1343C1F888307B681B6803F4806362
:102F2000002B0AD05C495C4BD3F8883023F4401264
:102F30007B681B6E1343C1F888307B681B6803F005
:102F40004003002B0AD05449534BD3F8883023F464
:102F500040527B681B6D1343C1F888307B681B6847
:102F600003F08003002B0AD04B494B4BD3F8883039
:102F700023F440427B685B6D1343C1F888307B6863
:102F80001B6803F48073002B0AD04349424BD3F8EB
:102F9000883023F440327B689B6D1343C1F888303E
:102FA0007B681B6803F40053002B28D03A493A4B46
:102FB000D3F8883023F040627B68DB6E1343C1F89E
:102FC00088307B68DB6EB3F1006F06D1324A324B3A
:102FD000DB6843F48013D36011E07B68DB6EB3F1F0
:102FE000806F0CD17B6804330121184600F0C8F8CB
:102FF0000346FB74FB7C002B01D0FB7CBB747B681D
:103000001B6803F40023002B28D02349224BD3F85C
:10301000883023F040627B681B6F1343C1F888300F
:103020007B681B6FB3F1006F06D11B4A1A4BDB683C
:1030300043F48013D36011E07B681B6FB3F1806FA2
:103040000CD17B6804330121184600F099F803463F
:10305000FB74FB7C002B01D0FB7CBB747B681B6882
:1030600003F48023002B2BD00B490B4BD3F8883073
:1030700023F040627B685B6F1343C1F888307B6844
:103080005B6FB3F1006F09D1034A034BDB6843F474
:103090008013D36014E000BF001002407B685B6FB8
:1030A000B3F1806F0CD17B6804330121184600F026
:1030B00067F80346FB74FB7C002B01D0FB7CBB74E0
:1030C0007B681B6803F48043002B2FD02B492B4BCC
:1030D000D3F8883023F040527B689B6F1343C1F8CC
:1030E00088307B689B6FB3F1805F0DD17B680433C0
:1030F0000221184600F044F80346FB74FB7C002BC9
:1031000014D0FB7CBB7411E07B689B6FB3F1005F54
:103110000CD17B6820330221184600F021F90346C8
:10312000FB74FB7C002B01D0FB7CBB747B681B68B1
:1031300003F40043002B0AD01049104BD3F8883019
:1031400023F080427B68DB6F1343C1F888307B68D3
:103150001B6803F48033002B0BD00849074BD3F8CE
:10316000883023F000427B68D3F880301343C1F8E5
:103170008830BB7C18461837BD4680BD0010024021
:1031800080B584B000AF786039600023FB73734B67
:10319000DB6803F00303002B18D0704BDB6803F0EF
:1031A00003027B681B689A420DD17B681B68002B69
:1031B00009D06A4BDB681B0903F007035A1C7B68C4
:1031C0005B689A4244D00123FB7341E07B681B6833
:1031D000022B0CD0032B13D0012B20D15F4B1B688B
:1031E00003F00203002B1DD10123FB731AE05B4B9C
:1031F0001B6803F48063002B16D10123FB7313E0DB
:10320000564B1B6803F40033002B0FD1534B1B6844
:1032100003F48023002B09D10123FB7306E0012373
:10322000FB7304E000BF02E000BF00E000BFFB7BD7
:10323000002B0DD14948494BDB6823F073027B68B2
:1032400019687B685B68013B1B010B431343C36038
:10325000FB7B002B7DD1414A404B1B6823F08063F0
:103260001360FDF7FBFEB86009E0FDF7F7FE0246CC
:10327000BB68D31A022B02D90323FB7305E0374B3B
:103280001B6803F00063002BEFD1FB7B002B60D1A8
:103290003B68002B11D13148304B1B6923F41F339D
:1032A00023F440737A68926811027A68D26812092E
:1032B00052040A431343036127E03B68012B12D1F8
:1032C0002648264B1B6923F4C00323F4FE437A6887
:1032D000926811027A6812695208013A52050A434B
:1032E0001343036111E01D481C4B1B6923F0C063AD
:1032F00023F4FE437A68926811027A685269520890
:10330000013A52060A4313430361144A134B1B68E4
:1033100043F080631360FDF7A1FEB86009E0FDF79C
:103320009DFE0246BB68D31A022B02D90323FB730E
:1033300005E00A4B1B6803F00063002BEFD0FB7B1A
:10334000002B06D10549054B1A697B689B6913431D
:103350000B61FB7B18461037BD4680BD0010024054
:1033600080B584B000AF786039600023FB73684B90
:10337000DB6803F00303002B18D0654BDB6803F018
:1033800003027B681B689A420DD17B681B68002B87
:1033900009D05F4BDB681B0903F007035A1C7B68ED
:1033A0005B689A4244D00123FB7341E07B681B6851
:1033B000022B0CD0032B13D0012B20D1544B1B68B4
:1033C00003F00203002B1DD10123FB731AE0504BC5
:1033D0001B6803F48063002B16D10123FB7313E0F9
:1033E0004B4B1B6803F40033002B0FD1484B1B6879
:1033F00003F48023002B09D10123FB7306E0012392
:10340000FB7304E000BF02E000BF00E000BFFB7BF5
:10341000002B0DD13E483E4BDB6823F073027B68E6
:1034200019687B685B68013B1B010B431343C36056
:10343000FB7B002B67D1364A354B1B6823F080534A
:103440001360FDF70BFEB86009E0FDF707FE0246CA
:10345000BB68D31A022B02D90323FB7305E02C4B64
:103460001B6803F00053002BEFD1FB7B002B4AD1EC
:103470003B68002B11D12648254B5B6923F41F3391
:1034800023F440737A68926811027A68D26812094C
:1034900052040A431343436111E01D481C4B5B690E
:1034A00023F0C06323F4FE437A68926811027A68BD
:1034B00012695208013A52060A4313434361144AFF
:1034C000134B1B6843F080531360FDF7C7FDB860D2
:1034D00009E0FDF7C3FD0246BB68D31A022B02D9EF
:1034E0000323FB7305E00A4B1B6803F00053002B1A
:1034F000EFD0FB7B002B06D10549054B5A697B6851
:103500005B6913434B61FB7B18461037BD4680BD9A
:103510000010024080B582B000AF78607B68002B5D
:1035200001D101231DE07B6893F83D30DBB2002B15
:1035300006D17B68002283F83C20786804F08AF981
:103540007B68022283F83D207B681A687B6804331D
:103550001946104600F028FD7B68012283F83D20C3
:10356000002318460837BD4680BD80B582B000AF45
:1035700078607B68022283F83D207B681B681A6AAA
:1035800041F211131340002B0FD17B681B681A6A9C
:1035900040F244431340002B07D17B681B687A68D4
:1035A0001268126822F001021A60786804F09AF931
:1035B0007B68002283F83D207B68002283F83C2052
:1035C000002318460837BD4680BD80B483B000AFE5
:1035D00078607B68022283F83D207B681B681A6A4A
:1035E00041F211131340002B0FD17B681B681A6A3C
:1035F00040F244431340002B07D17B681B687A6874
:103600001268126822F001021A607B68012283F8B6
:103610003D20002318460C37BD465DF8047B7047FB
:1036200080B485B000AF78607B681B687A681268E8
:10363000D26842F00102DA607B681B689A680C4B22
:103640001340FB60FB68062B0BD0FB68B3F5803F93
:1036500007D07B681B687A681268126842F0010222
:103660001A60002318461437BD465DF8047B704786
:103670000700010080B483B000AF78607B681B68EE
:103680007A681268D26822F00102DA607B681B68EF
:103690001A6A41F211131340002B0FD17B681B688B
:1036A0001A6A40F244431340002B07D17B681B6821
:1036B0007A681268126822F001021A600023184624
:1036C0000C37BD465DF8047B704780B582B000AF13
:1036D00078607B68002B01D101231DE07B6893F8A3
:1036E0003D30DBB2002B06D17B68002283F83C2002
:1036F000786800F015F87B68022283F83D207B682B
:103700001A687B6804331946104600F04DFC7B684C
:10371000012283F83D20002318460837BD4680BDAE
:1037200080B483B000AF786000BF0C37BD465DF851
:10373000047B704780B584B000AF786039603B6827
:103740000C2B41D801A252F823F000BF81370008AA
:10375000C9370008C9370008C9370008933700087F
:10376000C9370008C9370008C9370008A53700085D
:10377000C9370008C9370008C9370008B73700083B
:103780007B681B687A681268D26842F00202DA60CD
:103790001BE07B681B687A681268D26842F00402FA
:1037A000DA6012E07B681B687A681268D26842F0BF
:1037B0000802DA6009E07B681B687A681268D268E0
:1037C00042F01002DA6000E000BF7B681B68012253
:1037D0003968184601F09EF97B681B681E4A9342BF
:1037E00013D07B681B681D4A93420ED07B681B6810
:1037F0001B4A934209D07B681B681A4A934204D043
:103800007B681B68184A934201D1012300E0002322
:10381000002B07D07B681B687A681268526C42F4F0
:1038200000425A647B681B689A68104B1340FB6027
:10383000FB68062B0BD0FB68B3F5803F07D07B6895
:103840001B687A681268126842F001021A6000234D
:1038500018461037BD4680BD002C014000340140A1
:1038600000400140004401400048014007000100C1
:1038700080B582B000AF78607B68002B01D1012356
:103880001DE07B6893F83D30DBB2002B06D17B68EE
:10389000002283F83C20786800F015F87B6802224B
:1038A00083F83D207B681A687B680433194610460C
:1038B00000F07AFB7B68012283F83D200023184644
:1038C0000837BD4680BD80B483B000AF786000BFCC
:1038D0000C37BD465DF8047B704780B582B000AF01
:1038E00078607B681B681B6903F00203022B22D1FE
:1038F0007B681B68DB6803F00203022B1BD17B682B
:103900001B686FF002021A617B6801221A777B68DC
:103910001B689B6903F00303002B03D0786800F059
:1039200024FB05E0786800F016FB786800F027FBC0
:103930007B6800221A777B681B681B6903F004030D
:10394000042B22D17B681B68DB6803F00403042B83
:103950001BD17B681B686FF004021A617B6802222E
:103960001A777B681B689B6903F44073002B03D0B4
:10397000786800F0FAFA05E0786800F0ECFA786808
:1039800000F0FDFA7B6800221A777B681B681B69D0
:1039900003F00803082B22D17B681B68DB6803F067
:1039A0000803082B1BD17B681B686FF008021A61A3
:1039B0007B6804221A777B681B68DB6903F00303CA
:1039C000002B03D0786800F0D0FA05E0786800F0AA
:1039D000C2FA786800F0D3FA7B6800221A777B6815
:1039E0001B681B6903F01003102B22D17B681B6836
:1039F000DB6803F01003102B1BD17B681B686FF092
:103A000010021A617B6808221A777B681B68DB69E1
:103A100003F44073002B03D0786800F0A6FA05E0A9
:103A2000786800F098FA786800F0A9FA7B680022BC
:103A30001A777B681B681B6903F00103012B0ED109
:103A40007B681B68DB6803F00103012B07D17B68EF
:103A50001B686FF001021A61786800F072FA7B68E7
:103A60001B681B6903F08003802B0ED17B681B68E9
:103A7000DB6803F08003802B07D17B681B686FF045
:103A800080021A61786801F0D1F87B681B681B69B5
:103A900003F48073B3F5807F0ED17B681B68DB680D
:103AA00003F08003802B07D17B681B686FF4807262
:103AB0001A61786801F0C4F87B681B681B6903F021
:103AC0004003402B0ED17B681B68DB6803F040038A
:103AD000402B07D17B681B686FF040021A61786841
:103AE00000F057FA7B681B681B6903F02003202B4A
:103AF0000ED17B681B68DB6803F02003202B07D105
:103B00007B681B686FF020021A61786801F084F806
:103B100000BF0837BD4680BD80B584B000AFF860F7
:103B2000B9607A60FB6893F83C30012B01D1022325
:103B30006CE0FB68012283F83C20FB68022283F8DA
:103B40003D207B68142B57D801A252F823F000BF08
:103B5000A53B0008F93B0008F93B0008F93B0008C9
:103B6000B33B0008F93B0008F93B0008F93B0008AB
:103B7000C13B0008F93B0008F93B0008F93B00088D
:103B8000CF3B0008F93B0008F93B0008F93B00086F
:103B9000DD3B0008F93B0008F93B0008F93B000851
:103BA000EB3B0008FB681B68B968184600F096FA02
:103BB00023E0FB681B68B968184600F01FFB1CE097
:103BC000FB681B68B968184600F0A2FB15E0FB68AB
:103BD0001B68B968184600F023FC0EE0FB681B6800
:103BE000B968184600F086FC07E0FB681B68B968F6
:103BF000184600F0E3FC00E000BFFB68012283F8F8
:103C00003D20FB68002283F83C2000231846103733
:103C1000BD4680BD80B584B000AFF860B9607A6001
:103C2000FB6893F83C30012B01D102238AE0FB684A
:103C3000012283F83C20FB68022283F83D207B6848
:103C4000002B1BD1FB681868BB681968BB685A68F1
:103C5000BB68DB6800F0A0FDFB681B68FA681268AF
:103C6000926922F00C029A61FB681B68FA6812687C
:103C70009169BA6892680A439A615AE07B68042B9A
:103C80001CD1FB681868BB681968BB685A68BB68B8
:103C9000DB6800F01EFEFB681B68FA681268926918
:103CA00022F440629A61FB681B68FA6812689169A5
:103CB000BA68926812020A439A613AE07B68082B5C
:103CC0001BD1FB681868BB681968BB685A68BB6879
:103CD000DB6800F06BFEFB681B68FA681268D2694B
:103CE00022F00C02DA61FB681B68FA681268D1697D
:103CF000BA6892680A43DA611BE0FB681868BB681F
:103D00001968BB685A68BB68DB6800F08BFEFB680B
:103D10001B68FA681268D26922F44062DA61FB68B3
:103D20001B68FA681268D169BA68926812020A437D
:103D3000DA61FB68012283F83D20FB68002283F8EA
:103D40003C20002318461037BD4680BD80B584B0A6
:103D500000AF786039607B6893F83C30012B01D16B
:103D60000223A8E07B68012283F83C207B680222C2
:103D700083F83D207B681B689B68FB60FB6823F42D
:103D8000803323F07703FB60FB6823F47F43FB6001
:103D90007B681B68FA689A603B681B68402B67D099
:103DA000402B0BD8102B73D0102B02D8002B6FD0C8
:103DB00078E0202B6CD0302B6AD073E0702B0DD0C4
:103DC000702B04D8502B33D0602B41D06AE0B3F570
:103DD000805F66D0B3F5005F17D063E07B6818683A
:103DE0003B6899683B685A683B68DB6800F072FE84
:103DF0007B681B689B68FB60FB6843F07703FB6094
:103E00007B681B68FA689A604CE07B6818683B68BE
:103E100099683B685A683B68DB6800F05BFE7B682A
:103E20001B687A681268926842F480429A6039E0AE
:103E30007B6818683B6859683B68DB681A4600F085
:103E400019FD7B681B685021184600F028FE29E008
:103E50007B6818683B6859683B68DB681A4600F065
:103E600075FD7B681B686021184600F018FE19E09C
:103E70007B6818683B6859683B68DB681A4600F045
:103E8000F9FC7B681B684021184600F008FE09E039
:103E90007B681A683B681B681946104600F0FFFDF6
:103EA00000E000BF7B68012283F83D207B68002290
:103EB00083F83C20002318461037BD4680BD80B5EE
:103EC00082B000AF786039607B6893F83C30012B9A
:103ED00001D1022331E07B68012283F83C207B681A
:103EE000022283F83D203968786800F0CDFB034654
:103EF000002B09D07B68012283F83D207B680022DB
:103F000083F83C20012318E07B681B687A681268FC
:103F1000D26822F04002DA607B681B687A68126817
:103F2000D26822F48042DA607B68012283F83D2067
:103F30007B68002283F83C20002318460837BD46E2
:103F400080BD80B483B000AF786000BF0C37BD4641
:103F50005DF8047B704780B483B000AF786000BF29
:103F60000C37BD465DF8047B704780B483B000AF6A
:103F7000786000BF0C37BD465DF8047B704780B4A5
:103F800083B000AF786000BF0C37BD465DF8047B9E
:103F9000704780B483B000AF786000BF0C37BD4677
:103FA0005DF8047B7047000080B485B000AF786096
:103FB00039607B681B68FB607B68404A934213D082
:103FC0007B68B3F1804F0FD07B683D4A93420BD0A2
:103FD0007B683C4A934207D07B683B4A934203D0BC
:103FE0007B683A4A934208D1FB6823F07003FB6078
:103FF0003B685B68FA681343FB607B682F4A934217
:104000001FD07B68B3F1804F1BD07B682C4A934252
:1040100017D07B682B4A934213D07B682A4A93427D
:104020000FD07B68294A93420BD07B68284A934281
:1040300007D07B68274A934203D07B68264A934285
:1040400008D1FB6823F44073FB603B68DB68FA68C7
:104050001343FB60FB6823F080023B685B691343FA
:10406000FB607B68FA681A603B689A687B68DA6272
:104070003B681A687B689A627B68104A93420FD04B
:104080007B68124A93420BD07B68114A934207D057
:104090007B68104A934203D07B680F4A934203D156
:1040A0003B681A697B681A637B6801225A6100BF0A
:1040B0001437BD465DF8047B704700BF002C0140FB
:1040C0000004004000080040000C004000340140A3
:1040D00000400140004401400048014080B487B0E6
:1040E00000AF786039607B681B6A23F001027B684F
:1040F0001A627B681B6A7B617B685B683B617B68DB
:104100009B69FB60FB6823F4803323F07003FB6042
:10411000FB6823F00303FB603B681B68FA681343EA
:10412000FB607B6923F002037B613B689B687A69D3
:1041300013437B617B682C4A93420FD07B682B4AE8
:1041400093420BD07B682A4A934207D07B68294A66
:10415000934203D07B68284A93420CD17B6923F0B9
:1041600008037B613B68DB687A6913437B617B6989
:1041700023F004037B617B681B4A93420FD07B686A
:104180001A4A93420BD07B68194A934207D07B6846
:10419000184A934203D07B68174A934211D13B6976
:1041A00023F480733B613B6923F400733B613B68FC
:1041B0005B693A6913433B613B689B693A69134306
:1041C0003B617B683A695A607B68FA689A613B6830
:1041D0005A687B685A637B687A691A6200BF1C3729
:1041E000BD465DF8047B7047002C0140003401405F
:1041F00000400140004401400048014080B487B0C5
:1042000000AF786039607B681B6A23F010027B681E
:104210001A627B681B6A7B617B685B683B617B68B9
:104220009B69FB60FB6823F0807323F4E043FB6031
:10423000FB6823F44073FB603B681B681B02FA6851
:104240001343FB607B6923F020037B613B689B6821
:104250001B017A6913437B617B68284A934203D030
:104260007B68274A93420DD17B6923F080037B61F1
:104270003B68DB681B017A6913437B617B6923F030
:1042800040037B617B681D4A93420FD07B681C4AC8
:1042900093420BD07B681B4A934207D07B681A4A33
:1042A000934203D07B68194A934213D13B6923F4AC
:1042B00080633B613B6923F400633B613B685B695E
:1042C0009B003A6913433B613B689B699B003A69D9
:1042D00013433B617B683A695A607B68FA689A616C
:1042E0003B685A687B689A637B687A691A6200BF88
:1042F0001C37BD465DF8047B704700BF002C0140B1
:1043000000340140004001400044014000480140A9
:1043100080B487B000AF786039607B681B6A23F493
:1043200080727B681A627B681B6A7B617B685B6852
:104330003B617B68DB69FB60FB6823F4803323F01F
:104340007003FB60FB6823F00303FB603B681B68A2
:10435000FA681343FB607B6923F400737B613B685D
:104360009B681B027A6913437B617B68274A9342EF
:1043700003D07B68264A93420DD17B6923F4006306
:104380007B613B68DB681B027A6913437B617B6955
:1043900023F480637B617B681C4A93420FD07B6867
:1043A0001B4A93420BD07B681A4A934207D07B6822
:1043B000194A934203D07B68184A934213D13B6950
:1043C00023F480533B613B6923F400533B613B681A
:1043D0005B691B013A6913433B613B689B691B01A5
:1043E0003A6913433B617B683A695A607B68FA68B3
:1043F000DA613B685A687B68DA637B687A691A62BB
:1044000000BF1C37BD465DF8047B7047002C01409F
:104410000034014000400140004401400048014098
:1044200080B487B000AF786039607B681B6A23F482
:1044300080527B681A627B681B6A3B617B685B68A1
:104440007B617B68DB69FB60FB6823F0807323F48E
:10445000E043FB60FB6823F44073FB603B681B6830
:104460001B02FA681343FB603B6923F400533B6172
:104470003B689B681B033A6913433B617B68184A9E
:1044800093420FD07B68174A93420BD07B68164A41
:10449000934207D07B68154A934203D07B68144A45
:1044A000934209D17B6923F480437B613B685B695C
:1044B0009B017A6913437B617B687A695A607B68E8
:1044C000FA68DA613B685A687B681A647B683A6903
:1044D0001A6200BF1C37BD465DF8047B704700BF01
:1044E000002C0140003401400040014000440140E4
:1044F0000048014080B487B000AF786039607B68C5
:104500001B6A23F480327B681A627B681B6A3B61FA
:104510007B685B687B617B685B6DFB60FB6823F499
:10452000803323F07003FB603B681B68FA68134319
:10453000FB603B6923F400333B613B689B681B04D1
:104540003A6913433B617B68174A93420FD07B68FB
:10455000164A93420BD07B68154A934207D07B687A
:10456000144A934203D07B68134A934209D17B6972
:1045700023F480337B613B685B691B027A691343D8
:104580007B617B687A695A607B68FA685A653B6828
:104590005A687B689A657B683A691A6200BF1C3763
:1045A000BD465DF8047B7047002C0140003401409B
:1045B00000400140004401400048014080B487B001
:1045C00000AF786039607B681B6A23F480127B68D7
:1045D0001A627B681B6A3B617B685B687B617B68F6
:1045E0005B6DFB60FB6823F0807323F4E043FB60AA
:1045F0003B681B681B02FA681343FB603B6923F4AA
:1046000000133B613B689B681B053A6913433B61A0
:104610007B68184A93420FD07B68174A93420BD0AD
:104620007B68164A934207D07B68154A934203D0B1
:104630007B68144A934209D17B6923F480237B6110
:104640003B685B699B027A6913437B617B687A698B
:104650005A607B68FA685A653B685A687B68DA6515
:104660007B683A691A6200BF1C37BD465DF8047B5F
:10467000704700BF002C0140003401400040014061
:10468000004401400048014080B586B000AF78602A
:1046900039607B681B689B687B617B6923F07003D2
:1046A0007B613B685B687A6913437B617B6923F4B8
:1046B000803323F007037B613B681B687A691343EF
:1046C0007B617B681B687A699A603B685B68302B0A
:1046D0005CD0302B06D8102B58D0202B56D0002B76
:1046E00054D054E0502B3DD0502B02D8402B10D04A
:1046F0004DE0602B40D0702B00D048E07B681868FC
:104700003B68D9683B689A683B681B6900F0E2F92E
:104710003DE03B681B68052B01D1012338E07B6835
:104720001B681B6A3B617B681B687A681268126AA7
:1047300022F001021A627B681B689B69FB60FB68C0
:1047400023F0F003FB603B681B691B01FA6813430D
:10475000FB607B681B68FA689A617B681B683A6932
:104760001A6214E07B6818683B6899683B681B69AB
:104770001A4600F07FF80AE07B6818683B68996881
:104780003B681B691A4600F0E1F800E000BF002317
:1047900018461837BD4680BD80B487B000AFF860BA
:1047A000B9607A603B60FB681B6A23F00102FB681A
:1047B0001A62FB689B697B61FB681B6A3B61FB6853
:1047C000264A934217D0FB68B3F1804F13D0FB68A1
:1047D000234A93420FD0FB68224A93420BD0FB68D6
:1047E000214A934207D0FB68204A934203D0FB68DA
:1047F0001F4A934201D1012300E00023002B08D07F
:104800007B6923F003037B617A697B6813437B61D7
:1048100003E07B6943F001037B617B6923F0F003D4
:104820007B613B681B01DBB27A6913437B613B69A7
:1048300023F00A033B61BB6803F00A033A691343A0
:104840003B61FB687A699A61FB683A691A6200BF4A
:104850001C37BD465DF8047B704700BF002C01404B
:104860000004004000080040000C004000340140FB
:104870000040014080B487B000AFF860B9607A6052
:10488000FB681B6A7B61FB681B6A23F00102FB6803
:104890001A62FB689B693B613B6923F0F0033B6153
:1048A0007B681B013A6913433B617B6923F00A0370
:1048B0007B617A69BB6813437B61FB683A699A61E3
:1048C000FB687A691A6200BF1C37BD465DF8047B3D
:1048D000704780B487B000AFF860B9607A603B6021
:1048E000FB681B6A23F01002FB681A62FB689B6975
:1048F0007B61FB681B6A3B617B6923F440737B61CE
:104900007B681B027A6913437B617B6923F47043E4
:104910007B613B681B039BB27A6913437B613B69F4
:1049200023F0A0033B61BB681B0103F0A0033A69BD
:1049300013433B61FB687A699A61FB683A691A62C2
:1049400000BF1C37BD465DF8047B704780B487B05C
:1049500000AFF860B9607A60FB681B6A23F0100250
:10496000FB681A62FB689B697B61FB681B6A3B61A1
:104970007B6923F470437B617B681B037A69134373
:104980007B613B6923F0A0033B61BB681B013A6973
:1049900013433B61FB687A699A61FB683A691A6262
:1049A00000BF1C37BD465DF8047B704780B487B0FC
:1049B00000AFF860B9607A603B60FB681B6A23F463
:1049C0008072FB681A62FB68DB697B61FB681B6AAB
:1049D0003B617B6923F003037B617A697B68134346
:1049E0007B617B6923F0F0037B613B681B01DBB2D9
:1049F0007A6913437B613B6923F420633B61BB68A5
:104A00001B0203F420633A6913433B61FB687A6934
:104A1000DA61FB683A691A6200BF1C37BD465DF86F
:104A2000047B704780B487B000AFF860B9607A60EB
:104A30003B60FB681B6A23F48052FB681A62FB68C8
:104A4000DB697B61FB681B6A3B617B6923F4407314
:104A50007B617B681B027A6913437B617B6923F46A
:104A600070437B613B681B039BB27A6913437B6194
:104A70003B6923F420433B61BB681B0303F42043E1
:104A80003A6913433B61FB687A69DA61FB683A690A
:104A90001A6200BF1C37BD465DF8047B704780B4C6
:104AA00085B000AF786039607B689B68FB60FB680D
:104AB00023F07003FB603A68FB68134343F007037D
:104AC000FB607B68FA689A6000BF1437BD465DF8EA
:104AD000047B704780B487B000AFF860B9607A603B
:104AE0003B60FB689B687B617B6923F47F437B6150
:104AF0003B681A027B681A43BB6813437A69134305
:104B00007B61FB687A699A6000BF1C37BD465DF81F
:104B1000047B704780B487B000AFF860B9607A60FA
:104B2000BB6803F01F03012202FA03F37B61FB68F9
:104B30001A6A7B69DB431A40FB681A62FB681A6ACF
:104B4000BB6803F01F03796801FA03F31A43FB689B
:104B50001A6200BF1C37BD465DF8047B7047000039
:104B600080B485B000AF786039607B6893F83C30E2
:104B7000012B01D1022345E07B68012283F83C2010
:104B80007B68022283F83D207B681B685B68FB60C2
:104B90007B681B689B68BB607B681B681C4A9342F0
:104BA00004D07B681B681B4A934208D1FB6823F43E
:104BB0007003FB603B685B68FA681343FB60FB684B
:104BC00023F07003FB603B681B68FA681343FB60CB
:104BD000BB6823F08003BB603B689B68BA681343E3
:104BE000BB607B681B68FA685A607B681B68BA68A0
:104BF0009A607B68012283F83D207B68002283F85D
:104C00003C20002318461437BD465DF8047B7047EE
:104C1000002C01400034014080B483B000AF7860C4
:104C200000BF0C37BD465DF8047B704780B483B08D
:104C300000AF786000BF0C37BD465DF8047B70475D
:104C400080B483B000AF786000BF0C37BD465DF81C
:104C5000047B704780B582B000AF78607B68002B22
:104C600001D1012340E07B685B6F002B06D17B689C
:104C7000002283F87020786802F00EFD7B68242201
:104C80005A677B681B687A681268126822F0010212
:104C90001A60786800F0C6FB0346012B01D101239E
:104CA00022E07B685B6A002B02D0786800F0F4FE9B
:104CB0007B681B687A681268526822F490425A60D6
:104CC0007B681B687A681268926822F02A029A60F0
:104CD0007B681B687A681268126842F001021A60E9
:104CE000786800F07BFF034618460837BD4680BD54
:104CF00080B582B000AF78607B68002B01D10123C2
:104D000027E07B6824225A677B681B687A681268F0
:104D1000126822F001021A607B681B6800221A6088
:104D20007B681B6800225A607B681B6800229A60BF
:104D3000786802F063FD7B680022DA677B680022F6
:104D40005A677B6800229A677B68002283F870208C
:104D5000002318460837BD4680BD80B58AB002AF33
:104D6000F860B9603B601346FB80FB689B6F202BAB
:104D700040F0BB80BB68002B02D0FB88002B01D128
:104D80000123B3E0FB6893F87030012B01D10223BB
:104D9000ACE0FB68012283F87020FB680022DA6730
:104DA000FB6822229A67FCF759F97861FB68FA8858
:104DB000A3F85820FB68FA88A3F85A20FB689B6880
:104DC000B3F5805F0ED1FB681B69002B05D1FB6832
:104DD00040F2FF12A3F85C202DE0FB68FF22A3F84D
:104DE0005C2028E0FB689B68002B0DD1FB681B69E9
:104DF000002B04D1FB68FF22A3F85C201BE0FB68BA
:104E00007F22A3F85C2016E0FB689B68B3F1805F0B
:104E10000DD1FB681B69002B04D1FB687F22A3F82E
:104E20005C2008E0FB683F22A3F85C2003E0FB68FD
:104E30000022A3F85C20FB68B3F85C307B82FB683F
:104E40009B68B3F5805F08D1FB681B69002B04D118
:104E50000023FB61BB68BB6103E0BB68FB6100230F
:104E6000BB6133E03B6800937B6900222021F86836
:104E700000F0F9FE0346002B01D0032336E0FB6966
:104E8000002B0CD1FB681B689B8C9AB27B8A134069
:104E90009AB2BB691A80BB690233BB610DE0FB6843
:104EA0001B689B8C9BB2DAB27B8ADBB21340DAB20E
:104EB000FB691A70FB690133FB61FB68B3F85A3078
:104EC0009BB2013B9AB2FB68A3F85A20FB68B3F887
:104ED0005A309BB2002BC5D1FB6820229A67FB6831
:104EE000002283F87020002300E0022318462037B8
:104EF000BD4680BD80B584B000AFF860B960134690
:104F0000FB80FB685B6F202B64D1BB68002B02D059
:104F1000FB88002B01D101235DE0FB6893F8703022
:104F2000012B01D1022356E0FB68012283F8702097
:104F3000FB68BA68DA64FB68FA88A3F85020FB685B
:104F4000FA88A3F85220FB680022DA67FB68212266
:104F50005A67FB689B6E002B2AD0FB689B6E204A29
:104F6000DA62FB689B6E1F4A1A63FB689B6E1E4ADF
:104F70005A63FB689B6E00229A63FB68986EFB681D
:104F8000DB6C1946FB681B6828331A46FB88FCF764
:104F900060FB0346002B0BD0FB681022DA67FB682E
:104FA000002283F87020FB6820225A67012312E058
:104FB000FB681B6840221A62FB68002283F870209D
:104FC000FB681B68FA681268926842F080029A6077
:104FD000002300E0022318461037BD4680BD00BF05
:104FE000615D0008B55D0008555E000880B584B0BD
:104FF00000AFF860B9601346FB80FB689B6F202B05
:105000006CD1BB68002B02D0FB88002B01D101239F
:1050100065E0FB6893F87030012B01D102235EE05C
:10502000FB68012283F87020FB68BA685A65FB6848
:10503000FA88A3F85820FB680022DA67FB6822226E
:105040009A67FB68DB6E002B2AD0FB68DB6E264A72
:10505000DA62FB68DB6E254A1A63FB68DB6E244A62
:105060005A63FB68DB6E00229A63FB68D86EFB68AC
:105070001B6824331946FB685B6D1A46FB88FCF7F6
:10508000E8FA0346002B0BD0FB681022DA67FB68B6
:10509000002283F87020FB6820225A6701231EE05B
:1050A000FB68002283F87020FB681B68FA681268AE
:1050B000126842F480721A60FB681B68FA68126812
:1050C000926842F001029A60FB681B68FA681268F5
:1050D000926842F040029A60002300E002231846E2
:1050E0001037BD4680BD00BFD15D0008395E0008A5
:1050F000555E000880B485B000AF78607B685B6F58
:10510000FB607B689B6FBB607B6893F87030012B02
:1051100001D102233CE07B68012283F870207B6888
:105120001B689B6803F08003802B0AD1FB68212B4E
:1051300007D17B681B687A681268926822F0800247
:105140009A607B681B689B6803F04003402B1AD170
:10515000BB68222B17D17B681B687A6812681268BB
:1051600022F480721A607B681B687A681268926801
:1051700022F001029A607B681B687A681268926864
:1051800022F040029A607B68002283F8702000239E
:1051900018461437BD465DF8047B704780B483B071
:1051A00000AF78607B6893F87030012B01D1022347
:1051B00034E07B68012283F870207B685B6F212BD1
:1051C00007D17B681B687A681268926842F0800297
:1051D0009A607B689B6F222B1BD17B681B6808221F
:1051E0001A627B681B687A681268126842F48072DF
:1051F0001A607B681B687A681268926842F0010244
:105200009A607B681B687A681268926842F0400274
:105210009A607B68002283F87020002318460C37C0
:10522000BD465DF8047B704780B584B000AF786000
:105230007B685B6FFB607B689B6FBB607B681B68F8
:105240009B6803F08003802B26D1FB68212B23D1A0
:105250007B681B687A681268926822F080029A6004
:105260007B689B6E002B14D07B689B6E1846FCF706
:1052700050FA0346002B0CD07B689B6E1846FCF757
:1052800076FB0346202B04D17B681022DA670323C8
:1052900031E0786800F02FFD7B681B689B6803F0A5
:1052A0004003402B26D1BB68222B23D17B681B688F
:1052B0007A681268926822F040029A607B68DB6E1E
:1052C000002B14D07B68DB6E1846FCF722FA0346ED
:1052D000002B0CD07B68DB6E1846FCF748FB0346BE
:1052E000202B04D17B681022DA67032303E078685F
:1052F00000F016FD002318461037BD4680BD0000A3
:1053000080B582B000AF78607B681B687A681268ED
:10531000126822F0C0021A607B681B689B6803F069
:105320008003802B2DD17B681B687A681268926895
:1053300022F080029A607B689B6E002B13D07B6802
:105340009B6E194A9A637B689B6E1846FCF71FFA9E
:105350000346002B22D07B689B6E9B6B7A68926E13
:10536000104698471AE07B680022A3F852207B6819
:1053700000225A667B6820225A67786800F048F855
:105380000CE07B680022A3F852207B6800225A665A
:105390007B6820225A67786800F03AF800231846A4
:1053A0000837BD4680BD00BFCD5E000880B483B025
:1053B00000AF786000BF0C37BD465DF8047B7047D6
:1053C00080B483B000AF786000BF0C37BD465DF895
:1053D000047B704780B483B000AF786000BF0C37A7
:1053E000BD465DF8047B704780B483B000AF786041
:1053F00000BF0C37BD465DF8047B704780B483B0B6
:1054000000AF786000BF0C37BD465DF8047B704785
:1054100080B483B000AF786000BF0C37BD465DF844
:10542000047B70472DE9B04388B000AF786000235B
:105430007B610023FB740023FB607B689A687B68B8
:105440001B691A437B685B691A437B68DB691343FA
:10545000FB617B681A687B681B681968AB4B0B4063
:10546000F9690B4313607B681B687A68126852689D
:1054700022F440517A68D2680A435A607B689B697B
:10548000FB617B681B68A24A934204D07B681B6A5D
:10549000FA691343FB617B681B687A68126892683B
:1054A00022F43061FA690A439A607B681B68994A62
:1054B000934221D1984BD3F8883003F00303032B98
:1054C00016D801A252F823F0D9540008E554000878
:1054D000DF540008EB5400080123FB76E8E00223C8
:1054E000FB76E5E00423FB76E2E00823FB76DFE0D1
:1054F0001023FB7600BFDBE07B681B68874A934282
:1055000034D1854BD3F8883003F00C030C2B29D809
:1055100001A252F823F000BF4D5500086555000860
:10552000655500086555000859550008655500087F
:105530006555000865550008535500086555000875
:1055400065550008655500085F5500080023FB7687
:10555000AEE00223FB76ABE00423FB76A8E0082351
:10556000FB76A5E01023FB7600BFA1E07B681B68FB
:105570006B4A934220D1684BD3F8883003F0300354
:10558000102B0FD0102B02D8002B05D010E0202BB1
:1055900005D0302B09D00BE00023FB7688E00223F6
:1055A000FB7685E00423FB7682E00823FB767FE030
:1055B0001023FB7600BF7BE07B681B68594A93424F
:1055C00020D1554BD3F8883003F0C003402B0FD0C7
:1055D000402B02D8002B05D010E0802B05D0C02B2B
:1055E00009D00BE00023FB7662E00223FB765FE04C
:1055F0000423FB765CE00823FB7659E01023FB765E
:1056000000BF55E07B681B68474A934224D1424B58
:10561000D3F8883003F44073B3F5807F12D0B3F52C
:10562000807F02D8002B07D012E0B3F5007F06D0B0
:10563000B3F5407F09D00BE00023FB7638E002236E
:10564000FB7635E00423FB7632E00823FB762FE07F
:105650001023FB7600BF2BE07B681B682C4A93422B
:1056600024D12D4BD3F8883003F44063B3F5806F19
:1056700012D0B3F5806F02D8002B07D012E0B3F53B
:10568000006F06D0B3F5406F09D00BE00023FB7626
:105690000EE00223FB760BE00423FB7608E00823F0
:1056A000FB7605E01023FB7600BF01E01023FB76BC
:1056B0007B681B68164A934240F0ED80FB7E082B06
:1056C00036D801A252F823F0ED56000831570008F1
:1056D000F556000831570008FB56000831570008FE
:1056E000315700083157000803570008FDF7D6F975
:1056F000F86020E00D4BFB601DE0FDF739F9F86024
:1057000019E04FF40043FB6015E000BFF369FFEFC1
:10571000008000400038014000100240004400407A
:1057200000480040004C0040005000400024F400BD
:105730000123FB7400BFFB68002B00F09E817B6897
:105740005A6813465B001A44FB689A4205D87B6886
:105750005B681A03FB689A4202D20123FB748CE156
:10576000FB7E082B00F2848001A252F823F000BFD8
:105770009557000871580008D5570008715800085F
:10578000095800087158000871580008715800083D
:1057900047580008FDF782F903464FF000044FEA2E
:1057A000042949EA13694FEA03287B685B685B08B0
:1057B0004FF0000418EB030049EB04017B685B68C1
:1057C0004FF000041A462346FBF754FA03460C46F2
:1057D0007B6150E07B685B685B084FF00004AD497B
:1057E0004FF0000213EB010844EB02094046494622
:1057F0007B685B684FF000041A462346FBF73AFAD1
:1058000003460C467B6136E0FDF7B2F803461A46C4
:105810004FF000031D0245EA126514027B685B68C5
:105820005B081A464FF00003A01845EB03017B68A4
:105830005B684FF000041A462346FBF71BFA034649
:105840000C467B6117E07B685B685B084FF00004E7
:1058500013F5000044F100017B685B684FF0000421
:105860001A462346FBF706FA03460C467B6102E024
:105870000123FB7400BF7B69B3F5407F08D37B69CC
:10588000B3F5801F04D27B681B687A69DA60F4E0A4
:105890000123FB74F1E07B68DB69B3F5004F7ED137
:1058A000FB7E082B5BD801A252F823F0D1580008E8
:1058B000EF5800080D5900085F59000829590008E1
:1058C0005F5900085F5900085F59000847590008F0
:1058D000FDF7E4F803465A007B685B685B081A44EE
:1058E0007B685B68B2FBF3F39BB27B613AE0FDF748
:1058F000EBF803465A007B685B685B081A447B68D8
:105900005B68B2FBF3F39BB27B612BE07B685B6867
:105910005B0803F1F47303F590437A685268B3FBB4
:10592000F2F39BB27B611DE0FDF722F803465A00BB
:105930007B685B685B081A447B685B68B2FBF3F3C7
:105940009BB27B610EE07B685B685B0803F580328D
:105950007B685B68B2FBF3F39BB27B6102E00123DF
:10596000FB7400BF7B690F2B16D97B69B3F5803FB1
:1059700012D27B699BB223F00F037B817B695B08AA
:105980009BB203F007039AB27B8913437B817B6848
:105990001B687A89DA6070E00123FB746DE0FB7E9E
:1059A000082B59D801A252F823F000BFD1590008A2
:1059B000ED590008095A0008595A0008255A0008EC
:1059C000595A0008595A0008595A0008415A000803
:1059D000FDF764F802467B685B685B081A447B68E5
:1059E0005B68B2FBF3F39BB27B6138E0FDF76CF8C8
:1059F00002467B685B685B081A447B685B68B2FBA5
:105A0000F3F39BB27B612AE07B685B685B0803F57C
:105A1000740303F510537A685268B3FBF2F39BB238
:105A20007B611CE0FCF7A4FF02467B685B685B08B7
:105A30001A447B685B68B2FBF3F39BB27B610EE0B8
:105A40007B685B685B0803F500427B685B68B2FBC0
:105A5000F3F39BB27B6102E00123FB7400BF7B691F
:105A60000F2B08D97B69B3F5803F04D27B681B6894
:105A70007A69DA6001E00123FB747B6800221A6610
:105A80007B6800225A66FB7C18462037BD46BDE87D
:105A9000B08300BF000024F480B483B000AF78600E
:105AA0007B685B6A03F00103002B0AD07B681B68EC
:105AB0007A681268526822F400317A68926A0A435E
:105AC0005A607B685B6A03F00203002B0AD07B6894
:105AD0001B687A681268526822F480317A68D26A48
