:020000040800F2
:1000000000800120B13D0008213C00082F3C000881
:10001000353C00083B3C0008413C00080000000063
:10002000000000000000000000000000473C000845
:10003000553C000800000000633C0008713C0008CB
:10004000013E0008013E0008013E0008013E000894
:10005000013E0008013E0008013E0008013E000884
:10006000013E0008013E0008013E0008D13C0008A6
:10007000013E0008013E0008013E0008013E000864
:10008000013E0008013E0008013E0008013E000854
:10009000013E0008013E0008013E0008013E000844
:1000A000013E0008013E0008013E0008013E000834
:1000B0007D3C0008013E0008013E0008013E0008AA
:1000C000013E0008013E0008013E0008013E000814
:1000D000013E0008013E0008013E0008013E000804
:1000E000013E0008013E0008013E0008013E0008F4
:1000F000013E0008013E0008013E0008013E0008E4
:10010000013E0008013E0008013E0008013E0008D3
:10011000953C0008013E0008013E0008013E000831
:10012000013E0008013E0008A93C0008013E00080D
:10013000BD3C0008013E0008013E0008013E0008E9
:10014000013E0008013E0008013E0008013E000893
:10015000013E0008013E0008013E0008013E000883
:10016000013E0008013E0008013E0008013E000873
:10017000013E0008013E0008013E000800000000AA
:08018000013E0008013E0008E9
:1001900010B5054C237833B9044B13B10448AFF3C1
:1001A00000800123237010BD280200200000000001
:1001B0003073000808B5034B1BB103490348AFF384
:1001C000008008BD000000002C02002030730008F1
:1001D00010F8012B11F8013B012A28BF9A42F7D0F1
:1001E000D01A7047034613F8012B002AFBD1181AC6
:1001F000013870470000000000000000000000000F
:1002000001F0FF01102A2BDB10F0070F08D010F8C7
:10021000013B013A8B422DD010F0070F42B3F6D1CB
:10022000F0B441EA012141EA014122F007047FF0E4
:1002300000070023F0E80256083C85EA010586EA3B
:10024000010685FA47F5A3FA87F586FA47F6A5FA77
:1002500087F68EB9EED1F0BC01F0FF0102F0070283
:1002600032B110F8013B013A83EA010313B1F8D12E
:100270000020704701387047002D06BF354603380F
:10028000073815F0010F07D1013015F4807F02BF48
:10029000013015F4C03F0130F0BC0138704700BF99
:1002A00081F0004102E000BF83F0004330B54FEA27
:1002B00041044FEA430594EA050F08BF90EA020F94
:1002C0001FBF54EA000C55EA020C7FEA645C7FEA27
:1002D000655C00F0E2804FEA5454D4EB5555B8BF4A
:1002E0006D420CDD2C4480EA020281EA030382EABB
:1002F000000083EA010180EA020281EA0303362D4D
:1003000088BF30BD11F0004F4FEA01314FF4801C1F
:100310004CEA113102D0404261EB410113F0004F31
:100320004FEA03334CEA133302D0524263EB4303E8
:1003300094EA050F00F0A780A4F10104D5F1200E86
:100340000DDB02FA0EFC22FA05F2801841F10001E1
:1003500003FA0EF2801843FA05F359410EE0A5F1B5
:1003600020050EF1200E012A03FA0EFC28BF4CF0E6
:10037000020C43FA05F3C01851EBE37101F000459C
:1003800007D54FF0000EDCF1000C7EEB00006EEBA9
:100390000101B1F5801F1BD3B1F5001F0CD3490833
:1003A0005FEA30004FEA3C0C04F101044FEA44528A
:1003B00012F5800F80F09A80BCF1004F08BF5FEA11
:1003C000500C50F1000041EB045141EA050130BDF1
:1003D0005FEA4C0C404141EB010111F4801FA4F194
:1003E0000104E9D191F0000F04BF01460020B1FAE9
:1003F00081F308BF2033A3F10B03B3F120020CDA21
:100400000C3208DD02F1140CC2F10C0201FA0CF0FE
:1004100021FA02F10CE002F11402D8BFC2F1200C63
:1004200001FA02F120FA0CFCDCBF41EA0C01904019
:10043000E41AA2BF01EB0451294330BD6FEA040462
:100440001F3C1CDA0C340EDC04F11404C4F120024D
:1004500020FA04F001FA02F340EA030021FA04F35F
:1004600045EA030130BDC4F10C04C4F1200220FAB6
:1004700002F001FA04F340EA0300294630BD21FAF4
:1004800004F0294630BD94F0000F83F4801306BFBA
:1004900081F480110134013D4EE77FEA645C18BFAE
:1004A0007FEA655C29D094EA050F08BF90EA020F45
:1004B00005D054EA000C04BF1946104630BD91EA3D
:1004C000030F1EBF0021002030BD5FEA545C05D140
:1004D0004000494128BF41F0004130BD14F580047F
:1004E0003CBF01F5801130BD01F0004545F0FE41F3
:1004F00041F470014FF0000030BD7FEA645C1ABF28
:10050000194610467FEA655C1CBF0B46024650EA5E
:10051000013406BF52EA033591EA030F41F400218A
:1005200030BD00BF90F0000F04BF0021704730B510
:100530004FF4806404F132044FF000054FF00001E5
:1005400050E700BF90F0000F04BF0021704730B5A6
:100550004FF4806404F1320410F0004548BF40427B
:100560004FF000013EE700BF42004FEAE2014FEAD0
:1005700031014FEA02701FBF12F07F4393F07F4FAB
:1005800081F06051704792F0000F14BF93F07F4FDD
:10059000704730B54FF4607401F0004521F0004120
:1005A00020E700BF50EA010208BF704730B54FF0A6
:1005B00000050AE050EA010208BF704730B511F0AB
:1005C000004502D5404261EB41014FF4806404F1E3
:1005D00032045FEA915C3FF4DCAE4FF003025FEA65
:1005E000DC0C18BF03325FEADC0C18BF033202EBED
:1005F000DC02C2F1200300FA03FC20FA02F001FA47
:1006000003FE40EA0E0021FA02F11444C1E600BFE5
:1006100070B54FF0FF0C4CF4E06C1CEA11541DBF98
:100620001CEA135594EA0C0F95EA0C0F00F0DEF863
:100630002C4481EA030621EA4C5123EA4C5350EA48
:10064000013518BF52EA033541F4801143F4801399
:1006500038D0A0FB02CE4FF00005E1FB02E506F02A
:100660000042E0FB03E54FF00006E1FB03569CF07F
:10067000000F18BF4EF0010EA4F1FF04B6F5007F85
:1006800064F5407404D25FEA4E0E6D4146EB0606F7
:1006900042EAC62141EA55514FEAC52040EA5E5080
:1006A0004FEACE2EB4F1FD0C88BFBCF5E06F1ED82A
:1006B000BEF1004F08BF5FEA500E50F1000041EB61
:1006C000045170BD06F0004646EA010140EA02000E
:1006D00081EA0301B4EB5C04C2BFD4EB0C0541EA30
:1006E000045170BD41F480114FF0000E013C00F345
:1006F000AB8014F1360FDEBF002001F0004170BD69
:10070000C4F10004203C35DA0C341BDC04F1140481
:10071000C4F1200500FA05F320FA04F001FA05F20D
:1007200040EA020001F0004221F0004110EBD370DA
:1007300021FA04F642EB06015EEA430E08BF20EA06
:10074000D37070BDC4F10C04C4F1200500FA04F3A9
:1007500020FA05F001FA04F240EA020001F000413B
:1007600010EBD37041F100015EEA430E08BF20EAAE
:10077000D37070BDC4F1200500FA05F24EEA020EF6
:1007800020FA04F301FA05F243EA020321FA04F025
:1007900001F0004121FA04F220EA020000EBD370DC
:1007A0005EEA430E08BF20EAD37070BD94F0000FDC
:1007B0000FD101F00046400041EB010111F4801F10
:1007C00008BF013CF7D041EA060195F0000F18BFC1
:1007D000704703F00046520043EB030313F4801FFD
:1007E00008BF013DF7D043EA0603704794EA0C0FB7
:1007F0000CEA135518BF95EA0C0F0CD050EA4106CD
:1008000018BF52EA4306D1D181EA030101F0004149
:100810004FF0000070BD50EA410606BF1046194671
:1008200052EA430619D094EA0C0F02D150EA01367D
:1008300013D195EA0C0F05D152EA03361CBF1046BE
:1008400019460AD181EA030101F0004141F0FE415D
:1008500041F470014FF0000070BD41F0FE4141F4E1
:10086000780170BD70B54FF0FF0C4CF4E06C1CEAE1
:1008700011541DBF1CEA135594EA0C0F95EA0C0F96
:1008800000F0A7F8A4EB050481EA030E52EA033551
:100890004FEA013100F088804FEA03334FF0805572
:1008A00045EA131343EA12634FEA022245EA11159F
:1008B00045EA10654FEA00260EF000419D4208BF50
:1008C000964244F1FD0404F5407402D25B084FEAFD
:1008D0003202B61A65EB03055B084FEA32024FF4A9
:1008E00080104FF4002CB6EB020E75EB030E22BF06
:1008F000B61A754640EA0C005B084FEA3202B6EBC6
:10090000020E75EB030E22BFB61A754640EA5C0074
:100910005B084FEA3202B6EB020E75EB030E22BF04
:10092000B61A754640EA9C005B084FEA3202B6EB05
:10093000020E75EB030E22BFB61A754640EADC00C4
:1009400055EA060E18D04FEA051545EA16754FEA26
:1009500006164FEAC30343EA52734FEAC2025FEA44
:100960001C1CC0D111F4801F0BD141EA00014FF0D3
:1009700000004FF0004CB6E711F4801F04BF0143A4
:100980000020B4F1FD0C88BFBCF5E06F3FF6AFAEC0
:10099000B5EB030C04BFB6EB020C5FEA500C50F150
:1009A000000041EB045170BD0EF0004E4EEA1131D3
:1009B00014EB5C04C2BFD4EB0C0541EA045170BDDA
:1009C00041F480114FF0000E013C90E645EA060E1E
:1009D0008DE60CEA135594EA0C0F08BF95EA0C0F4C
:1009E0003FF43BAF94EA0C0F0AD150EA01347FF494
:1009F00034AF95EA0C0F7FF425AF104619462CE76B
:100A000095EA0C0F06D152EA03353FF4FDAE1046CD
:100A1000194622E750EA410618BF52EA43067FF41E
:100A2000C5AE50EA41047FF40DAF52EA43057FF4AE
:100A3000EBAE12E74FF0FF3C06E000BF4FF0010CB9
:100A400002E000BF4FF0010C4DF804CD4FEA410C1D
:100A50007FEA6C5C4FEA430C18BF7FEA6C5C1BD0EA
:100A600001B050EA410C0CBF52EA430C91EA030F6B
:100A700002BF90EA020F0020704710F1000F91EAC8
:100A8000030F58BF994208BF90422CBFD8176FEA96
:100A9000E37040F0010070474FEA410C7FEA6C5C64
:100AA00002D150EA013C07D14FEA430C7FEA6C5C6B
:100AB000D6D152EA033CD3D05DF8040B704700BF97
:100AC0008446104662468C461946634600E000BFE5
:100AD00001B5FFF7B7FF002848BF10F1000F01BDB7
:100AE0004DF808EDFFF7F4FF0CBF012000205DF882
:100AF00008FB00BF4DF808EDFFF7EAFF34BF012007
:100B000000205DF808FB00BF4DF808EDFFF7E0FF9F
:100B100094BF012000205DF808FB00BF4DF808EDF0
:100B2000FFF7CEFF94BF012000205DF808FB00BF57
:100B30004DF808EDFFF7C4FF34BF012000205DF839
:100B400008FB00BF4FEA410212F5001215D211D581
:100B50006FF47873B3EB625212D94FEAC12343F0BA
:100B6000004343EA505311F0004F23FA02F018BF3C
:100B7000404270474FF00000704750EA013005D105
:100B800011F0004008BF6FF0004070474FF00000C8
:100B9000704700BF4A0011D212F5001211D20DD5D4
:100BA0006FF47873B3EB62520ED44FEAC12343F073
:100BB000004343EA505323FA02F070474FF000001D
:100BC000704750EA013002D14FF0FF3070474FF0CC
:100BD000000070474FEA4102B2F1E04324BFB3F591
:100BE000001CDCF1FE5C0DD901F0004C4FEAC002A4
:100BF0004CEA5070B2F1004F40EB830008BF20F088
:100C00000100704711F0804F21D113F13872BCBF41
:100C100001F00040704741F480114FEA5252C2F196
:100C20001802C2F1200C10FA0CF320FA02F018BFDF
:100C300040F001004FEAC1234FEAD32303FA0CFC32
:100C400040EA0C0023FA02F34FEA4303CCE77FEAC1
:100C5000625307D150EA01331EBF4FF0FE4040F40B
:100C60004000704701F0004040F0FE4040F40000BA
:100C7000704700BF80B582B000AF0023FB710C4A03
:100C80000B4B1B6843F480731360032000F01AF9C8
:100C9000002000F00FF80346002B02D00123FB7167
:100CA00001E002F099FFFB7918460837BD4680BD88
:100CB0000020024080B584B000AF78600023FB7351
:100CC000164B1B68002B22D0154B1A68134B1B6860
:100CD0004FF47A71B1FBF3F3B2FBF3F3184600F073
:100CE00018F90346002B0FD17B680F2B09D800227F
:100CF00079684FF0FF3000F0F0F80A4A7B68136023
:100D000007E00123FB7304E00123FB7301E00123EF
:100D1000FB73FB7B18461037BD4680BD04000020E6
:100D20000C0000200000002080B400AF054B1A68C2
:100D3000054B1B681344034A136000BFBD465DF8B2
:100D4000047B7047780200200400002080B400AFCC
:100D5000034B1B681846BD465DF8047B704700BF17
:100D60007802002080B485B000AF78607B6803F023
:100D70000703FB600C4BDB68BB60BA684FF6FF03F0
:100D80001340BB60FB681A02BB68134343F0BF63A8
:100D900043F40033BB60044ABB68D36000BF143720
:100DA000BD465DF8047B704700ED00E080B400AF05
:100DB000044BDB681B0A03F007031846BD465DF8C9
:100DC000047B704700ED00E080B483B000AF0346C1
:100DD0003960FB7197F90730002B0ADB0D4997F951
:100DE00007303A68D2B21201D2B20B4483F8002322
:100DF0000AE00949FB7903F00F03043B3A68D2B2D9
:100E00001201D2B20B441A7600BF0C37BD465DF812
:100E1000047B704700E100E000ED00E080B489B0A1
:100E200000AFF860B9607A60FB6803F00703FB610C
:100E3000FB69C3F10703042B28BF0423BB61FB69D3
:100E40000433062B02D9FB69033B00E000237B61DE
:100E50000122BB6902FA03F35A1EBB681A407B6980
:100E60009A4001217B6901FA03F3591E7B680B400C
:100E7000134318462437BD465DF8047B70470000D5
:100E800080B582B000AF78607B68013BB3F1807FB2
:100E900001D301230FE00A4A7B68013B53600F2115
:100EA0004FF0FF30FFF790FF054B00229A60044B94
:100EB00007221A60002318460837BD4680BD00BFD0
:100EC00010E000E080B582B000AF78607868FFF78E
:100ED00049FF00BF0837BD4680BD80B586B000AF72
:100EE0000346B9607A60FB7300237B61FFF75EFF06
:100EF00078617A68B9687869FFF790FF024697F9D8
:100F00000F3011461846FFF75FFF00BF1837BD4688
:100F100080BD80B582B000AF78607868FFF7B0FF21
:100F2000034618460837BD4680BD80B586B000AF81
:100F3000F860B9607A603B600023FB75FB6893F84A
:100F40002430012B01D102232EE0FB68012283F81B
:100F50002420FB6893F82530DBB2012B1DD1FB6800
:100F6000022283F82520FB680022DA63FB681B68F5
:100F7000FA681268126822F001021A603B687A6807
:100F8000B968F86800F04EF9FB681B68FA681268E7
:100F9000126842F001021A6005E0FB68002283F843
:100FA00024200223FB75FB7D18461837BD4680BD03
:100FB00080B485B000AF78600023FB737B6893F842
:100FC0002530DBB2022B08D07B680422DA637B6811
:100FD000002283F82420012322E07B681B687A68C2
:100FE0001268126822F00E021A607B681B687A6829
:100FF0001268126822F001021A607B681B6C7A6822
:10100000526C02F01C02012101FA02F25A607B6864
:10101000012283F825207B68002283F82420FB7BB3
:1010200018461437BD465DF8047B704780B584B020
:1010300000AF78600023FB737B6893F82530DBB248
:10104000022B05D07B680422DA630123FB7329E0BD
:101050007B681B687A681268126822F00E021A60B8
:101060007B681B687A681268126822F001021A60B5
:101070007B681B6C7A68526C02F01C02012101FA39
:1010800002F25A607B68012283F825207B680022E7
:1010900083F824207B689B6B002B03D07B689B6BC1
:1010A00078689847FB7B18461037BD4680BD80B5F1
:1010B00084B000AF78607B681B6C1B68FB607B684A
:1010C0001B681B68BB607B685B6C03F01C0304221D
:1010D0009A40FB681340002B26D0BB6803F0040342
:1010E000002B21D07B681B681B6803F02003002BBA
:1010F00007D17B681B687A681268126822F00402C4
:101100001A607B681B6C7A68526C02F01C02042126
:1011100001FA02F25A607B681B6B002B71D07B686E
:101120001B6B786898476CE07B685B6C03F01C0372
:1011300002229A40FB681340002B2ED0BB6803F0BC
:101140000203002B29D07B681B681B6803F0200377
:10115000002B0BD17B681B687A681268126822F03A
:101160000A021A607B68012283F825207B681B6CC9
:101170007A68526C02F01C02022101FA02F25A60F3
:101180007B68002283F824207B68DB6A002B38D040
:101190007B68DB6A7868984733E07B685B6C03F0B8
:1011A0001C0308229A40FB681340002B2AD0BB681E
:1011B00003F00803002B25D07B681B687A6812684F
:1011C000126822F00E021A607B681B6C7A68526CFF
:1011D00002F01C02012101FA02F25A607B6801222E
:1011E000DA637B68012283F825207B68002283F87C
:1011F00024207B685B6B002B04D07B685B6B78687A
:10120000984700BF00BF1037BD4680BD80B483B093
:1012100000AF78607B68DB6B18460C37BD465DF825
:10122000047B704780B485B000AFF860B9607A6025
:101230003B60FB681B6CFA68526C02F01C020121D7
:1012400001FA02F25A60FB681B683A685A60FB6850
:101250009B68102B08D1FB681B687A689A60FB6852
:101260001B68BA68DA6007E0FB681B68BA689A60B6
:10127000FB681B687A68DA6000BF1437BD465DF80A
:10128000047B704780B400AF044B1B6803F4C06359
:101290001846BD465DF8047B704700BF00700040F3
:1012A00080B485B000AF78607B68B3F5007F30D143
:1012B000234B1B6803F4C063B3F5007F38D0204A8A
:1012C0001F4B1B6823F4C06343F4007313601D4B72
:1012D0001B68322202FB03F31B4AA2FB03239B0C75
:1012E0000133FB6002E0FB68013BFB60144B5B6970
:1012F00003F48063B3F5806F02D1FB68002BF2D159
:101300000F4B5B6903F48063B3F5806F10D1032347
:101310000FE00B4B1B6803F4C063B3F5806F07D07D
:10132000074A074B1B6823F4C06343F480631360D0
:10133000002318461437BD465DF8047B704700BF94
:10134000007000400C00002083DE1B4380B588B095
:1013500000AF78607B68002B01D101239DE3A44B93
:101360009B6803F00C03BB61A14BDB6803F0030334
:101370007B617B681B6803F01003002B00F0E180A9
:10138000BB69002B07D0BB690C2B40F088807B69C0
:10139000012B40F08480964B1B6803F00203002B66
:1013A00005D07B689B69002B01D1012375E37B6825
:1013B0001A6A8F4B1B6803F00803002B04D08C4B78
:1013C0001B6803F0F00305E0894BD3F894301B0948
:1013D00003F0F0039A4223D97B681B6A184600F099
:1013E000D1FC0346002B01D0012356E3804A804BF9
:1013F0001B6843F0080313607D497D4B1B6823F095
:10140000F0027B681B6A13430B607949784B5B6879
:1014100023F47F427B68DB691B0213434B6022E0AD
:10142000734A734B1B6843F0080313607049704B99
:101430001B6823F0F0027B681B6A13430B606C4946
:101440006B4B5B6823F47F427B68DB691B021343B1
:101450004B607B681B6A184600F094FC0346002B27
:1014600001D0012319E300F003FC0146604B9B68A7
:101470001B0903F00F035F4AD35C03F01F0321FA3B
:1014800003F35D4A13605D4B1B681846FFF712FCBF
:101490000346FB73FB7B002B52D0FB7BFDE27B689A
:1014A0009B69002B32D0524A514B1B6843F0010319
:1014B0001360FFF74BFC386108E0FFF747FC02467A
:1014C0003B69D31A022B01D90323E6E2484B1B6880
:1014D00003F00203002BF0D0454A454B1B6843F054
:1014E000080313604249424B1B6823F0F0027B68FB
:1014F0001B6A13430B603E493D4B5B6823F47F42FC
:101500007B68DB691B0213434B601AE0384A384B97
:101510001B6823F001031360FFF718FC386108E033
:10152000FFF714FC02463B69D31A022B01D90323AF
:10153000B3E22F4B1B6803F00203002BF0D100E055
:1015400000BF7B681B6803F00103002B74D0BB69EC
:10155000082B05D0BB690C2B0ED17B69032B0BD15B
:10156000234B1B6803F40033002B64D07B685B685B
:10157000002B60D1012390E27B685B68B3F5803F6C
:1015800006D11B4A1A4B1B6843F4803313601DE0DD
:101590007B685B68B3F5A02F0CD1154A144B1B6810
:1015A00043F480231360124A114B1B6843F48033C9
:1015B00013600BE00E4A0E4B1B6823F4803313605C
:1015C0000B4A0B4B1B6823F4802313607B685B681A
:1015D000002B1CD0FFF7BAFB386111E0FFF7B6FB18
:1015E00002463B69D31A642B0AD9032355E200BF94
:1015F000001002402C7400080C00002000000020A5
:10160000AE4B1B6803F40033002BE7D014E0FFF768
:101610009DFB386108E0FFF799FB02463B69D31A4E
:10162000642B01D9032338E2A44B1B6803F4003375
:10163000002BF0D100E000BF7B681B6803F00203C1
:10164000002B60D0BB69042B05D0BB690C2B19D1D2
:101650007B69022B16D1994B1B6803F48063002B26
:1016600005D07B68DB68002B01D1012315E293498B
:10167000924B5B6823F0F8527B681B691B0613438F
:101680004B6040E07B68DB68002B23D08B4A8B4BA0
:101690001B6843F480731360FFF758FB386108E060
:1016A000FFF754FB02463B69D31A022B01D90323EF
:1016B000F3E1824B1B6803F48063002BF0D07F4979
:1016C0007E4B5B6823F0F8527B681B691B06134353
:1016D0004B6018E0794A794B1B6823F480731360E0
:1016E000FFF734FB386108E0FFF730FB02463B6947
:1016F000D31A022B01D90323CFE1704B1B6803F4EB
:101700008063002BF0D17B681B6803F00803002B7B
:101710003CD07B685B69002B1CD0684A674BD3F8D0
:10172000943043F00103C2F89430FFF70FFB3861A7
:1017300008E0FFF70BFB02463B69D31A022B01D9E5
:101740000323AAE15D4BD3F8943003F00203002B8E
:10175000EFD01BE0594A594BD3F8943023F00103E2
:10176000C2F89430FFF7F2FA386108E0FFF7EEFABA
:1017700002463B69D31A022B01D903238DE14F4B5B
:10178000D3F8943003F00203002BEFD17B681B6881
:1017900003F00403002B00F0A5800023FB77474BE8
:1017A0009B6D03F08053002B0DD1444A434B9B6D3E
:1017B00043F080539365414B9B6D03F08053BB60B6
:1017C000BB680123FB773E4B1B6803F48073002B3F
:1017D00018D13B4A3A4B1B6843F480731360FFF700
:1017E000B5FA386108E0FFF7B1FA02463B69D31A4F
:1017F000022B01D9032350E1314B1B6803F48073A2
:10180000002BF0D07B689B68012B08D12B4A2B4B17
:10181000D3F8903043F00103C2F8903024E07B68A5
:101820009B68052B10D1254A244BD3F8903043F008
:101830000403C2F89030214A204BD3F8903043F093
:101840000103C2F890300FE01C4A1C4BD3F89030D3
:1018500023F00103C2F89030184A184BD3F89030A7
:1018600023F00403C2F890307B689B68002B16D0ED
:10187000FFF76CFA38610AE0FFF768FA02463B6945
:10188000D31A41F28832934201D9032305E10B4B6D
:10189000D3F8903003F00203002BEDD019E0FFF7EE
:1018A00055FA38610EE0FFF751FA02463B69D31A48
:1018B00041F28832934205D90323EEE00010024042
:1018C00000700040774BD3F8903003F00203002BF8
:1018D000E9D1FB7F012B05D1724A724B9B6D23F03E
:1018E000805393657B689B6A002B00F0D580BB69B1
:1018F0000C2B00F08E807B689B6A022B5BD1694ABF
:10190000684B1B6823F080731360FFF71FFA386180
:1019100008E0FFF71BFA02463B69D31A022B01D9F4
:101920000323BAE05F4B1B6803F00073002BF0D178
:101930005C485C4BDA685C4B13407A68D16A7A6821
:10194000126B013A120111437A68526B1202114371
:101950007A68D26B5208013A520511437A68126CC8
:101960005208013A520611437A68926B12095204E6
:101970000A431343C3604B4A4A4B1B6843F08073CE
:101980001360484A474BDB6843F08073D360FFF72E
:10199000DDF9386108E0FFF7D9F902463B69D31A4F
:1019A000022B01D9032378E03E4B1B6803F0007340
:1019B000002BF0D070E03B4A3A4B1B6823F0807359
:1019C0001360384B1B6803F02053002B05D1354AB8
:1019D000344BDB6823F00303D360324A314BDB68BE
:1019E00023F0887323F48033D360FFF7AFF93861B5
:1019F00008E0FFF7ABF902463B69D31A022B01D985
:101A000003234AE0274B1B6803F00073002BF0D13F
:101A100042E07B689B6A012B01D101233DE0214B11
:101A2000DB687B617B6903F003027B68DB6A9A42B7
:101A300030D17B6903F070027B681B6B013B1B019B
:101A40009A4227D17B6903F4FE427B685B6B1B02E1
:101A50009A421FD17B6903F400337A68926B072A9C
:101A600014BF01220022D2B2934213D17B6903F446
:101A7000C0027B68DB6B5B08013B5B059A4209D1C6
:101A80007B6903F0C0627B681B6C5B08013B5B06F3
:101A90009A4201D0012300E0002318462037BD46BA
:101AA00080BD00BF001002408C809DF980B584B0DD
:101AB00000AF786039607B68002B01D10123C8E05A
:101AC000664B1B6803F007023B689A4210D26349D9
:101AD000624B1B6823F007023B6813430B605F4BAC
:101AE0001B6803F007023B689A4201D00123B0E073
:101AF0007B681B6803F00103002B4CD07B685B689C
:101B0000032B07D1564B1B6803F00073002B21D128
:101B100001239EE07B685B68022B07D1504B1B685A
:101B200003F40033002B15D1012392E07B685B683E
:101B3000002B07D14A4B1B6803F00203002B09D18D
:101B4000012386E0464B1B6803F48063002B01D120
:101B500001237EE04249424B9B6823F003027B68ED
:101B60005B6813438B60FFF7F1F8F8600AE0FFF75A
:101B7000EDF80246FB68D31A41F28832934201D94C
:101B8000032366E0364B9B6803F00C027B685B68BE
:101B90009B009A42EBD17B681B6803F00203002B89
:101BA00008D02F492E4B9B6823F0F0027B689B687E
:101BB00013438B60294B1B6803F007023B689A4272
:101BC00010D92649254B1B6823F007023B681343B5
:101BD0000B60224B1B6803F007023B689A4201D05E
:101BE000012336E07B681B6803F00403002B08D058
:101BF0001B491B4B9B6823F4E0627B68DB68134343
:101C00008B607B681B6803F00803002B09D0144924
:101C1000134B9B6823F460527B681B69DB00134302
:101C20008B6000F025F801460D4B9B681B0903F003
:101C30000F030C4AD35C03F01F0321FA03F30A4A93
:101C400013600A4B1B681846FFF734F80346FB7213
:101C5000FB7A18461037BD4680BD00BF0020024009
:101C6000001002402C7400080C000020000000202E
:101C700080B489B000AF0023FB610023BB613D4B02
:101C80009B6803F00C033B613A4BDB6803F00303F2
:101C9000FB603B69002B05D03B690C2B21D1FB6815
:101CA000012B1ED1334B1B6803F00803002B07D117
:101CB000304BD3F894301B0A03F00F03FB6105E0AF
:101CC0002C4B1B681B0903F00F03FB612A4AFB69BD
:101CD00052F82330FB613B69002B0DD1FB69BB61DE
:101CE0000AE03B69042B02D1244BBB6104E03B6951
:101CF000082B01D1224BBB613B690C2B33D11D4B0F
:101D0000DB6803F00303BB60BB68022B02D0032B2C
:101D100003D005E0194B7B6105E0194B7B6102E0C4
:101D2000FB697B6100BF134BDB681B0903F00703F2
:101D300001337B600F4BDB681B0A03F07F037A697A
:101D400002FB03F27B68B2FBF3F37B61094BDB68B8
:101D50005B0E03F0030301335B003B607A693B6871
:101D6000B2FBF3F3BB61BB6918462437BD465DF88F
:101D7000047B7047001002403C7400080024F4000B
:101D800000127A0080B586B000AF786000233B6116
:101D90002A4B9B6D03F08053002B03D0FFF772FAA0
:101DA000786114E0254A254B9B6D43F08053936581
:101DB000224B9B6D03F08053FB60FB68FFF762FAD8
:101DC00078611E4A1D4B9B6D23F0805393657B69A0
:101DD000B3F5007F0BD17B68802B19D97B68A02BD2
:101DE00002D902233B6113E001233B6110E07B68D1
:101DF000802B02D903233B610AE07B68802B02D150
:101E000002233B6104E07B68702B01D101233B611D
:101E10000B490B4B1B6823F007023B6913430B6014
:101E2000074B1B6803F007023B699A4201D001236C
:101E300000E0002318461837BD4680BD0010024060
:101E40000020024080B586B000AF78600023FB74AC
:101E50000023BB747B681B6803F40063002B3FD036
:101E60007B685B6EB3F5800F1CD0B3F5800F02D892
:101E7000002B0ED01FE0B3F5000F03D0B3F5400FD9
:101E80001CD018E0854A854BDB6843F48033D3606F
:101E900015E07B6804330021184600F0B9FA0346C8
:101EA000FB740CE07B6820330021184600F0A0FB97
:101EB0000346FB7403E00123FB7400E000BFFB7CDE
:101EC000002B0BD17549754BD3F8883023F44002B1
:101ED0007B685B6E1343C1F8883001E0FB7CBB7408
:101EE0007B681B6803F48053002B3FD07B689B6E9C
:101EF000B3F1807F1CD0B3F1807F02D8002B0ED0CD
:101F00001FE0B3F1007F03D0B3F1407F1CD018E095
:101F1000624A624BDB6843F48033D36015E07B6830
:101F200004330021184600F073FA0346FB740CE0FA
:101F30007B6820330021184600F05AFB0346FB74EF
:101F400003E00123FB7400E000BFFB7C002B0BD1FE
:101F50005249524BD3F8883023F040727B689B6E15
:101F60001343C1F8883001E0FB7CBB747B681B68BD
:101F700003F40033002B00F0A08000237B74474B58
:101F80009B6D03F08053002B01D1012300E000235F
:101F9000002B0DD0414A414B9B6D43F0805393651C
:101FA0003E4B9B6D03F08053BB60BB6801237B7489
:101FB0003B4A3B4B1B6843F480731360FEF7C6FE3D
:101FC000F86009E0FEF7C2FE0246FB68D31A022B56
:101FD00002D90323FB7405E0314B1B6803F48073C3
:101FE000002BEFD0FB7C002B5CD12C4BD3F8903036
:101FF00003F440737B617B69002B1FD07B68D3F8AF
:1020000084207B699A4219D0244BD3F8903023F472
:1020100040737B61214A214BD3F8903043F48033E5
:10202000C2F890301D4A1D4BD3F8903023F4803312
:10203000C2F89030194A7B69C2F890307B6903F08E
:102040000103002B16D0FEF781FEF8600BE0FEF7CF
:102050007DFE0246FB68D31A41F28832934202D9D0
:102060000323FB7406E00D4BD3F8903003F002031A
:10207000002BECD0FB7C002B0CD10849074BD3F88C
:10208000903023F440727B68D3F884301343C1F856
:10209000903009E0FB7CBB7406E000BF00100240FA
:1020A00000700040FB7CBB747B7C012B05D19E4AF9
:1020B0009D4B9B6D23F0805393657B681B6803F0F9
:1020C0000103002B0AD09849974BD3F8883023F0AE
:1020D00003027B689B6B1343C1F888307B681B68E5
:1020E00003F00203002B0AD08F498F4BD3F88830BE
:1020F00023F00C027B68DB6B1343C1F888307B68EC
:102100001B6803F00403002B0AD08749864BD3F8E1
:10211000883023F030027B681B6C1343C1F8883091
:102120007B681B6803F00803002B0AD07E497E4BB6
:10213000D3F8883023F0C0027B685B6C1343C1F88E
:1021400088307B681B6803F01003002B0AD07649A7
:10215000754BD3F8883023F440727B689B6C134333
:10216000C1F888307B681B6803F02003002B0AD07D
:102170006D496D4BD3F8883023F440627B68DB6C8B
:102180001343C1F888307B681B6803F40073002B8D
:102190000AD06549644BD3F8883023F440227B6829
:1021A000DB6D1343C1F888307B681B6803F48063E0
:1021B000002B0AD05C495C4BD3F8883023F44012E2
:1021C0007B681B6E1343C1F888307B681B6803F083
:1021D0004003002B0AD05449534BD3F8883023F4E2
:1021E00040527B681B6D1343C1F888307B681B68C5
:1021F00003F08003002B0AD04B494B4BD3F88830B7
:1022000023F440427B685B6D1343C1F888307B68E0
:102210001B6803F48073002B0AD04349424BD3F868
:10222000883023F440327B689B6D1343C1F88830BB
:102230007B681B6803F40053002B28D03A493A4BC3
:10224000D3F8883023F040627B68DB6E1343C1F81B
:1022500088307B68DB6EB3F1006F06D1324A324BB7
:10226000DB6843F48013D36011E07B68DB6EB3F16D
:10227000806F0CD17B6804330121184600F0C8F848
:102280000346FB74FB7C002B01D0FB7CBB747B689A
:102290001B6803F40023002B28D02349224BD3F8DA
:1022A000883023F040627B681B6F1343C1F888308D
:1022B0007B681B6FB3F1006F06D11B4A1A4BDB68BA
:1022C00043F48013D36011E07B681B6FB3F1806F20
:1022D0000CD17B6804330121184600F099F80346BD
:1022E000FB74FB7C002B01D0FB7CBB747B681B6800
:1022F00003F48023002B2BD00B490B4BD3F88830F1
:1023000023F040627B685B6F1343C1F888307B68C1
:102310005B6FB3F1006F09D1034A034BDB6843F4F1
:102320008013D36014E000BF001002407B685B6F35
:10233000B3F1806F0CD17B6804330121184600F0A3
:1023400067F80346FB74FB7C002B01D0FB7CBB745D
:102350007B681B6803F48043002B2FD02B492B4B49
:10236000D3F8883023F040527B689B6F1343C1F849
:1023700088307B689B6FB3F1805F0DD17B6804333D
:102380000221184600F044F80346FB74FB7C002B46
:1023900014D0FB7CBB7411E07B689B6FB3F1005FD2
:1023A0000CD17B6820330221184600F021F9034646
:1023B000FB74FB7C002B01D0FB7CBB747B681B682F
:1023C00003F40043002B0AD01049104BD3F8883097
:1023D00023F080427B68DB6F1343C1F888307B6851
:1023E0001B6803F48033002B0BD00849074BD3F84C
:1023F000883023F000427B68D3F880301343C1F863
:102400008830BB7C18461837BD4680BD001002409E
:1024100080B584B000AF786039600023FB73734BE4
:10242000DB6803F00303002B18D0704BDB6803F06C
:1024300003027B681B689A420DD17B681B68002BE6
:1024400009D06A4BDB681B0903F007035A1C7B6841
:102450005B689A4244D00123FB7341E07B681B68B0
:10246000022B0CD0032B13D0012B20D15F4B1B6808
:1024700003F00203002B1DD10123FB731AE05B4B19
:102480001B6803F48063002B16D10123FB7313E058
:10249000564B1B6803F40033002B0FD1534B1B68C2
:1024A00003F48023002B09D10123FB7306E00123F1
:1024B000FB7304E000BF02E000BF00E000BFFB7B55
:1024C000002B0DD14948494BDB6823F073027B6830
:1024D00019687B685B68013B1B010B431343C360B6
:1024E000FB7B002B7DD1414A404B1B6823F080636E
:1024F0001360FEF72BFCB86009E0FEF727FC0246EC
:10250000BB68D31A022B02D90323FB7305E0374BB8
:102510001B6803F00063002BEFD1FB7B002B60D125
:102520003B68002B11D13148304B1B6923F41F331A
:1025300023F440737A68926811027A68D2681209AB
:1025400052040A431343036127E03B68012B12D175
:102550002648264B1B6923F4C00323F4FE437A6804
:10256000926811027A6812695208013A52050A43C8
:102570001343036111E01D481C4B1B6923F0C0632A
:1025800023F4FE437A68926811027A68526952080D
:10259000013A52060A4313430361144A134B1B6862
:1025A00043F080631360FEF7D1FBB86009E0FEF7EB
:1025B000CDFB0246BB68D31A022B02D90323FB735F
:1025C00005E00A4B1B6803F00063002BEFD0FB7B98
:1025D000002B06D10549054B1A697B689B6913439B
:1025E0000B61FB7B18461037BD4680BD00100240D2
:1025F00080B584B000AF786039600023FB73684B0E
:10260000DB6803F00303002B18D0654BDB6803F095
:1026100003027B681B689A420DD17B681B68002B04
:1026200009D05F4BDB681B0903F007035A1C7B686A
:102630005B689A4244D00123FB7341E07B681B68CE
:10264000022B0CD0032B13D0012B20D1544B1B6831
:1026500003F00203002B1DD10123FB731AE0504B42
:102660001B6803F48063002B16D10123FB7313E076
:102670004B4B1B6803F40033002B0FD1484B1B68F6
:1026800003F48023002B09D10123FB7306E001230F
:10269000FB7304E000BF02E000BF00E000BFFB7B73
:1026A000002B0DD13E483E4BDB6823F073027B6864
:1026B00019687B685B68013B1B010B431343C360D4
:1026C000FB7B002B67D1364A354B1B6823F08053C8
:1026D0001360FEF73BFBB86009E0FEF737FB0246EC
:1026E000BB68D31A022B02D90323FB7305E02C4BE2
:1026F0001B6803F00053002BEFD1FB7B002B4AD16A
:102700003B68002B11D12648254B5B6923F41F330E
:1027100023F440737A68926811027A68D2681209C9
:1027200052040A431343436111E01D481C4B5B698B
:1027300023F0C06323F4FE437A68926811027A683A
:1027400012695208013A52060A4313434361144A7C
:10275000134B1B6843F080531360FEF7F7FAB86021
:1027600009E0FEF7F3FA0246BB68D31A022B02D93E
:102770000323FB7305E00A4B1B6803F00053002B97
:10278000EFD0FB7B002B06D10549054B5A697B68CE
:102790005B6913434B61FB7B18461037BD4680BD18
:1027A0000010024080B483B000AF78607B680222E2
:1027B00083F83D207B681B681A6A41F211131340AD
:1027C000002B0FD17B681B681A6A40F24443134008
:1027D000002B07D17B681B687A681268126822F0A8
:1027E00001021A607B68012283F83D20002318460D
:1027F0000C37BD465DF8047B7047000080B485B09F
:1028000000AF78607B681B687A681268D26842F013
:102810000102DA607B681B689A680C4B1340FB600E
:10282000FB68062B0BD0FB68B3F5803F07D07B68B5
:102830001B687A681268126842F001021A6000236D
:1028400018461437BD465DF8047B70470700010049
:1028500080B483B000AF78607B681B687A681268C8
:10286000D26822F00102DA607B681B681A6A41F2C2
:1028700011131340002B0FD17B681B681A6A40F2BA
:1028800044431340002B07D17B681B687A681268A9
:10289000126822F001021A60002318460C37BD4668
:1028A0005DF8047B7047000080B584B000AF7860AD
:1028B00039603B680C2B41D801A252F823F000BFCD
:1028C000F52800083D2900083D2900083D29000899
:1028D000072900083D2900083D2900083D29000876
:1028E000192900083D2900083D2900083D29000854
:1028F0002B2900087B681B687A681268D26842F04E
:102900000202DA601BE07B681B687A681268D26892
:1029100042F00402DA6012E07B681B687A68126891
:10292000D26842F00802DA6009E07B681B687A68C6
:102930001268D26842F01002DA6000E000BF7B68E3
:102940001B6801223968184600F09DF97B681B68F6
:102950001E4A934213D07B681B681D4A93420ED0D7
:102960007B681B681B4A934209D07B681B681A4A24
:10297000934204D07B681B68184A934201D101231B
:1029800000E00023002B07D07B681B687A68126880
:10299000526C42F400425A647B681B689A68104B80
:1029A0001340FB60FB68062B0BD0FB68B3F5803F40
:1029B00007D07B681B687A681268126842F00102CF
:1029C0001A60002318461037BD4680BD002C014018
:1029D00000340140004001400044014000480140F3
:1029E0000700010080B582B000AF78607B681B688B
:1029F0001B6903F00203022B22D17B681B68DB6892
:102A000003F00203022B1BD17B681B686FF00202EC
:102A10001A617B6801221A777B681B689B6903F047
:102A20000303002B03D0786800F00FF905E0786805
:102A300000F001F9786800F012F97B6800221A773B
:102A40007B681B681B6903F00403042B22D17B689D
:102A50001B68DB6803F00403042B1BD17B681B6835
:102A60006FF004021A617B6802221A777B681B6888
:102A70009B6903F44073002B03D0786800F0E5F8FD
:102A800005E0786800F0D7F8786800F0E8F87B682F
:102A900000221A777B681B681B6903F00803082B68
:102AA00022D17B681B68DB6803F00803082B1BD16D
:102AB0007B681B686FF008021A617B6804221A7732
:102AC0007B681B68DB6903F00303002B03D0786885
:102AD00000F0BBF805E0786800F0ADF8786800F029
:102AE000BEF87B6800221A777B681B681B6903F0BD
:102AF0001003102B22D17B681B68DB6803F01003E6
:102B0000102B1BD17B681B686FF010021A617B6869
:102B100008221A777B681B68DB6903F44073002B7B
:102B200003D0786800F091F805E0786800F083F849
:102B3000786800F094F87B6800221A777B681B683D
:102B40001B6903F00103012B0ED17B681B68DB6856
:102B500003F00103012B07D17B681B686FF00102B2
:102B60001A61786800F05DF87B681B681B6903F0E8
:102B70008003802B0ED17B681B68DB6803F0800329
:102B8000802B07D17B681B686FF080021A61786820
:102B900000F0A8F87B681B681B6903F48073B3F529
:102BA000807F0ED17B681B68DB6803F08003802B7D
:102BB00007D17B681B686FF480721A61786800F037
:102BC0009BF87B681B681B6903F04003402B0ED108
:102BD0007B681B68DB6803F04003402B07D17B68F0
:102BE0001B686FF040021A61786800F042F87B6859
:102BF0001B681B6903F02003202B0ED17B681B6828
:102C0000DB6803F02003202B07D17B681B686FF083
:102C100020021A61786800F05BF800BF0837BD46F3
:102C200080BD80B483B000AF786000BF0C37BD4674
:102C30005DF8047B704780B483B000AF786000BF5C
:102C40000C37BD465DF8047B704780B483B000AF9D
:102C5000786000BF0C37BD465DF8047B704780B4D8
:102C600083B000AF786000BF0C37BD465DF8047BD1
:102C7000704780B483B000AF786000BF0C37BD46AA
:102C80005DF8047B704780B487B000AFF860B9602E
:102C90007A60BB6803F01F03012202FA03F37B6131
:102CA000FB681A6A7B69DB431A40FB681A62FB689F
:102CB0001A6ABB6803F01F03796801FA03F31A4329
:102CC000FB681A6200BF1C37BD465DF8047B704785
:102CD00080B483B000AF786000BF0C37BD465DF8AC
:102CE000047B704780B483B000AF786000BF0C37BE
:102CF000BD465DF8047B704780B483B000AF786058
:102D000000BF0C37BD465DF8047B704780B485B0CA
:102D100000AF78607B685B6FFB607B689B6FBB601C
:102D20007B6893F87030012B01D102233CE07B6873
:102D3000012283F870207B681B689B6803F0800386
:102D4000802B0AD1FB68212B07D17B681B687A682E
:102D50001268926822F080029A607B681B689B6808
:102D600003F04003402B1AD1BB68222B17D17B689C
:102D70001B687A681268126822F480721A607B6895
:102D80001B687A681268926822F001029A607B6878
:102D90001B687A681268926822F040029A607B6829
:102DA000002283F87020002318461437BD465DF8D2
:102DB000047B704780B483B000AF78607B6893F881
:102DC0007030012B01D1022334E07B68012283F8AB
:102DD00070207B685B6F212B07D17B681B687A684A
:102DE0001268926842F080029A607B689B6F222B87
:102DF0001BD17B681B6808221A627B681B687A6893
:102E00001268126842F480721A607B681B687A68E4
:102E10001268926842F001029A607B681B687A68C7
:102E20001268926842F040029A607B68002283F840
:102E30007020002318460C37BD465DF8047B7047B0
:102E400080B584B000AF78607B685B6FFB607B68A7
:102E50009B6FBB607B681B689B6803F08003802BC3
:102E600026D1FB68212B23D17B681B687A68126806
:102E7000926822F080029A607B689B6E002B14D0CF
:102E80007B689B6E1846FEF793F80346002B0CD028
:102E90007B689B6E1846FEF7B9F90346202B04D1D8
:102EA0007B681022DA67032331E0786800F094F839
:102EB0007B681B689B6803F04003402B26D1BB68EE
:102EC000222B23D17B681B687A681268926822F0F3
:102ED00040029A607B68DB6E002B14D07B68DB6E4F
:102EE0001846FEF765F80346002B0CD07B68DB6EB6
:102EF0001846FEF78BF90346202B04D17B6810227D
:102F0000DA67032303E0786800F07BF800231846B3
:102F10001037BD4680BD000080B582B000AF78603C
:102F20007B681B687A681268126822F0C0021A6017
:102F30007B681B689B6803F08003802B2DD17B6826
:102F40001B687A681268926822F080029A607B6837
:102F50009B6E002B13D07B689B6E194A9A637B682B
:102F60009B6E1846FEF762F80346002B22D07B6862
:102F70009B6E9B6B7A68926E104698471AE07B684E
:102F80000022A3F852207B6800225A667B68202228
:102F90005A67786800F016F80CE07B680022A3F806
:102FA00052207B6800225A667B6820225A67786824
:102FB00000F008F8002318460837BD4680BD00BF62
:102FC0004330000880B483B000AF786000BF0C3796
:102FD000BD465DF8047B704780B483B000AF786075
:102FE0007B681B687A681268126822F0C0021A6057
:102FF0007B6820225A6700BF0C37BD465DF8047B12
:10300000704780B483B000AF78607B681B687A68D3
:103010001268126822F490721A607B681B687A68E2
:103020001268926822F001029A607B6820229A67F7
:103030007B6800221A6600BF0C37BD465DF8047B32
:10304000704780B584B000AF78607B689B6AFB6096
:10305000FB680022A3F85220FB6820225A67F86818
:10306000FFF7B0FF00BF1037BD4680BD80B582B00E
:1030700000AF786039603A680021786800F0FFFF9F
:1030800000BF0837BD4680BD80B588B000AF78600E
:103090000023FB770023FB600023BB610DE0BB69CD
:1030A00002337A681344197807F10C02BB691344A0
:1030B0000A461A70BB690133BB61BB69022BEEDDA6
:1030C00007F10C032C491846FDF782F80346002B44
:1030D00019D007F10C0329491846FDF779F8034682
:1030E000002B0DD007F10C0325491846FDF770F8A9
:1030F0000346002B01D0FF2339E00223FB7704E0D5
:103100000323FB7701E00123FB770023FB8208E028
:103110007B681B789AB2FB8A5340FB827B68013341
:103120007B607B681B782A2BF2D17B6801337B6044
:103130007B681B78184600F025F803461B017B7559
:103140007B6801337B607B681B78184600F01AF8B7
:1031500003463B757B7D9AB23B7D9BB213447B82D9
:10316000FA8A7B8A9A4201D0FF2300E0FB7F18464F
:103170002037BD4680BD00BF487300084C7300086F
:103180005073000880B483B000AF0346FB71FB7935
:10319000002B01D100231EE0FB792F2B06D9FB79F0
:1031A000392B03D8FB79303BDBB214E0FB79602B81
:1031B00006D9FB79662B03D8FB79573BDBB20AE0D3
:1031C000FB79402B06D9FB79462B03D8FB79373B9B
:1031D000DBB200E0FF2318460C37BD465DF8047BE8
:1031E0007047000080B588B000AF7860002002F022
:1031F000D7F80346FB6007F10C03184600F02EFEDB
:10320000B86100BF7B685A1C7A601B782C2BF9D1FF
:103210007B685A1C7A607B610023FB6111E0FB69CB
:103220007A6813441B782C2B08D1FB6901337A6828
:1032300013441B782C2B01D1FF2394E0FB6901334D
:10324000FB617868FCF7CEFF0246FB699A42E6D83C
:103250007B691B78A3F1300213469B0013445B008B
:103260001A467B6901331B78303B13449A1CBB69B7
:103270009A607B6902331B78A3F1300213469B00EE
:1032800013445B001A467B6903331B78303B1344BD
:103290005A1EBB695A607B6904331B78A3F1300264
:1032A00013469B0013445B001A467B6905331B7869
:1032B000303B13445A1EBB691A6000BF7B685A1C1E
:1032C0007A601B782C2BF9D17B687B617B691B783A
:1032D000A3F1300213469B0013445B001A467B693E
:1032E00001331B78303B1A44BB69DA607B690333D6
:1032F0001B78A3F1300213469B0013445B001A466F
:103300007B6904331B78303B13445A1EBB691A6136
:103310007B6906331B78303B4FF47A7202FB03F271
:103320007B6907331B78303B642101FB03F3D11821
:103330007B6908331B78A3F1300213469B001344CA
:103340005B00CA187B6909331B78303B1344A3F236
:103350006C72BB695A61B86900F07AFF38613B69E9
:10336000034A1360002318462037BD4680BD00BFC6
:10337000F0020020B0B586B000AF78600023FB7586
:103380007B6806337B607B683B610023BB7502E092
:10339000BB7D0133BB757B685A1C7A601B782C2B74
:1033A000F6D1BB7D002B2ED0BB7D3A6913440022A1
:1033B0001A70BB7D0133BB75BB7D3A6913441B7822
:1033C000532B02D14FF0FF3300E00123FB7397F939
:1033D0000F301846FDF7B6F804460D46386900F080
:1033E00010FD53EC102B20462946FDF711F903463A
:1033F0000C4618462146FDF7EDFB0246284B1A60A5
:10340000FB7D0133FB7500BF7B685A1C7A601B781B
:103410002C2BF9D17B683B610023BB7502E0BB7D9F
:103420000133BB757B685A1C7A601B782C2BF6D154
:10343000BB7D002B2ED0BB7D3A69134400221A704D
:10344000BB7D0133BB75BB7D3A6913441B78572B99
:1034500002D14FF0FF3300E00123BB7397F90E3028
:103460001846FDF76FF804460D46386900F0C9FCB0
:1034700053EC102B20462946FDF7CAF803460C46AC
:1034800018462146FDF7A6FB0246054B5A60FB7D18
:103490000133FB75FB7D18461837BD46B0BD00BF34
:1034A000F802002080B489B000AF78600023FB7779
:1034B0007B68BB6108E0BB695A1CBA611B782C2B86
:1034C00002D1FB7F0133FB77FB7F012BF3D9BB6973
:1034D0005A1CBA611B78303BDAB2454BDA710023D3
:1034E000FB750023BB7515E000237B7502E07B7D37
:1034F00001337B75BB690133BB61BB691B782C2B26
:10350000F5D17B7D002B02D0FB7D0133FB75BB7DAC
:103510000133BB75BB7D0B2BE6D9354AFB7D93711F
:1035200007F1080300221A609A8000233B6143E000
:103530003B695B0007F12002134413F8183C1A465C
:10354000920013445B00DAB2BB691B781344DBB210
:10355000303BDAB23B695B0007F120010B4403F812
:10356000182CBB690133BB61BB691B782E2BDFD1E3
:1035700018E03B695B0007F12002134413F8173C85
:103580001A46920013445B00DAB2BB691B781344FD
:10359000DBB2303BDAB23B695B0007F120010B4440
:1035A00003F8172CBB690133BB61BB691B782C2B5B
:1035B000DFD13B6901333B613B69022BD1DD0C4B11
:1035C000023307F1080212881A80094B1A4607F1E4
:1035D0000A031B881380064B043307F10C02128880
:1035E0001A80002318462437BD465DF8047B7047D7
:1035F000E402002080B582B000AF78607B681B6871
:10360000DB6803F00203022B0AD17B681B686FF0B2
:1036100003021A61044B01221A707868FFF718F947
:1036200000BF0837BD4680BDEC02002080B584B0E5
:1036300000AF7860634B01221A70634B1B78002B3C
:1036400000F0BB807B68DB684FF400611846FFF731
:103650000DFD5E495E4801F04FFEF86042E0F868FB
:10366000FFF712FD0346022B12D0032B1ED0012BB5
:1036700000D02EE0F868FFF77DFE0346022B23D131
:10368000544B1B7843F00103DAB2524B1A701BE023
:10369000F868FFF707FF0346002B17D14D4B1B7847
:1036A00043F00203DAB24B4B1A700FE0F868FFF7F1
:1036B00099FD0346002B0BD1464B1B7843F00403C6
:1036C000DAB2444B1A7003E000BF02E000BF00E032
:1036D00000BF404B1B78072B08D03C49002001F06D
:1036E0000BFEF860FB68002BB9D100E000BF7B68DF
:1036F0009B681B68DB6803F00203022B0AD17B681E
:103700009B681B686FF002021A617B689B681B68EC
:1037100000225A627B681B68DB6E1B6C7A68126839
:10372000D26E526C3F2101FA02F25A607B681B682C
:10373000DB6E1B687A68D268DA607B681B68DB6EB8
:103740001B684FF400625A607B681B681B6810227C
:103750001A627B681B681B687A68126812681268B4
:1037600042F010021A601B4B1B78072B25D07B6898
:103770009B681B687A6892681268D26842F00202FD
:10378000DA607B689B6800211846FFF78DF87B683C
:103790009B681846FFF732F87B681B68DB6E1B6876
:1037A0007A681268D26E1268126842F001021A60DA
:1037B0007B681B681846FFF7FDFA00BF1037BD464F
:1037C00080BD00BF48030020581C00201C74000866
:1037D0000C0C0020F402002080B582B000AF7860AD
:1037E0007B681B68DB6E1B681B6803F00203002B01
:1037F00046D07B681B68DB6E1B681A46424B9A42B8
:1038000004D9424B4FF400325A6003E0404B4FF46E
:1038100000325A607B689B681846FEF7C3FF7B68DE
:103820009B681B687A6892681268D26822F002026C
:10383000DA607B689B681B681B6903F00203022B3C
:1038400005D17B689B681B686FF002021A61314BDF
:1038500000221A707B685B681B687A68526812687D
:10386000126842F002021A607B6858687B68DB6865
:1038700019467B685B691A464FF40063FDF755FBF8
:103880007B685B681B681B6803F00403002B17D080
:103890007B685B681B681A461B4B9A4203D91B4B1B
:1038A00004225A6002E01A4B04225A607B685B686B
:1038B0001B687A6852681268126822F004021A6063
:1038C0007B685B681B681B6803F00803002B17D03C
:1038D0007B685B681B681A460B4B9A4203D90B4BFB
:1038E00008225A6002E00A4B08225A607B685B6833
:1038F0001B687A6852681268126822F008021A601F
:1039000000BF0837BD4680BD800002400004024071
:1039100000000240EC02002080B584B000AF786067
:103920007B681B681B681B6803F01003002B64D0C6
:103930007B681B681B68DB69FB607B681B681B6816
:103940009B8C9BB2FB605F4B1B78012B50D17B683B
:103950001B68DB6E1B685B68C3F500631A465A4B35
:103960001A605A4B1B78002B12D07B681B681846D4
:10397000FFF7CCF97B681B68DB6E1B687A681268FE
:10398000D26E1268126822F001021A6000BF04E0D1
:103990007B681B681846FFF753FA4B4B1B68002BDC
:1039A00016DD7B685B681B687A685268126812686B
:1039B00042F002021A607B6858687B68DB6819462F
:1039C0007B685B691A46404B1B68FDF7AEFA02E064
:1039D0003F4B03221A703B4B00221A707B681B6816
:1039E0001B687A6812681268126822F010021A6066
:1039F0007B681B681B6810221A627B681B681B6847
:103A00001B6803F04003002B16D07B681B68184628
:103A1000FFF782FA7B681B681B6810221A627B68BA
:103A20001B681B687A6812681268126822F010021C
:103A30001A60284B01221A707B681B681B689B6800
:103A400003F00103002B39D07B681B681B68DB691E
:103A500003F00203022B04D17B681B681B6802225F
:103A60001A627B681B681B68DB6903F00403042B84
:103A700004D17B681B681B6804221A627B681B6880
:103A80001B68DB6903F00803082B0AD17B681B68FD
:103A90001B689B8C9BB2FB727B681B681B680822AF
:103AA0001A627B681B681B68DB6903F00103012B4A
:103AB00004D17B681B681B6801221A6200BF1037A3
:103AC000BD4680BDEC020020C4020020581C00202E
:103AD000480300200C14002080B500AFFDF7CAF8A1
:103AE00000F001F8FEE780B5B8B000AF07F19C0325
:103AF00044220021184600F0C2FA07F18803002290
:103B00001A605A609A60DA601A613B468822002186
:103B1000184600F0B4FA0123C7F89C304FF4803304
:103B2000C7F8A0300223C7F8C4300323C7F8C83051
:103B30000123C7F8CC300C23C7F8D0300723C7F8CF
:103B4000D4300223C7F8D8300223C7F8DC3007F19D
:103B50009C031846FDF7FAFB0346002B01D000F04A
:103B600034F80F23C7F888300323C7F88C3080233C
:103B7000C7F890300023C7F894300023C7F8983076
:103B800007F1880301211846FDF790FF0346002B3B
:103B900001D000F01AF808233B6000237B643B4609
:103BA0001846FEF74FF90346002B01D000F00DF840
:103BB0004FF40070FDF774FB0346002B01D000F0BA
:103BC00004F800BFE037BD4680BD80B400AF00BF41
:103BD000BD465DF8047B704780B483B000AF0F4AE8
:103BE0000E4B1B6E43F0010313660C4B1B6E03F070
:103BF00001037B607B68094A084B9B6D43F080534F
:103C00009365064B9B6D03F080533B603B6800BFA0
:103C10000C37BD465DF8047B704700BF00100240C2
:103C200080B400AF00BFBD465DF8047B704780B430
:103C300000AFFEE780B400AFFEE780B400AFFEE760
:103C400080B400AFFEE780B400AF00BFBD465DF8B2
:103C5000047B704780B400AF00BFBD465DF8047BB5
:103C6000704780B400AF00BFBD465DF8047B70476D
:103C700080B500AFFDF758F800BF80BD80B500AF3C
:103C80000348FFF7B7FC0248FEF7ACFE00BF80BD5B
:103C9000CC0B002080B500AF0248FFF73DFE00BF0F
:103CA00080BD00BFC802002080B500AF0248FDF70C
:103CB000FEF900BF80BD00BF1014002080B500AF2A
:103CC0000248FFF789FD00BF80BD00BFC802002089
:103CD00080B500AF0348FDF7EAF90348FFF7A6FCFB
:103CE00000BF80BD00030020C802002080B584B062
:103CF00000AF7860114B1B68002B02D10F4B104AAC
:103D00001A600E4B1B68FB600C4B1A687B681344EF
:103D10006A46934207D900F077F802460C231360F5
:103D20004FF0FF3306E0054B1A687B681344034AE3
:103D30001360FB6818461037BD4680BD480200205E
:103D4000601C002080B400AF174A174BD3F88830AE
:103D500043F47003C2F88830144A144B1B6843F0D4
:103D600001031360114B00229A60104A0F4B1B682D
:103D700023F0A85323F4102313600C4B4FF480520C
:103D8000DA600A4A094B1B6823F480231360074B4F
:103D900000229A61044B4FF000629A6000BFBD465A
:103DA0005DF8047B704700BF00ED00E000100240AA
:103DB000DFF834D0002103E00C4B5B584350043152
:103DC0000B480C4B42189A42F6D30B4A02E00023F0
:103DD00042F8043B094B9A42F9D3FFF7B3FF00F0D6
:103DE00019F8FFF779FEFEE70080012054780008FB
:103DF000000000202802002028020020601C002073
:103E0000FEE7002101F064BA014B1868704700BF5B
:103E10001000002070B50D4E0D4CA41BA410002501
:103E2000A54209D10B4E0C4C03F082FAA41BA4103E
:103E30000025A54205D170BD56F8253098470135BB
:103E4000EEE756F8253098470135F2E74C78000840
:103E50004C7800084C7800085078000838B5074BBB
:103E60001C68E36B05461BB9242000F0EDF8E06305
:103E7000E16B2846BDE8384000F002B81000002091
:103E80002DE9F0410C46804602F05CF821460746D9
:103E9000404602F05BF8466906F26C76B3070446CA
:103EA00005D1642296FBF2F302FB1363FBB94FF4D6
:103EB000C87396FBF3F503FB1565B5FA85F56D0937
:103EC0005F4B302202FB053501F026FB01F026FB9B
:103ED0005C4B1B68E3B17B689E420AD13968D8F815
:103EE0000030FA6969B993420DDB012310E0012526
:103EF000E6E7304601F068FA0028EFD14FF0FF33D3
:103F000006E0934255DBBA6B9342ACBF002301231A
:103F10002362236A012B0CBFF96B396A4FF461638A
:103F20003C2091FBF3F603FB1613616893FBF0F260
:103F300000FB12302368891AA26861601B1A921B69
:103F40003B2B2360A26036DD013161603C3B236086
:103F500063683B2B35DD0132A2603C3B6360A368A4
:103F6000172B34DDE2690132E261A2690132062ACF
:103F7000C8BF0022A261E268183B0132A360236936
:103F8000E26055F823108A420EDD01330C2B0CBF82
:103F900063692361A2EB0102E26001BF01330022E9
:103FA0002261636108BFE26101F0B7FA2046BDE813
:103FB000F0810023ACE7002BCADA013961603C33A1
:103FC000C5E7002BCBDA013AA2603C33C6E7002BF1
:103FD000EADAE269013AE261A269013A48BF0622DF
:103FE000A261E2681833013AE260A360002ADBD1E3
:103FF0002369013B05D42361236955F82330E3602D
:10400000D2E70B23236163695A1E12F0030F62612A
:1040100003F26B7205D1642192FBF1F301FB1323D0
:1040200063B94FF4C87192FBF1F301FB1323B3FAA8
:1040300083F35B0903F5B673E361DDE70123F9E779
:10404000CC74000870020020024B0146186800F092
:10405000C9BA00BF10000020024B0146186800F0EA
:1040600073BA00BF1000002010B5431E0A449142ED
:1040700000D110BD11F8014B03F8014FF7E70244DE
:104080000346934200D1704703F8011BF9E7000093
:10409000F7B501683B29044611D93C22684601F076
:1040A000C5FB019A63680099002A0B446360BBBF9B
:1040B0003C3203F1FF3322602260B8BF6360616865
:1040C0003B2911D93C22684601F0B0FB019AA36854
:1040D0000099002A0B44A360BBBF3C3203F1FF33BD
:1040E00062606260B8BFA360A168172911D9182265
:1040F000684601F09BFB019AE3680099002A0B4493
:10410000E360BBBF183203F1FF33A260A260B8BF07
:10411000E36021690B2911D90C22684601F086FB66
:10412000019A63690099002A0B446361BBBF0C329A
:1041300003F1FF3322612261B8BF636163699907AC
:1041400043D1642193FBF1F201FB1232002A3ED1EC
:1041500003F26C734FF4C87193FBF1F201FB12335D
:10416000002B14BF1C231D23E268002A31DD374FCA
:1041700002264FF0000E64204FF4C8752169E268F2
:1041800001295DD057F821C062452CDD0131A2EB39
:104190000C020C29E2602161F0D16369C4F810E0DF
:1041A0005A1C9107626147D192FBF0F100FB11228A
:1041B000002A43D103F26D7393FBF5F205FB123332
:1041C000002B14BF1C231D23D8E71C23CCE71D2381
:1041D000CAE71E4F0B2664204FF4C875D4F80CE0D4
:1041E000BEF1000F01DD03B0F0BD2169013921618D
:1041F000013114D163692661591E8A07616117D1A3
:1042000091FBF0F200FB1211A1B903F26B7393FB67
:10421000F5F205FB1233002B14BF1C231D2322696A
:10422000012A14BF57F822201A467244E260D5E7EB
:104230001C23F4E71D23F2E71C239FE71D239DE7C2
:104240009342D0DAD21AE260266197E76C740008D4
:104250002DE9F047814601F075FE80464846FFF79C
:1042600017FF99E88100D9F81030B44AD9F80C400A
:1042700052F823203C2505FB0707D9F808004FF426
:104280006165013C012B05FB00701444D9F8143022
:1042900011DD99070FD1642193FBF1F201FB12327A
:1042A00042B903F26C754FF4C87195FBF1F201FB52
:1042B000125202B9013403F51C52103244F6206147
:1042C0008A42C9F81C4000F22D81462B70DD46253C
:1042D00040F26D1764214FF4C876AA0762D195FBAE
:1042E000F1F201FB1252002A5FD105F26C7E9EFBB7
:1042F000F6F206FB12E2002A14BF3A464FF4B772F8
:104300000135AB421444E8D18D4F07FB040701F09F
:1043100003F901F003F98B4B1E68002E00F00A81AF
:10432000D9F82030D9F81400012BA8BF01239A46F0
:10433000D8F8043000F26C7098427CD1D8F838205C
:10434000D8F82030D8F83C00D8F81C10D61AB7425C
:10435000A1EB000176DAD8F80020002A76D08F424F
:10436000C0F2E380B742ACBF00260126BAF1000FCD
:1043700072DA012E40F0DE80D8F83C5001263D4430
:1043800001F0CBF80434072394FBF3F3C3EBC3032E
:10439000E41A48BF0734C9F82060C9F81840284615
:1043A000BDE8F08740F26D12AAE74FF4B772A7E7B5
:1043B0001ED0452240F26D1764254FF4C8769A420C
:1043C00018DC9D0731D1642193FBF1F201FB12321D
:1043D00072BB03F26C754FF4C87195FBF1F201FBEF
:1043E0001252002A40F26D1208BF4FF4B772A41A9D
:1043F0001D4689E7910712D192FBF5F105FB1121CA
:1044000081B902F26C7E9EFBF6F106FB11E10029F8
:1044100014BF39464FF4B771641A013ACFE740F23E
:104420006D11F9E74FF4B771F6E740F26D12DEE770
:104430004FF4B772DBE700F0C7FF00287FF47EAFD0
:10444000564696E7121A9742FADB84E78F4289DBD9
:10445000BAF1000F90DB01268AEA060ABAF1010FD1
:1044600087D11B1A06B95B42D9F80020D9F80CA0F5
:104470001A44C9F8002048461F44FFF709FED9F83E
:104480000C30B3EB0A033FF474AF012B21DC981C12
:10449000D8BF0123D9F81C201C449B1822D56A1EC2
:1044A000910719D1642192FBF1F301FB1323B3B9F6
:1044B00005F26B754FF4C87295FBF2F302FB1355CE
:1044C000002D40F26D1318BF4FF4B673C9F81C30BD
:1044D0004FE74FF0FF33DDE74FF4B673F6E740F2F6
:1044E0006D13F3E7AA0717D1642195FBF1F201FBE5
:1044F0001252A2B905F26C754FF4C87195FBF1F236
:1045000001FB1255002D40F26D1208BF4FF4B77237
:104510009A42D8BF9B1AD9E740F26D12F8E74FF4E0
:10452000B772F5E74FF0FF3539E7BAF1000F4FF0FA
:10453000000691DAD8F820503D4421E79C74000829
:10454000805101007002002038B50546002945D091
:1045500051F8043C0C1F002BB8BFE41801F0B6FD65
:104560001F4A1368104633B9636014602846BDE8DB
:10457000384001F0ACBDA3420CD9216862189342C7
:1045800004BF1A685B68636004BF5218226004604D
:10459000ECE713465A680AB1A242FAD919685818CA
:1045A000A0420BD120680144581882421960DDD125
:1045B000106852685A6001441960D7E702D90C2389
:1045C0002B60D3E7206821188A4204BF1168526823
:1045D000626004BF091821605C60C7E738BD00BF96
:1045E0004C02002070B5CD1C25F0030508350C2DBC
:1045F00038BF0C25002D064601DBA94203D90C2348
:104600003360002070BD01F061FD234A146821462B
:1046100091B9224C23681BB9304600F041F8206064
:104620002946304600F03CF8431C26D10C23336069
:10463000304601F04CFDE4E70B685B1B1AD40B2BF2
:104640000FD90B60CD50CC18304601F040FD04F17D
:104650000B00231D20F00700C31A1BD05A42E25062
:1046600070BD8C420DBF63684B686360136018BFF8
:104670000C46E9E70C464968CAE7C41C24F0030469
:10468000A04205D0211A304600F00AF80130CDD002
:104690002560D9E770BD00BF4C0200205002002009
:1046A00038B5064C0023054608462360FFF71EFB7D
:1046B000431C02D1236803B12B6038BD5C1C002071
:1046C00070B504460D4645EC104B164601F0C0FF90
:1046D00051EC100B7EB1C5F30A53C3F16B03002BF1
:1046E00009DD1B0503F17F55002405F54015224621
:1046F0002B46FBF78DFF70BD2DE9F04F9FB098461C
:104700000490002340460C4615921A9301F0CAFC0F
:1047100007460068FBF766FD4FF0000A05464FF0BC
:10472000000B1994199B1A780D2A33D8092A37D20D
:10473000002A3FD000230993199E3378302B40F094
:1047400003817378582B01D0782B6BD1099B01938F
:104750001AAB0093CDF808801BABAD4A049819A999
:1047600001F0C2F810F00704054605D0062C2BD145
:104770000136002319960993159B002B40F0908574
:10478000099BE3B152460BF1004343EC102B1FB0E1
:10479000BDE8F08F2B2A06D02D2A13D0202AC9D1AC
:1047A00001331993BEE7002209925A1C19925B78D3
:1047B000002BC1D1159B1994002B40F06F855246F8
:1047C0005B46E2E70122EFE71A9A3AB135211CA8CD
:1047D00002F02FF81A99049801F0AEFC013C042C69
:1047E00008D8DFE804F00C03171A0C00DDF870A0FD
:1047F000DDF874B02907BFD54BF0004BBCE71D9B1B
:104800001B9ADDF870A023F4801302F2334243EACE
:10481000025BEFE7DFF804B2ECE76FF0004B4FF01C
:10482000FF3AE7E7199B5A1C19925B78302BF9D0B5
:10483000002BA1D001234FF000090893199B0A9384
:10484000CDF81C90CDF818900A2219980678A6F198
:104850003003D9B2092979D92A46396802F066F8B5
:10486000002800F082800020069D33460246014663
:10487000652B02D0452B40F0E88025B910B9089B84
:10488000002B97D00025199C631C199363782B2B60
:1048900000F0C8802D2B00F0CB8000260596A3F1F8
:1048A0003006092E00F2D080302B00F0C380A3F137
:1048B0003106082E00F2C980A3F1300E199B4FF08B
:1048C0000A0C1F46199B5E1C19965B78A3F13008F1
:1048D000B8F1090F40F2B380F61B082E44F61F68AA
:1048E00002DCF045A8BFF046059E0EB1C8F10008F5
:1048F000002D40F0D08000287FF43EAF089A002AB7
:104900007FF43AAF00297FF455AF4E2B00F0A6801C
:1049100000F39E80492B7FF44DAF3E4919A801F06A
:1049200013FA00283FF446AF199B3B49013B19A8F5
:10493000199301F009FA10B9199B01331993DFF8A3
:10494000DCB04FF0000A17E7002374E70699082946
:10495000DDBF079902FB0133079302FB0939069B70
:1049600001300133069319906FE7199B5A19199278
:10497000069A5B5D002A48D11046302B2AD0A3F15D
:104980003102082A00F29184199A0A920246002004
:104990000546303B00F1010111D00A4400EB050C43
:1049A00029460A2661451BD12844082800F1010543
:1049B00025DC07980A2101FB003307930021199B8E
:1049C000581C19905B780846A3F130010929E0D9F9
:1049D00001214DE7199B5A1C199201305B78CCE7F5
:1049E000013101F1FF3EBEF1080F03DC079F774361
:1049F0000797D7E71029D8BF06FB09F9D2E7102D92
:104A0000DCBF0A2101FB0939D8E70246069DDBE736
:104A1000387500082C7500082F7500080000F07F1D
:104A200001212BE700230593A31C1993A37836E7F4
:104A30000123F8E7199B5E1C19965B7834E70CFBA1
:104A40000E3EAEF1300E3DE719944FF000084FE7EF
:104A5000692B3FF462AF6E2B7FF4ACAE884919A886
:104A600001F072F900283FF4A5AE199B1B78282BA2
:104A70000ED11CAA834919A801F079F9052807D19C
:104A80001D9BDDF870A043F0FF4B4BF4E00B73E689
:104A9000DFF800B255E7069B0798002B08BF2B46AE
:104AA000102D2C46A8EB0208A8BF10240693FBF794
:104AB00039FD092C82468B4613DD734B03EBC4038F
:104AC00053E91223FBF7A4FD064648460F46FBF7C1
:104AD00029FD02460B4630463946FBF7E7FB824686
:104AE0008B460F2D36DCB8F1000F3FF445AE24DDC8
:104AF000B8F1160F0BDC644D05EBC808D8E90001CE
:104B000052465B46FBF784FD82468B4634E6C5F190
:104B1000250398451EDC5C4CC5F10F0504EBC5016F
:104B2000A8EB050552465B46D1E9000104EBC5043C
:104B3000FBF76EFDD4E90023E4E718F1160F09DB5B
:104B4000514DA5EBC808D8E9002350465946FBF75C
:104B500089FED9E72C1B4444002C70DD14F00F03B0
:104B60000AD0494901EBC30152465B46D1E9000135
:104B7000FBF74EFD82468B4634F00F0450D0B4F55F
:104B80009A7F23DD0024254607940694049ADFF8D3
:104B900008B1222313604FF0000A079B002B3FF45B
:104BA000EBAD1A99049801F0C7FA0699049801F040
:104BB000C3FA2946049801F0BFFA0799049801F056
:104BC000BBFA2146049801F0B7FAD5E52F4E002331
:104BD00024115046594699463746012C23DC0BB127
:104BE00082468B46ABF1547B07EBC90752465B46C6
:104BF000D7E90001FBF70CFD21F000438B460A4684
:104C00001B0D23491B058B428246BBD8A1F58011A1
:104C10008B4286BFDFF884B04FF0FF3A02F1547B3D
:104C2000002305936DE0E20704D5D6E90023FBF7E6
:104C3000EFFC012309F1010964100836CDE7EFD03C
:104C4000644214F00F020AD00F4B03EBC20350462C
:104C50005946D3E90023FBF705FE82468B46241113
:104C6000DED01F2C1CDD0024254607940694049AF0
:104C700022234FF0000A4FF0000B13608DE700BFB6
:104C8000357500084C750008F8750008D0750008E7
:104C90000000A07C0000F8FF0000F07FFFFFEF7F26
:104CA00014F0100318BF6A23A04E059350465946CE
:104CB0000023002C00F306810BB182468B46059B36
:104CC000BBB1CBF30A53C3F16B03002B594610DD84
:104CD0001F2B40F30181342BDEBF203B4FF0FF320E
:104CE00002FA03F34FF0000ACCBF4FF05C7B03EAFB
:104CF000010B0022002350465946FBF7F1FE002825
:104D0000B1D1079B0093069A0A9904982B4601F0AB
:104D100065FA079000283FF435AFB8F1000FC8F1ED
:104D20000003A8BF00230E93002428EAE8730F9322
:104D30002546079B0498596801F0CAF90690002897
:104D40003FF424AF079B1A69023203F10C01920071
:104D50000C30FFF789F91CAA1BA94BEC10AB049887
:104D6000CDE90AAB01F0EAFC1A9000283FF40EAF3F
:104D70000121049801F0BEFA054600283FF406AF71
:104D80001B9E1C9A002EABBF0E9B0F9B0F9FDDF846
:104D90003880ACBF03EB06089F1B059BF61A164430
:104DA000634B013E9E42C2F1360280F2A8809B1BFB
:104DB0001F2BA2EB03024FF0010900F3948009FAC4
:104DC00003F31493002608EB0209059BC84517441A
:104DD0001F444346A8BF4B46BB42A8BF3B46002BDF
:104DE000C2BFA9EB0309FF1AA8EB03080E9BBBB1D6
:104DF00029461A46049801F013FB054600283FF4A3
:104E0000C5AE01461A9A049801F07DFA0890002870
:104E10003FF4BCAE1A99049801F08EF9089B1A93DE
:104E2000B9F1000F6FDC0F9B002B75D1002F08DD4F
:104E30003A460699049801F041FB069000283FF499
:104E4000A5AEB8F1000F08DD29464246049801F0EE
:104E500035FB054600283FF499AE069A1A99049846
:104E600001F097FB044600283FF490AEC368089316
:104E70000023C360294601F072FB00285ADA089B20
:104E8000E3B9BAF1000F19D1CBF31303B3B92BF087
:104E900000431B0D1B05B3F1D66F0FD9636913B91E
:104EA0002369012B0ADD21460122049801F006FB4B
:104EB0002946044601F053FB00286CDC059B002BBF
:104EC00076D16EE6E20704D5D6E90023FBF7A0FB16
:104ED000012364100836ECE64FF0FF3202FA03F3C8
:104EE00003EA0A0A05E7C6F17F4606F57F0606F5DE
:104EF0007B46E23609FA06F6CDF8509063E70123C7
:104F0000002614935FE74A461A99049801F0D6FAEE
:104F10001A90002887D139E60F9A0699049801F073
:104F20007FFA0690002881D130E600BF6075000846
:104F300002FCFFFF40F08680089ACBF3130332B3E4
:104F4000AD4A9342594652D1059B5046D3B1AB4A24
:104F50000A40B2F1D46F4FF0FF3716D8120DC2F1EC
:104F60006B0307FA03F3834241D1A54A914202D170
:104F700001333FF40BAEA14B0B4003F5801B4FF008
:104F8000000A9BE74FF0FF33EDE73B46EBE773BBCF
:104F9000BAF1000F2BD12BF00043059A1B0D1B0516
:104FA000E2B1B3F1D66F19DCB3F15C7F7FF75FAE8E
:104FB000944B0D9300230C9350465946DDE90C2386
:104FC000FBF726FB82468B4600297FF4EAAD0028DA
:104FD0007FF4E7AD049A22231360E2E5A3F5801382
:104FE0006FEA135B6FEA0B5B4FF0FF3A66E79EB127
:104FF00016EA0B0F3FF462AF089B059A50465946DC
:1050000073B1FFF75DFB02460B46DDE90A01FBF7D2
:105010004DF982468B4651E7149B13EA0A0FE9E7E4
:10502000FFF74EFB02460B46DDE90A01FBF73CF9B0
:105030000022002382468B46FBF752FD00287FF4B6
:1050400016AE3BE72946204601F0C7FB57EC106B34
:1050500000224FF0804310EE100A3946FBF754FD52
:10506000002874D0089B002B46D0DFF89C914FF0AD
:105070000008654F0026614B0BEA03031493149A52
:10508000624B9A4240F0CA80DDE90A23ABF1547BBF
:105090004BEC10ABCDE90C2301F0DAFA404653ECAF
:1050A000102B4946FBF7B4FA52465B46FBF7FEF875
:1050B000524A574B0A409A4282465CD90D9A03F1F4
:1050C00054739A4203D10C9B01333FF45FADDFF878
:1050D00030B14FF0FF3A1A99049801F02DF8069973
:1050E000049801F029F82946049801F025F8214692
:1050F000049801F021F81CE6BAF1000F18D1CBF3A7
:105100001303E3B90022404B30463946FBF7F2FC6B
:10511000D0B93046394600223E4BFBF779FA0646B5
:105120000F4607F1004316961793DDE91689A2E7AB
:10513000BAF1010F03D1BBF1000F3FF498AD4FF06E
:105140000008DFF8D49094E70026324FE9E7314BAE
:10515000304639460022FBF75BFA089B06460F46AD
:1051600033B901F1004310901193DDE9108982E712
:10517000CDE91067F9E701F1547B059B002BAAD11B
:105180002BF000431B0D149A1B059A42D846A2D15E
:1051900039463046FBF7D6FCFBF7D4F90B460246FE
:1051A00039463046FBF780F8089B06460F4633B970
:1051B000BAF1000F03D1CBF31303002B68D00AA37D
:1051C000D3E9002330463946FBF794FC00287FF4EE
:1051D000E8AC07A3D3E9002330463946FBF7A8FC27
:1051E00000283FF478AFDCE49535A094FFFFDF3F63
:1051F00035E5AF350000E03FFFFF0F000000F07F16
:10520000FFFFEF7F000050390000F03F0000E07F1B
:10521000FFFF9F7C0000E03F0000F0BF059B1BB339
:10522000149BB3F1D46F1FD825A3D3E900233046D4
:105230003946FBF769FC90B139463046FBF7AAFCCA
:10524000002808BF0120FBF76DF9089B06460F46B2
:10525000DBB901F1004312901393DDE91289149A2E
:1052600009F1D663A3EB02099DED0A0B01F0F0F9F9
:10527000404653EC102B4946FBF7CAF9DDE90A23F7
:10528000FBF714F882468B4677E7CDE91267E4E72F
:105290000DA3D3E90023FBF72DFCA1E7002309931D
:1052A000159A199B1360FFF76BBA652B4FF000023C
:1052B0003FF4B6AB15460121FFF7DCBAAFF300802F
:1052C0000000C0FFFFFFDF419535A094FFFFCF3FF7
:1052D000074B084A10B41C68236A002B08BF13460A
:1052E0000A46014620465DF8044BFFF705BA00BFA9
:1052F00010000020BC000020134B2DE9F0411D6878
:10530000AC6D06460F46B4B95020FEF79DFEA86569
:10531000046044608460C4600461446184618462A8
:10532000C462046344638463C46304644464846443
:10533000C46404774462AA6D394630460123BDE84F
:10534000F04100F003B800BF10000020F0B518B91C
:10535000106808B9F0BD204604460F4614F8015BFA
:1053600017F8016B1EB965B915602846F0BDB54246
:10537000F6D1002BEFD114600370F0BD1C460CE099
:1053800015B914F8013B0E4616F8015BAB42F7D194
:10539000002BF3D0002304F8013C1460F0BD0000A2
:1053A00013B5084B044600221868694600F0B8FDA2
:1053B0000028BCBF4FF0FF330093009804B1206079
:1053C00002B010BD100000202DE9F74F044600F098
:1053D000B9FD40F2B1739C4240F398806FF4F663DC
:1053E000E3189B1040F26D12A4F2B27502FB053572
:1053F0006FF06302A4F26D7393FBF2F36FF4C86273
:105400001D444FF4C873A21894FBF3F792FBF3F218
:1054100003FB174700F138031544B7FA87FE6422EF
:10542000019304F0030394FBF2F6446002FB16467A
:105430004FEA5E1E014600936FF0404C0B7A4A2BF8
:1054400023D14C69009A2B1902B906B9DFB93B2C5C
:10545000D4BF002401241C44013C2D4B8A6903FB6A
:1054600004240B6A1C4441F81C4F019B8B42E5D17C
:10547000C369826B9342ACBF002301230360012008
:1054800003B0BDE8F08F0024E5E7442B02D14B695F
:10549000EC18E2E7009B7BBB002E0CBFF0464FF000
:1054A00001081C4BCC68302202FB0838A8F1040A22
:1054B0002B464FF00109A14520DB012CB8BF012488
:1054C000A14603F1040B07224C699BFBF2FACAEBDD
:1054D000CA0AABEB0A0AB4EB0A0A0C69E14404F10C
:1054E000FF3448BF9244C4EBC40458F829805444A4
:1054F000444509DA1C44B0E7F046D2E75AF804BF45
:1055000009F101095B44D6E7073CF1E70020B7E762
:1055100080510100CC74000870477047014B186837
:1055200000F002B8100000202DE9F04F8DB00746C2
:1055300000F008FDB149B24E0546384600F0E8FCDF
:10554000044670B9AF4BB04A1860B04B1860B04B0E
:1055500030681A605A60FEF77FFD34600DB0BDE818
:10556000F08F3168002960D13068FEF775FD204664
:10557000FAF738FE411C3846FFF734F8306000284F
:1055800058D12378A34AA4493A2B08BF01340AAE64
:105590003346204601F096F90028DFDD0A9BE71824
:1055A000E35C2D2B4AD101374FF0FF340DF1200A77
:1055B0000DF11E0B4FF000080396CDF808A00196E0
:1055C000CDF800B0334607AA9449ADF81E8038469E
:1055D000ADF8208001F076F94045BFDDBDF81E3002
:1055E000BDF82020DFF840923C2101FB0322BDF8EA
:1055F0001C304FF4616101FB03235C432C62844C3B
:10560000844B23600A9B84491F444A4633463846EC
:1056100001F058F9404516DC23686360794B2A6A2B
:105620001A607A4BC3F8008098E7FAF7D1FD00289A
:1056300094D099E7214601F071F9A2E72B2B08BF1E
:1056400001370124B2E70A9BC4F80490FC18FB5C04
:105650002D2B40F0928001344FF0FF370023ADF83E
:105660001C30ADF81E30ADF820300A930396CDF80B
:1056700008A00196CDF800B0334607AA6749204636
:1056800001F020F900287DDC2B6AA3F56163EB6350
:105690000A9B2F461C444FF0000923782C2B08BF8F
:1056A000013494F80080B8F14D0F7BD10DF1260341
:1056B000029309AB00930396019633460DF1220243
:1056C0005749204601F0FEF803287FF447AFBDF8A4
:1056D00022104B1E0B2B3FF641AFBDF82420531E6A
:1056E000042B3FF63BAFBDF82630062B3FF636AF16
:1056F00087F80880F9603A617B610A9B04EB030834
:105700000223ADF81C300023ADF81E30ADF8203078
:105710000A9398F800302F2B0BD10396CDF808A0F0
:105720000196CDF800B0334607AA3E49404601F045
:10573000C9F8BDF81E30BDF820203C2101FB032232
:10574000BDF81C304FF4616101FB0323BB610A9C6F
:1057500009F10109B9F1020F444407F11C079CD17A
:105760006868FFF731FE274B2A6A1A60EB6B9B1AB9
:10577000264A18BF01231360F0E62B2B08BF013423
:1057800001276BE7BDF81E30BDF820203C2101FB4E
:105790000322BDF81C304FF4616101FB03235F431A
:1057A000EF6375E7B8F14A0F06BF0134434644235F
:1057B0000A220BA92046059301F05AF9DDF82C8046
:1057C000ADF826004445059B14D14D23B9F1000FD7
:1057D00007D12B720323EB6002232B61C5F81490D1
:1057E0008EE785F824300B23AB620123EB620023A4
:1057F0002B6385E780B23B72786181E7887500088A
:105800006C020020740200208B75000870020020DA
:10581000740000205F0200208F750008B275000838
:105820009E750008B175000854020020002910B5CB
:1058300091FBF2F402FB141306DB002B01DA0134B6
:105840009B1A0460436010BD002BC4BF04F1FF34F9
:105850009B18F6E7F0B506694B11B34200F1140549
:105860002BDA11F01F0105EB860605EB830208D148
:105870002946B2420B4610D252F8043B41F8043B91
:10588000F7E755F82340C1F1200E0432CC402B46F7
:10589000B24208D31C6004B104335B1B9B1003614C
:1058A00003B94361F0BD176807FA0EF73C4343F8AC
:1058B000044B52F8044BCC40EAE72B46EDE7A0F14D
:1058C0003003092B02D82038C0B27047A0F1610321
:1058D000052B01D84738F7E7A0F14103052B01D884
:1058E0002738F1E7002070472DE9F04F8BB08A464A
:1058F000029016980693904600F0D4FB0368039339
:105900001846FAF76FFC039B019003444FF0000B1D
:1059100013F8013C0793DAF8003002331F4613F8FE
:10592000010B30286CD0FFF7CAFF044600286AD16B
:10593000019A0399384600F0F9FF002866D1019BCF
:10594000F85CFE18FFF7BBFF002862D033461878DA
:1059500030281F4603F10103F9D0FFF7B0FFB0FA7A
:1059600080F56D0934464FF0010B3A461646013278
:105970003078FFF7A4FF0028F8D1019A0399304648
:1059800000F0D4FF50B954B9019BF41822461646D2
:1059900001323078FFF793FF0028F8D10CB1A41B37
:1059A000A4003378502B01D0702B40D173782B2B6F
:1059B00035D02D2B2FD0711C4FF000090878FFF740
:1059C0007EFF431EDBB2182B31D8A0F1100211F874
:1059D000010FFFF774FF431EDBB2182B22D9B9F178
:1059E000000F00D052421444CAF800100DB3BBF1AE
:1059F000000F14BF0027062738460BB0BDE8F08F14
:105A00000BF1010B8AE700252C46AEE73E46012547
:105A1000C7E70446FBE74FF00109B11CCEE74FF0A2
:105A20000009FAE70A2303FB0202103ACFE73146E6
:105A3000DAE7F31B013B2946072B49DC029800F00B
:105A400047FB019B00F114094FF0000BC3F1010368
:105A50000546CDF81090DA460893B7423BD3049838
:105A600040F804ABA0EB09008010286147015046C4
:105A700000F0F2FBD8F800603F1AB74264DDBF1BAC
:105A80003946284600F0EFFE824678B17B1E591158
:105A900003F01F024FF0010A59F821100AFA02F22E
:105AA0000A4203D0534546DC4FF0020A39462846E5
:105AB000FFF7D0FE3C44D8F808309C4252DD29461E
:105AC000029800F039FB149A00231360A32793E790
:105AD00001315B10B0E7731E0593079A16F8013C7D
